{
	"data": {
		"bytecode": {
			"linkReferences": {},
			"object": "608060405234801561001057600080fd5b50613f0a806100206000396000f3fe60806040526004361061036f5760003560e01c80636b02427a116101c6578063a0712d68116100f7578063caac793411610095578063dd62ed3e1161006f578063dd62ed3e14610a55578063ea2f0b3714610a9b578063f2fde38b14610abb578063ffa1ad7414610adb57600080fd5b8063caac7934146109f5578063d543dbeb14610a15578063dc67f16714610a3557600080fd5b8063a9059cbb116100d1578063a9059cbb14610975578063b8c9d25c14610995578063c21ebd07146109b5578063c49b9a80146109d557600080fd5b8063a0712d6814610915578063a457c2d714610935578063a53691ac1461095557600080fd5b80637d1db4a51161016457806388f820201161013e57806388f82020146108895780638da5cb5b146108c25780638ee88c53146108e057806395d89b411461090057600080fd5b80637d1db4a51461081d5780637dfcbe3414610833578063879ae3691461085357600080fd5b806370a08231116101a057806370a08231146107a8578063715018a6146107c8578063788bc78c146107dd57806379cc6790146107fd57600080fd5b80636b02427a1461075d5780636bc87c3a146107725780636f085bab1461078857600080fd5b8063363becf6116102a05780634549b0391161023e57806352390c021161021857806352390c02146106ab5780635342acb4146106cb5780635b89029c14610704578063658c27a91461072457600080fd5b80634549b0391461064a578063457c194c1461066a5780634a74bb021461068a57600080fd5b80633b124fe71161027a5780633b124fe7146105d45780633bd5d173146105ea57806342966c681461060a578063437823ec1461062a57600080fd5b8063363becf61461055c5780633685d4191461059457806339509351146105b457600080fd5b8063232e0e9a1161030d5780632d1343f3116102e75780632d1343f3146104da5780632d838119146104fa578063313ce5671461051a57806331a2d7c31461053c57600080fd5b8063232e0e9a1461046257806323b872dd14610499578063241ec3be146104b957600080fd5b806313114a9d1161034957806313114a9d146103f857806318160ddd146104175780631f46b1c61461042c57806322976e0d1461044c57600080fd5b8063061c82d01461037b57806306fdde031461039d578063095ea7b3146103c857600080fd5b3661037657005b600080fd5b34801561038757600080fd5b5061039b61039636600461358b565b610af0565b005b3480156103a957600080fd5b506103b2610b28565b6040516103bf91906135a4565b60405180910390f35b3480156103d457600080fd5b506103e86103e3366004613617565b610bba565b60405190151581526020016103bf565b34801561040457600080fd5b5060a5545b6040519081526020016103bf565b34801561042357600080fd5b5060a354610409565b34801561043857600080fd5b5061039b610447366004613653565b610bd1565b34801561045857600080fd5b5061040960aa5481565b34801561046e57600080fd5b5061048261047d36600461366e565b610bf7565b6040805192151583526020830191909152016103bf565b3480156104a557600080fd5b506103e86104b436600461368b565b610c58565b3480156104c557600080fd5b5060b2546103e890600160a01b900460ff1681565b3480156104e657600080fd5b5061039b6104f536600461366e565b610cc1565b34801561050657600080fd5b5061040961051536600461358b565b610ceb565b34801561052657600080fd5b5060a25460405160ff90911681526020016103bf565b34801561054857600080fd5b5061039b6105573660046136cc565b610d5c565b34801561056857600080fd5b5060ae5461057c906001600160a01b031681565b6040516001600160a01b0390911681526020016103bf565b3480156105a057600080fd5b5061039b6105af36600461366e565b610d92565b3480156105c057600080fd5b506103e86105cf366004613617565b610f26565b3480156105e057600080fd5b5061040960a65481565b3480156105f657600080fd5b5061039b61060536600461358b565b610f5c565b34801561061657600080fd5b5061039b61062536600461358b565b611033565b34801561063657600080fd5b5061039b61064536600461366e565b611040565b34801561065657600080fd5b50610409610665366004613705565b61106c565b34801561067657600080fd5b5061039b61068536600461358b565b6110fb565b34801561069657600080fd5b5060af546103e890600160a81b900460ff1681565b3480156106b757600080fd5b5061039b6106c636600461366e565b61112a565b3480156106d757600080fd5b506103e86106e636600461366e565b6001600160a01b03166000908152609c602052604090205460ff1690565b34801561071057600080fd5b5061039b61071f366004613731565b61125b565b34801561073057600080fd5b506103e861073f36600461366e565b6001600160a01b03166000908152609d602052604090205460ff1690565b34801561076957600080fd5b5061039b61128e565b34801561077e57600080fd5b5061040960a85481565b34801561079457600080fd5b5061039b6107a336600461388b565b6113b8565b3480156107b457600080fd5b506104096107c336600461366e565b6114a1565b3480156107d457600080fd5b5061039b611500565b3480156107e957600080fd5b5061039b6107f8366004613985565b611514565b34801561080957600080fd5b5061039b610818366004613617565b611528565b34801561082957600080fd5b5061040960b05481565b34801561083f57600080fd5b5060b25461057c906001600160a01b031681565b34801561085f57600080fd5b5061040961086e36600461366e565b6001600160a01b031660009081526098602052604090205490565b34801561089557600080fd5b506103e86108a436600461366e565b6001600160a01b03166000908152609e602052604090205460ff1690565b3480156108ce57600080fd5b506033546001600160a01b031661057c565b3480156108ec57600080fd5b5061039b6108fb36600461358b565b6115ae565b34801561090c57600080fd5b506103b26115dd565b34801561092157600080fd5b5061039b61093036600461358b565b6115ec565b34801561094157600080fd5b506103e8610950366004613617565b6116f1565b34801561096157600080fd5b5061039b610970366004613617565b611740565b34801561098157600080fd5b506103e8610990366004613617565b6117a4565b3480156109a157600080fd5b5060ad5461057c906001600160a01b031681565b3480156109c157600080fd5b5060ac5461057c906001600160a01b031681565b3480156109e157600080fd5b5061039b6109f0366004613653565b6117b1565b348015610a0157600080fd5b5060af5461057c906001600160a01b031681565b348015610a2157600080fd5b5061039b610a3036600461358b565b611811565b348015610a4157600080fd5b5061039b610a50366004613617565b611864565b348015610a6157600080fd5b50610409610a703660046136cc565b6001600160a01b039182166000908152609a6020908152604080832093909416825291909152205490565b348015610aa757600080fd5b5061039b610ab636600461366e565b611888565b348015610ac757600080fd5b5061039b610ad636600461366e565b6118b1565b348015610ae757600080fd5b506103b2611927565b610af86119b5565b612710811115610b235760405162461bcd60e51b8152600401610b1a906139c2565b60405180910390fd5b60a655565b606060a08054610b37906139e7565b80601f0160208091040260200160405190810160405280929190818152602001828054610b63906139e7565b8015610bb05780601f10610b8557610100808354040283529160200191610bb0565b820191906000526020600020905b815481529060010190602001808311610b9357829003601f168201915b5050505050905090565b6000610bc7338484611a0f565b5060015b92915050565b610bd96119b5565b60b28054911515600160a01b0260ff60a01b19909216919091179055565b6001600160a01b0381166000908152609b6020526040812054819015801590610c3757506001600160a01b0383166000908152609b602052604090205442105b6001600160a01b039093166000908152609b60205260409020549293915050565b6000610c65848484611b2b565b610cb78433610cb285604051806060016040528060288152602001613e68602891396001600160a01b038a166000908152609a602090815260408083203384529091529020549190611f05565b611a0f565b5060019392505050565b610cc96119b5565b60b280546001600160a01b0319166001600160a01b0392909216919091179055565b600060a454821115610d3f5760405162461bcd60e51b815260206004820152601a60248201527f5265666c656374696f6e20616d6f756e74206f766572666c6f770000000000006044820152606401610b1a565b6000610d49611f31565b9050610d558382611f54565b9392505050565b610d646119b5565b60ae80546001600160a01b039384166001600160a01b03199182161790915560af8054929093169116179055565b610d9a6119b5565b6001600160a01b0381166000908152609e602052604090205460ff16610e025760405162461bcd60e51b815260206004820152601b60248201527f4163636f756e7420697320616c7265616479206578636c7564656400000000006044820152606401610b1a565b60005b609f54811015610f2257816001600160a01b0316609f8281548110610e2c57610e2c613a21565b6000918252602090912001546001600160a01b031603610f1057609f8054610e5690600190613a4d565b81548110610e6657610e66613a21565b600091825260209091200154609f80546001600160a01b039092169183908110610e9257610e92613a21565b600091825260208083209190910180546001600160a01b0319166001600160a01b039485161790559184168152609982526040808220829055609e90925220805460ff19169055609f805480610eea57610eea613a60565b600082815260209020810160001990810180546001600160a01b03191690550190555050565b80610f1a81613a76565b915050610e05565b5050565b336000818152609a602090815260408083206001600160a01b03871684529091528120549091610bc7918590610cb29086611f60565b336000818152609e602052604090205460ff1615610fbc5760405162461bcd60e51b815260206004820152601f60248201527f556e617574686f72697a6564204578636c7564656420616464726573736573006044820152606401610b1a565b6000610fc783611f6c565b5050506001600160a01b038616600090815260986020526040902054939450610ff593925084915050611fc7565b6001600160a01b03831660009081526098602052604090205560a45461101b9082611fc7565b60a45560a55461102b9084611f60565b60a555505050565b61103d3382611fd3565b50565b6110486119b5565b6001600160a01b03166000908152609c60205260409020805460ff19166001179055565b600060a3548311156110c05760405162461bcd60e51b815260206004820152601f60248201527f416d6f756e74206d757374206265206c657373207468616e20737570706c79006044820152606401610b1a565b816110e05760006110d084611f6c565b50949650610bcb95505050505050565b60006110eb84611f6c565b50939650610bcb95505050505050565b6111036119b5565b6127108111156111255760405162461bcd60e51b8152600401610b1a906139c2565b60aa55565b6111326119b5565b6001600160a01b0381166000908152609e602052604090205460ff161561119b5760405162461bcd60e51b815260206004820152601b60248201527f4163636f756e7420697320616c7265616479206578636c7564656400000000006044820152606401610b1a565b6001600160a01b038116600090815260986020526040902054156111f5576001600160a01b0381166000908152609860205260409020546111db90610ceb565b6001600160a01b0382166000908152609960205260409020555b6001600160a01b03166000818152609e60205260408120805460ff19166001908117909155609f805491820181559091527f0bc14066c33013fe88f66e314e4cf150b0b2d4d6451a1a51dbbd1c27cd11de280180546001600160a01b0319169091179055565b6112636119b5565b6001600160a01b03919091166000908152609d60205260409020805460ff1916911515919091179055565b6112966119b5565b60a58054600091829055906112a9611f31565b905060006112b783836120af565b60ae546001600160a01b03166000908152609860205260409020549091506112df9082611f60565b60ae546001600160a01b0316600090815260986020908152604080832093909355308252609e9052205460ff1615611375573060009081526099602052604090205461132b9082611fc7565b306000908152609960205260408082209290925560ae546001600160a01b0316815220546113599082611f60565b60ae546001600160a01b03166000908152609960205260409020555b60ae546001600160a01b0316335b6001600160a01b0316600080516020613e90833981519152856040516113ab91815260200190565b60405180910390a3505050565b600054610100900460ff16158080156113d85750600054600160ff909116105b806113f25750303b1580156113f2575060005460ff166001145b61140e5760405162461bcd60e51b8152600401610b1a90613a8f565b6000805460ff191660011790558015611431576000805461ff0019166101001790555b6114396120bb565b61144c8c8c8c8c8c8c8c8c8c8c8c6120ea565b8015611493576000805461ff0019169055604051600181527f7f26b83ff96e1f2b6a682f133852f6798a09c465da95921460cefb3847402498906020015b60405180910390a15b505050505050505050505050565b6001600160a01b0381166000908152609e602052604081205460ff16156114de57506001600160a01b031660009081526099602052604090205490565b6001600160a01b038216600090815260986020526040902054610bcb90610ceb565b6115086119b5565b611512600061275a565b565b61151c6119b5565b6097610f228282613b23565b60006115348333610a70565b9050818110156115925760405162461bcd60e51b8152602060048201526024808201527f45524332303a206275726e20616d6f756e74206578636565647320616c6c6f77604482015263616e636560e01b6064820152608401610b1a565b61159f8333848403611a0f565b6115a98383611fd3565b505050565b6115b66119b5565b6127108111156115d85760405162461bcd60e51b8152600401610b1a906139c2565b60a855565b606060a18054610b37906139e7565b6115f46119b5565b61160b6000610f226033546001600160a01b031690565b8060a3600082825461161d9190613be3565b9091555061165d9050816098600061163d6033546001600160a01b031690565b6001600160a01b0316815260208101919091526040016000205490611f60565b609860006116736033546001600160a01b031690565b6001600160a01b0316815260208101919091526040016000205561169f6033546001600160a01b031690565b6001600160a01b031660006001600160a01b0316600080516020613e90833981519152836040516116d291815260200190565b60405180910390a361103d6000610f226033546001600160a01b031690565b6000610bc73384610cb285604051806060016040528060258152602001613eb060259139336000908152609a602090815260408083206001600160a01b038d1684529091529020549190611f05565b6117486119b5565b611751306114a1565b8111156117995760405162461bcd60e51b8152602060048201526016602482015275416d6f756e7420657863656564732062616c616e636560501b6044820152606401610b1a565b610f22308383611b2b565b6000610bc7338484611b2b565b6117b96119b5565b60af8054821515600160a81b0260ff60a81b199091161790556040517f53726dfcaf90650aa7eb35524f4d3220f07413c8d6cb404cc8c18bf5591bc1599061180690831515815260200190565b60405180910390a150565b6118196119b5565b620f424081111561183c5760405162461bcd60e51b8152600401610b1a906139c2565b61185e620f42406118588360a3546120af90919063ffffffff16565b90611f54565b60b05550565b61186c6119b5565b6001600160a01b039091166000908152609b6020526040902055565b6118906119b5565b6001600160a01b03166000908152609c60205260409020805460ff19169055565b6118b96119b5565b6001600160a01b03811661191e5760405162461bcd60e51b815260206004820152602660248201527f4f776e61626c653a206e6577206f776e657220697320746865207a65726f206160448201526564647265737360d01b6064820152608401610b1a565b61103d8161275a565b60978054611934906139e7565b80601f0160208091040260200160405190810160405280929190818152602001828054611960906139e7565b80156119ad5780601f10611982576101008083540402835291602001916119ad565b820191906000526020600020905b81548152906001019060200180831161199057829003601f168201915b505050505081565b6033546001600160a01b031633146115125760405162461bcd60e51b815260206004820181905260248201527f4f776e61626c653a2063616c6c6572206973206e6f7420746865206f776e65726044820152606401610b1a565b6001600160a01b038316611a715760405162461bcd60e51b8152602060048201526024808201527f45524332303a20617070726f76652066726f6d20746865207a65726f206164646044820152637265737360e01b6064820152608401610b1a565b6001600160a01b038216611ad25760405162461bcd60e51b815260206004820152602260248201527f45524332303a20617070726f766520746f20746865207a65726f206164647265604482015261737360f01b6064820152608401610b1a565b6001600160a01b038381166000818152609a602090815260408083209487168084529482529182902085905590518481527f8c5be1e5ebec7d5bd14f71427d1e84f3dd0314c0f7b2291e5b200ac8c7c3b92591016113ab565b6001600160a01b038316611b8f5760405162461bcd60e51b815260206004820152602560248201527f45524332303a207472616e736665722066726f6d20746865207a65726f206164604482015264647265737360d81b6064820152608401610b1a565b6001600160a01b038216611bf15760405162461bcd60e51b815260206004820152602360248201527f45524332303a207472616e7366657220746f20746865207a65726f206164647260448201526265737360e81b6064820152608401610b1a565b60008111611c385760405162461bcd60e51b815260206004820152601460248201527316995c9bc81d1c985b9cd9995c88185b5bdd5b9d60621b6044820152606401610b1a565b6000611c4384610bf7565b5090506000611c5184610bf7565b5090508115611c995760405162461bcd60e51b815260206004820152601460248201527353757370656e6465642074696d652072616e676560601b6044820152606401610b1a565b8015611cde5760405162461bcd60e51b815260206004820152601460248201527353757370656e6465642074696d652072616e676560601b6044820152606401610b1a565b60b254600160a01b900460ff1615611d5f5760b25460405163090ec10b60e31b81526001600160a01b03878116600483015286811660248301526044820186905290911690634876085890606401600060405180830381600087803b158015611d4657600080fd5b505af1158015611d5a573d6000803e3d6000fd5b505050505b6033546001600160a01b03868116911614801590611d8b57506033546001600160a01b03858116911614155b15611e29576001600160a01b0385166000908152609d602052604090205460ff16158015611dd257506001600160a01b0384166000908152609d602052604090205460ff16155b15611e295760b054831115611e295760405162461bcd60e51b815260206004820152601760248201527f5472616e7366657220616d6f756e7420657863656564730000000000000000006044820152606401610b1a565b6000611e34306114a1565b905060b0548110611e44575060b0545b60b15481108015908190611e62575060af54600160a01b900460ff16155b8015611e7c575060ad546001600160a01b03888116911614155b8015611e91575060af54600160a81b900460ff165b15611ea45760b1549150611ea4826127ac565b6001600160a01b0387166000908152609c602052604090205460019060ff1680611ee657506001600160a01b0387166000908152609c602052604090205460ff165b15611eef575060005b611efb88888884612853565b5050505050505050565b60008184841115611f295760405162461bcd60e51b8152600401610b1a91906135a4565b505050900390565b6000806000611f3e6129d6565b9092509050611f4d8282611f54565b9250505090565b6000610d558284613c0c565b6000610d558284613be3565b6000806000806000806000806000806000611f868c612b58565b93509350935093506000806000611fa78f878787611fa2611f31565b612bad565b919f509d509b509599509397509195509350505050919395979092949650565b6000610d558284613a4d565b6001600160a01b038216600090815260986020526040902054818110156120475760405162461bcd60e51b815260206004820152602260248201527f45524332303a206275726e20616d6f756e7420657863656564732062616c616e604482015261636560f01b6064820152608401610b1a565b6001600160a01b0383166000908152609860205260408120838303905560a38054849290612076908490613a4d565b90915550506040518281526000906001600160a01b03851690600080516020613e908339815191529060200160405180910390a3505050565b6000610d558284613c20565b600054610100900460ff166120e25760405162461bcd60e51b8152600401610b1a90613c37565b611512612c0f565b600054610100900460ff161580801561210a5750600054600160ff909116105b806121245750303b158015612124575060005460ff166001145b6121405760405162461bcd60e51b8152600401610b1a90613a8f565b6000805460ff191660011790558015612163576000805461ff0019166101001790555b604080518082019091526006815265312e302e323560d01b602082015260979061218d9082613b23565b506127108661ffff1611156121d65760405162461bcd60e51b815260206004820152600f60248201526e496e76616c6964205461782066656560881b6044820152606401610b1a565b6127108561ffff1611156122245760405162461bcd60e51b8152602060048201526015602482015274496e76616c6964204c69717569646974792066656560581b6044820152606401610b1a565b6127108461ffff1611156122725760405162461bcd60e51b8152602060048201526015602482015274496e76616c6964204d61726b6574696e672066656560581b6044820152606401610b1a565b60008761ffff1611801561228d5750620f42408761ffff1611155b6122d15760405162461bcd60e51b8152602060048201526015602482015274125b9d985b1a59081b585e081d1e08185b5bdd5b9d605a1b6044820152606401610b1a565b60208301516001600160a01b03166123355761ffff8416156123355760405162461bcd60e51b815260206004820152601d60248201527f4d61726b6574696e672070657263656e74206d6f7265207468616e20300000006044820152606401610b1a565b612710846123438789613c82565b61234d9190613c82565b61ffff1611156123945760405162461bcd60e51b8152602060048201526012602482015271546f74616c20666565206f766572666c6f7760701b6044820152606401610b1a565b60b280546001600160a01b0319166001600160a01b038481169182179092556040516318e02bd960e01b8152918e166004830152906318e02bd990602401600060405180830381600087803b1580156123ec57600080fd5b505af1158015612400573d6000803e3d6000fd5b505060b2805460ff60a01b191690555061241b90508c6118b1565b60a06124278c82613b23565b5060a16124348b82613b23565b5060a2805460ff1916600890811790915561245090600a613d88565b61245a908a613c20565b60a381905561246b90600019613d97565b61247790600019613a4d565b60a45561ffff86811660a681905560a75585811660a881905560a955835160ae80546001600160a01b039283166001600160a01b031991821617909155602086015160af805491909316911617905584811660aa81905560ab5560a3546124e891620f424091611858918b166120af565b60b05560a35461250190612710906118589060056120af565b60b15560af805460ff60a81b1916600160a81b17905560a454609860006125306033546001600160a01b031690565b6001600160a01b03166001600160a01b03168152602001908152602001600020819055506000889050806001600160a01b031663c45a01556040518163ffffffff1660e01b81526004016020604051808303816000875af1158015612599573d6000803e3d6000fd5b505050506040513d601f19601f820116820180604052508101906125bd9190613dab565b6001600160a01b031663c9c6539630836001600160a01b031663ad5c46486040518163ffffffff1660e01b81526004016020604051808303816000875af115801561260c573d6000803e3d6000fd5b505050506040513d601f19601f820116820180604052508101906126309190613dab565b6040516001600160e01b031960e085901b1681526001600160a01b039283166004820152911660248201526044016020604051808303816000875af115801561267d573d6000803e3d6000fd5b505050506040513d601f19601f820116820180604052508101906126a19190613dab565b60ad80546001600160a01b03199081166001600160a01b039384161790915560ac80549091169183169190911790556126d98d612c3f565b8c6001600160a01b031660006001600160a01b0316600080516020613e9083398151915260a35460405161270f91815260200190565b60405180910390a3508015611493576000805461ff0019169055604051600181527f7f26b83ff96e1f2b6a682f133852f6798a09c465da95921460cefb38474024989060200161148a565b603380546001600160a01b038381166001600160a01b0319831681179093556040519116919082907f8be0079c531659141344cd1fd0a4f28419497f9722a3daafe3b4186f6b6457e090600090a35050565b60af805460ff60a01b1916600160a01b17905560006127cc826002611f54565b905060006127da8383611fc7565b9050476127e683612de5565b60006127f24783611fc7565b90506127fe8382612f41565b60408051858152602081018390529081018490527f17bbfb9a6069321b6ded73bd96327c9e6b7212a5cd51ff219cd61370acafb5619060600160405180910390a1505060af805460ff60a01b19169055505050565b8061286057612860613016565b6001600160a01b0384166000908152609e602052604090205460ff1680156128a157506001600160a01b0383166000908152609e602052604090205460ff16155b156128b6576128b184848461305b565b6129b4565b6001600160a01b0384166000908152609e602052604090205460ff161580156128f757506001600160a01b0383166000908152609e602052604090205460ff165b15612907576128b184848461318f565b6001600160a01b0384166000908152609e602052604090205460ff1615801561294957506001600160a01b0383166000908152609e602052604090205460ff16155b15612959576128b184848461324e565b6001600160a01b0384166000908152609e602052604090205460ff16801561299957506001600160a01b0383166000908152609e602052604090205460ff165b156129a9576128b18484846132a8565b6129b484848461324e565b806129d0576129d060a75460a65560a95460a85560ab5460aa55565b50505050565b60a45460a3546000918291825b609f54811015612b28578260986000609f8481548110612a0557612a05613a21565b60009182526020808320909101546001600160a01b031683528201929092526040019020541180612a7057508160996000609f8481548110612a4957612a49613a21565b60009182526020808320909101546001600160a01b03168352820192909252604001902054115b15612a865760a45460a354945094505050509091565b612acc60986000609f8481548110612aa057612aa0613a21565b60009182526020808320909101546001600160a01b031683528201929092526040019020548490611fc7565b9250612b1460996000609f8481548110612ae857612ae8613a21565b60009182526020808320909101546001600160a01b031683528201929092526040019020548390611fc7565b915080612b2081613a76565b9150506129e3565b5060a35460a454612b3891611f54565b821015612b4f5760a45460a3549350935050509091565b90939092509050565b6000806000806000612b6986613331565b90506000612b768761334e565b90506000612b838861336b565b90506000612b9d82612b9785818d89611fc7565b90611fc7565b9993985091965094509092505050565b6000808080612bbc89866120af565b90506000612bca89876120af565b90506000612bd889886120af565b90506000612be689896120af565b90506000612bfa82612b9785818989611fc7565b949d949c50929a509298505050505050505050565b600054610100900460ff16612c365760405162461bcd60e51b8152600401610b1a90613c37565b6115123361275a565b600054610100900460ff1615808015612c5f5750600054600160ff909116105b80612c795750303b158015612c79575060005460ff166001145b612c955760405162461bcd60e51b8152600401610b1a90613a8f565b6000805460ff191660011790558015612cb8576000805461ff0019166101001790555b60af805460ff60a81b1916600160a81b17905560a4546001600160a01b03831660008181526098602090815260408083209490945530808352609e8252848320805460ff199081166001908117909255858552609c845286852080548216831790559184528584208054831682179055609d909252848320805482168317905592825292812080548316841790557fda243f58084f19e9bb1e74b5321230a149d2328e8f59ad7243acf97bedb43807805483168417905580527fc5dc36ae4e7617e4c4d23ddfcde33c79e9ed64c300aed766a9288a6b9b31f63d805490911690911790558015610f22576000805461ff0019169055604051600181527f7f26b83ff96e1f2b6a682f133852f6798a09c465da95921460cefb38474024989060200160405180910390a15050565b6040805160028082526060820183526000926020830190803683370190505090503081600081518110612e1a57612e1a613a21565b6001600160a01b0392831660209182029290920181019190915260ac54604080516315ab88c960e31b81529051919093169263ad5c464892600480830193919282900301816000875af1158015612e75573d6000803e3d6000fd5b505050506040513d601f19601f82011682018060405250810190612e999190613dab565b81600181518110612eac57612eac613a21565b6001600160a01b03928316602091820292909201015260ac54612ed29130911684611a0f565b60ac5460405163791ac94760e01b81526001600160a01b039091169063791ac94790612f0b908590600090869030904290600401613dc8565b600060405180830381600087803b158015612f2557600080fd5b505af1158015612f39573d6000803e3d6000fd5b505050505050565b60ac54612f599030906001600160a01b031684611a0f565b60ac546001600160a01b031663f305d719823085600080612f826033546001600160a01b031690565b60405160e088901b6001600160e01b03191681526001600160a01b03958616600482015260248101949094526044840192909252606483015290911660848201524260a482015260c40160606040518083038185885af1158015612fea573d6000803e3d6000fd5b50505050506040513d601f19601f8201168201806040525081019061300f9190613e39565b5050505050565b60a654158015613026575060a854155b8015613032575060aa54155b1561303957565b60a6805460a75560a8805460a95560aa805460ab556000928390559082905555565b600080600080600080600061306f88611f6c565b96509650965096509650965096506130b588609960008d6001600160a01b03166001600160a01b0316815260200190815260200160002054611fc790919063ffffffff16565b6001600160a01b038b166000908152609960209081526040808320939093556098905220546130e49088611fc7565b6001600160a01b03808c1660009081526098602052604080822093909355908b16815220546131139087611f60565b6001600160a01b038a16600090815260986020526040902055613135826133a1565b61313e8161342c565b61314885846134ff565b886001600160a01b03168a6001600160a01b0316600080516020613e908339815191528660405161317b91815260200190565b60405180910390a350505050505050505050565b60008060008060008060006131a388611f6c565b96509650965096509650965096506131e987609860008d6001600160a01b03166001600160a01b0316815260200190815260200160002054611fc790919063ffffffff16565b6001600160a01b03808c16600090815260986020908152604080832094909455918c1681526099909152205461321f9085611f60565b6001600160a01b038a166000908152609960209081526040808320939093556098905220546131139087611f60565b600080600080600080600061326288611f6c565b96509650965096509650965096506130e487609860008d6001600160a01b03166001600160a01b0316815260200190815260200160002054611fc790919063ffffffff16565b60008060008060008060006132bc88611f6c565b965096509650965096509650965061330288609960008d6001600160a01b03166001600160a01b0316815260200190815260200160002054611fc790919063ffffffff16565b6001600160a01b038b166000908152609960209081526040808320939093556098905220546131e99088611fc7565b6000610bcb61271061185860a654856120af90919063ffffffff16565b6000610bcb61271061185860a854856120af90919063ffffffff16565b60af546000906001600160a01b031661338657506000919050565b610bcb61271061185860aa54856120af90919063ffffffff16565b60006133ab611f31565b905060006133b983836120af565b306000908152609860205260409020549091506133d69082611f60565b30600090815260986020908152604080832093909355609e9052205460ff161561342557306000908152609960205260409020546134149084611f60565b306000908152609960205260409020555b3033611383565b801561103d57600061343c611f31565b9050600061344a83836120af565b60af546001600160a01b03166000908152609860205260409020549091506134729082611f60565b60af80546001600160a01b0390811660009081526098602090815260408083209590955592549091168152609e909152205460ff16156134ed5760af546001600160a01b03166000908152609960205260409020546134d19084611f60565b60af546001600160a01b03166000908152609960205260409020555b60af546001600160a01b031633611383565b60a45461350c9083611fc7565b60a45560a55461351c9082611f60565b60a555306000908152609e602052604090205460ff161561356257306000908152609960205260409020546135519082611f60565b306000908152609960205260409020555b60405181815230903390600080516020613e908339815191529060200160405180910390a35050565b60006020828403121561359d57600080fd5b5035919050565b600060208083528351808285015260005b818110156135d1578581018301518582016040015282016135b5565b506000604082860101526040601f19601f8301168501019250505092915050565b6001600160a01b038116811461103d57600080fd5b8035613612816135f2565b919050565b6000806040838503121561362a57600080fd5b8235613635816135f2565b946020939093013593505050565b8035801515811461361257600080fd5b60006020828403121561366557600080fd5b610d5582613643565b60006020828403121561368057600080fd5b8135610d55816135f2565b6000806000606084860312156136a057600080fd5b83356136ab816135f2565b925060208401356136bb816135f2565b929592945050506040919091013590565b600080604083850312156136df57600080fd5b82356136ea816135f2565b915060208301356136fa816135f2565b809150509250929050565b6000806040838503121561371857600080fd5b8235915061372860208401613643565b90509250929050565b6000806040838503121561374457600080fd5b823561374f816135f2565b915061372860208401613643565b634e487b7160e01b600052604160045260246000fd5b600082601f83011261378457600080fd5b813567ffffffffffffffff8082111561379f5761379f61375d565b604051601f8301601f19908116603f011681019082821181831017156137c7576137c761375d565b816040528381528660208588010111156137e057600080fd5b836020870160208301376000602085830101528094505050505092915050565b803561ffff8116811461361257600080fd5b600082601f83011261382357600080fd5b6040516040810181811067ffffffffffffffff821117156138465761384661375d565b806040525080604084018581111561385d57600080fd5b845b81811015613880578035613872816135f2565b83526020928301920161385f565b509195945050505050565b60008060008060008060008060008060006101808c8e0312156138ad57600080fd5b6138b68c613607565b9a5067ffffffffffffffff8060208e013511156138d257600080fd5b6138e28e60208f01358f01613773565b9a508060408e013511156138f557600080fd5b506139068d60408e01358e01613773565b985060608c0135975061391b60808d01613607565b965061392960a08d01613800565b955061393760c08d01613800565b945061394560e08d01613800565b93506139546101008d01613800565b92506139648d6101208e01613812565b91506139736101608d01613607565b90509295989b509295989b9093969950565b60006020828403121561399757600080fd5b813567ffffffffffffffff8111156139ae57600080fd5b6139ba84828501613773565b949350505050565b6020808252600b908201526a496e76616c69642062707360a81b604082015260600190565b600181811c908216806139fb57607f821691505b602082108103613a1b57634e487b7160e01b600052602260045260246000fd5b50919050565b634e487b7160e01b600052603260045260246000fd5b634e487b7160e01b600052601160045260246000fd5b81810381811115610bcb57610bcb613a37565b634e487b7160e01b600052603160045260246000fd5b600060018201613a8857613a88613a37565b5060010190565b6020808252602e908201527f496e697469616c697a61626c653a20636f6e747261637420697320616c72656160408201526d191e481a5b9a5d1a585b1a5e995960921b606082015260800190565b601f8211156115a957600081815260208120601f850160051c81016020861015613b045750805b601f850160051c820191505b81811015612f3957828155600101613b10565b815167ffffffffffffffff811115613b3d57613b3d61375d565b613b5181613b4b84546139e7565b84613add565b602080601f831160018114613b865760008415613b6e5750858301515b600019600386901b1c1916600185901b178555612f39565b600085815260208120601f198616915b82811015613bb557888601518255948401946001909101908401613b96565b5085821015613bd35787850151600019600388901b60f8161c191681555b5050505050600190811b01905550565b80820180821115610bcb57610bcb613a37565b634e487b7160e01b600052601260045260246000fd5b600082613c1b57613c1b613bf6565b500490565b8082028115828204841417610bcb57610bcb613a37565b6020808252602b908201527f496e697469616c697a61626c653a20636f6e7472616374206973206e6f74206960408201526a6e697469616c697a696e6760a81b606082015260800190565b61ffff818116838216019080821115613c9d57613c9d613a37565b5092915050565b600181815b80851115613cdf578160001904821115613cc557613cc5613a37565b80851615613cd257918102915b93841c9390800290613ca9565b509250929050565b600082613cf657506001610bcb565b81613d0357506000610bcb565b8160018114613d195760028114613d2357613d3f565b6001915050610bcb565b60ff841115613d3457613d34613a37565b50506001821b610bcb565b5060208310610133831016604e8410600b8410161715613d62575081810a610bcb565b613d6c8383613ca4565b8060001904821115613d8057613d80613a37565b029392505050565b6000610d5560ff841683613ce7565b600082613da657613da6613bf6565b500690565b600060208284031215613dbd57600080fd5b8151610d55816135f2565b600060a082018783526020878185015260a0604085015281875180845260c086019150828901935060005b81811015613e185784516001600160a01b031683529383019391830191600101613df3565b50506001600160a01b03969096166060850152505050608001529392505050565b600080600060608486031215613e4e57600080fd5b835192506020840151915060408401519050925092509256fe45524332303a207472616e7366657220616d6f756e74206578636565647320616c6c6f77616e6365ddf252ad1be2c89b69c2b068fc378daa952ba7f163c4a11628f55a4df523b3ef45524332303a2064656372656173656420616c6c6f77616e63652062656c6f77207a65726fa2646970667358221220894da5d03d41bd697e42b3c69d3d52e5bd627e31e891d6af558134368f68a7b164736f6c63430008110033",
			"opcodes": "PUSH1 0x80 PUSH1 0x40 MSTORE CALLVALUE DUP1 ISZERO PUSH2 0x10 JUMPI PUSH1 0x0 DUP1 REVERT JUMPDEST POP PUSH2 0x3F0A DUP1 PUSH2 0x20 PUSH1 0x0 CODECOPY PUSH1 0x0 RETURN INVALID PUSH1 0x80 PUSH1 0x40 MSTORE PUSH1 0x4 CALLDATASIZE LT PUSH2 0x36F JUMPI PUSH1 0x0 CALLDATALOAD PUSH1 0xE0 SHR DUP1 PUSH4 0x6B02427A GT PUSH2 0x1C6 JUMPI DUP1 PUSH4 0xA0712D68 GT PUSH2 0xF7 JUMPI DUP1 PUSH4 0xCAAC7934 GT PUSH2 0x95 JUMPI DUP1 PUSH4 0xDD62ED3E GT PUSH2 0x6F JUMPI DUP1 PUSH4 0xDD62ED3E EQ PUSH2 0xA55 JUMPI DUP1 PUSH4 0xEA2F0B37 EQ PUSH2 0xA9B JUMPI DUP1 PUSH4 0xF2FDE38B EQ PUSH2 0xABB JUMPI DUP1 PUSH4 0xFFA1AD74 EQ PUSH2 0xADB JUMPI PUSH1 0x0 DUP1 REVERT JUMPDEST DUP1 PUSH4 0xCAAC7934 EQ PUSH2 0x9F5 JUMPI DUP1 PUSH4 0xD543DBEB EQ PUSH2 0xA15 JUMPI DUP1 PUSH4 0xDC67F167 EQ PUSH2 0xA35 JUMPI PUSH1 0x0 DUP1 REVERT JUMPDEST DUP1 PUSH4 0xA9059CBB GT PUSH2 0xD1 JUMPI DUP1 PUSH4 0xA9059CBB EQ PUSH2 0x975 JUMPI DUP1 PUSH4 0xB8C9D25C EQ PUSH2 0x995 JUMPI DUP1 PUSH4 0xC21EBD07 EQ PUSH2 0x9B5 JUMPI DUP1 PUSH4 0xC49B9A80 EQ PUSH2 0x9D5 JUMPI PUSH1 0x0 DUP1 REVERT JUMPDEST DUP1 PUSH4 0xA0712D68 EQ PUSH2 0x915 JUMPI DUP1 PUSH4 0xA457C2D7 EQ PUSH2 0x935 JUMPI DUP1 PUSH4 0xA53691AC EQ PUSH2 0x955 JUMPI PUSH1 0x0 DUP1 REVERT JUMPDEST DUP1 PUSH4 0x7D1DB4A5 GT PUSH2 0x164 JUMPI DUP1 PUSH4 0x88F82020 GT PUSH2 0x13E JUMPI DUP1 PUSH4 0x88F82020 EQ PUSH2 0x889 JUMPI DUP1 PUSH4 0x8DA5CB5B EQ PUSH2 0x8C2 JUMPI DUP1 PUSH4 0x8EE88C53 EQ PUSH2 0x8E0 JUMPI DUP1 PUSH4 0x95D89B41 EQ PUSH2 0x900 JUMPI PUSH1 0x0 DUP1 REVERT JUMPDEST DUP1 PUSH4 0x7D1DB4A5 EQ PUSH2 0x81D JUMPI DUP1 PUSH4 0x7DFCBE34 EQ PUSH2 0x833 JUMPI DUP1 PUSH4 0x879AE369 EQ PUSH2 0x853 JUMPI PUSH1 0x0 DUP1 REVERT JUMPDEST DUP1 PUSH4 0x70A08231 GT PUSH2 0x1A0 JUMPI DUP1 PUSH4 0x70A08231 EQ PUSH2 0x7A8 JUMPI DUP1 PUSH4 0x715018A6 EQ PUSH2 0x7C8 JUMPI DUP1 PUSH4 0x788BC78C EQ PUSH2 0x7DD JUMPI DUP1 PUSH4 0x79CC6790 EQ PUSH2 0x7FD JUMPI PUSH1 0x0 DUP1 REVERT JUMPDEST DUP1 PUSH4 0x6B02427A EQ PUSH2 0x75D JUMPI DUP1 PUSH4 0x6BC87C3A EQ PUSH2 0x772 JUMPI DUP1 PUSH4 0x6F085BAB EQ PUSH2 0x788 JUMPI PUSH1 0x0 DUP1 REVERT JUMPDEST DUP1 PUSH4 0x363BECF6 GT PUSH2 0x2A0 JUMPI DUP1 PUSH4 0x4549B039 GT PUSH2 0x23E JUMPI DUP1 PUSH4 0x52390C02 GT PUSH2 0x218 JUMPI DUP1 PUSH4 0x52390C02 EQ PUSH2 0x6AB JUMPI DUP1 PUSH4 0x5342ACB4 EQ PUSH2 0x6CB JUMPI DUP1 PUSH4 0x5B89029C EQ PUSH2 0x704 JUMPI DUP1 PUSH4 0x658C27A9 EQ PUSH2 0x724 JUMPI PUSH1 0x0 DUP1 REVERT JUMPDEST DUP1 PUSH4 0x4549B039 EQ PUSH2 0x64A JUMPI DUP1 PUSH4 0x457C194C EQ PUSH2 0x66A JUMPI DUP1 PUSH4 0x4A74BB02 EQ PUSH2 0x68A JUMPI PUSH1 0x0 DUP1 REVERT JUMPDEST DUP1 PUSH4 0x3B124FE7 GT PUSH2 0x27A JUMPI DUP1 PUSH4 0x3B124FE7 EQ PUSH2 0x5D4 JUMPI DUP1 PUSH4 0x3BD5D173 EQ PUSH2 0x5EA JUMPI DUP1 PUSH4 0x42966C68 EQ PUSH2 0x60A JUMPI DUP1 PUSH4 0x437823EC EQ PUSH2 0x62A JUMPI PUSH1 0x0 DUP1 REVERT JUMPDEST DUP1 PUSH4 0x363BECF6 EQ PUSH2 0x55C JUMPI DUP1 PUSH4 0x3685D419 EQ PUSH2 0x594 JUMPI DUP1 PUSH4 0x39509351 EQ PUSH2 0x5B4 JUMPI PUSH1 0x0 DUP1 REVERT JUMPDEST DUP1 PUSH4 0x232E0E9A GT PUSH2 0x30D JUMPI DUP1 PUSH4 0x2D1343F3 GT PUSH2 0x2E7 JUMPI DUP1 PUSH4 0x2D1343F3 EQ PUSH2 0x4DA JUMPI DUP1 PUSH4 0x2D838119 EQ PUSH2 0x4FA JUMPI DUP1 PUSH4 0x313CE567 EQ PUSH2 0x51A JUMPI DUP1 PUSH4 0x31A2D7C3 EQ PUSH2 0x53C JUMPI PUSH1 0x0 DUP1 REVERT JUMPDEST DUP1 PUSH4 0x232E0E9A EQ PUSH2 0x462 JUMPI DUP1 PUSH4 0x23B872DD EQ PUSH2 0x499 JUMPI DUP1 PUSH4 0x241EC3BE EQ PUSH2 0x4B9 JUMPI PUSH1 0x0 DUP1 REVERT JUMPDEST DUP1 PUSH4 0x13114A9D GT PUSH2 0x349 JUMPI DUP1 PUSH4 0x13114A9D EQ PUSH2 0x3F8 JUMPI DUP1 PUSH4 0x18160DDD EQ PUSH2 0x417 JUMPI DUP1 PUSH4 0x1F46B1C6 EQ PUSH2 0x42C JUMPI DUP1 PUSH4 0x22976E0D EQ PUSH2 0x44C JUMPI PUSH1 0x0 DUP1 REVERT JUMPDEST DUP1 PUSH4 0x61C82D0 EQ PUSH2 0x37B JUMPI DUP1 PUSH4 0x6FDDE03 EQ PUSH2 0x39D JUMPI DUP1 PUSH4 0x95EA7B3 EQ PUSH2 0x3C8 JUMPI PUSH1 0x0 DUP1 REVERT JUMPDEST CALLDATASIZE PUSH2 0x376 JUMPI STOP JUMPDEST PUSH1 0x0 DUP1 REVERT JUMPDEST CALLVALUE DUP1 ISZERO PUSH2 0x387 JUMPI PUSH1 0x0 DUP1 REVERT JUMPDEST POP PUSH2 0x39B PUSH2 0x396 CALLDATASIZE PUSH1 0x4 PUSH2 0x358B JUMP JUMPDEST PUSH2 0xAF0 JUMP JUMPDEST STOP JUMPDEST CALLVALUE DUP1 ISZERO PUSH2 0x3A9 JUMPI PUSH1 0x0 DUP1 REVERT JUMPDEST POP PUSH2 0x3B2 PUSH2 0xB28 JUMP JUMPDEST PUSH1 0x40 MLOAD PUSH2 0x3BF SWAP2 SWAP1 PUSH2 0x35A4 JUMP JUMPDEST PUSH1 0x40 MLOAD DUP1 SWAP2 SUB SWAP1 RETURN JUMPDEST CALLVALUE DUP1 ISZERO PUSH2 0x3D4 JUMPI PUSH1 0x0 DUP1 REVERT JUMPDEST POP PUSH2 0x3E8 PUSH2 0x3E3 CALLDATASIZE PUSH1 0x4 PUSH2 0x3617 JUMP JUMPDEST PUSH2 0xBBA JUMP JUMPDEST PUSH1 0x40 MLOAD SWAP1 ISZERO ISZERO DUP2 MSTORE PUSH1 0x20 ADD PUSH2 0x3BF JUMP JUMPDEST CALLVALUE DUP1 ISZERO PUSH2 0x404 JUMPI PUSH1 0x0 DUP1 REVERT JUMPDEST POP PUSH1 0xA5 SLOAD JUMPDEST PUSH1 0x40 MLOAD SWAP1 DUP2 MSTORE PUSH1 0x20 ADD PUSH2 0x3BF JUMP JUMPDEST CALLVALUE DUP1 ISZERO PUSH2 0x423 JUMPI PUSH1 0x0 DUP1 REVERT JUMPDEST POP PUSH1 0xA3 SLOAD PUSH2 0x409 JUMP JUMPDEST CALLVALUE DUP1 ISZERO PUSH2 0x438 JUMPI PUSH1 0x0 DUP1 REVERT JUMPDEST POP PUSH2 0x39B PUSH2 0x447 CALLDATASIZE PUSH1 0x4 PUSH2 0x3653 JUMP JUMPDEST PUSH2 0xBD1 JUMP JUMPDEST CALLVALUE DUP1 ISZERO PUSH2 0x458 JUMPI PUSH1 0x0 DUP1 REVERT JUMPDEST POP PUSH2 0x409 PUSH1 0xAA SLOAD DUP2 JUMP JUMPDEST CALLVALUE DUP1 ISZERO PUSH2 0x46E JUMPI PUSH1 0x0 DUP1 REVERT JUMPDEST POP PUSH2 0x482 PUSH2 0x47D CALLDATASIZE PUSH1 0x4 PUSH2 0x366E JUMP JUMPDEST PUSH2 0xBF7 JUMP JUMPDEST PUSH1 0x40 DUP1 MLOAD SWAP3 ISZERO ISZERO DUP4 MSTORE PUSH1 0x20 DUP4 ADD SWAP2 SWAP1 SWAP2 MSTORE ADD PUSH2 0x3BF JUMP JUMPDEST CALLVALUE DUP1 ISZERO PUSH2 0x4A5 JUMPI PUSH1 0x0 DUP1 REVERT JUMPDEST POP PUSH2 0x3E8 PUSH2 0x4B4 CALLDATASIZE PUSH1 0x4 PUSH2 0x368B JUMP JUMPDEST PUSH2 0xC58 JUMP JUMPDEST CALLVALUE DUP1 ISZERO PUSH2 0x4C5 JUMPI PUSH1 0x0 DUP1 REVERT JUMPDEST POP PUSH1 0xB2 SLOAD PUSH2 0x3E8 SWAP1 PUSH1 0x1 PUSH1 0xA0 SHL SWAP1 DIV PUSH1 0xFF AND DUP2 JUMP JUMPDEST CALLVALUE DUP1 ISZERO PUSH2 0x4E6 JUMPI PUSH1 0x0 DUP1 REVERT JUMPDEST POP PUSH2 0x39B PUSH2 0x4F5 CALLDATASIZE PUSH1 0x4 PUSH2 0x366E JUMP JUMPDEST PUSH2 0xCC1 JUMP JUMPDEST CALLVALUE DUP1 ISZERO PUSH2 0x506 JUMPI PUSH1 0x0 DUP1 REVERT JUMPDEST POP PUSH2 0x409 PUSH2 0x515 CALLDATASIZE PUSH1 0x4 PUSH2 0x358B JUMP JUMPDEST PUSH2 0xCEB JUMP JUMPDEST CALLVALUE DUP1 ISZERO PUSH2 0x526 JUMPI PUSH1 0x0 DUP1 REVERT JUMPDEST POP PUSH1 0xA2 SLOAD PUSH1 0x40 MLOAD PUSH1 0xFF SWAP1 SWAP2 AND DUP2 MSTORE PUSH1 0x20 ADD PUSH2 0x3BF JUMP JUMPDEST CALLVALUE DUP1 ISZERO PUSH2 0x548 JUMPI PUSH1 0x0 DUP1 REVERT JUMPDEST POP PUSH2 0x39B PUSH2 0x557 CALLDATASIZE PUSH1 0x4 PUSH2 0x36CC JUMP JUMPDEST PUSH2 0xD5C JUMP JUMPDEST CALLVALUE DUP1 ISZERO PUSH2 0x568 JUMPI PUSH1 0x0 DUP1 REVERT JUMPDEST POP PUSH1 0xAE SLOAD PUSH2 0x57C SWAP1 PUSH1 0x1 PUSH1 0x1 PUSH1 0xA0 SHL SUB AND DUP2 JUMP JUMPDEST PUSH1 0x40 MLOAD PUSH1 0x1 PUSH1 0x1 PUSH1 0xA0 SHL SUB SWAP1 SWAP2 AND DUP2 MSTORE PUSH1 0x20 ADD PUSH2 0x3BF JUMP JUMPDEST CALLVALUE DUP1 ISZERO PUSH2 0x5A0 JUMPI PUSH1 0x0 DUP1 REVERT JUMPDEST POP PUSH2 0x39B PUSH2 0x5AF CALLDATASIZE PUSH1 0x4 PUSH2 0x366E JUMP JUMPDEST PUSH2 0xD92 JUMP JUMPDEST CALLVALUE DUP1 ISZERO PUSH2 0x5C0 JUMPI PUSH1 0x0 DUP1 REVERT JUMPDEST POP PUSH2 0x3E8 PUSH2 0x5CF CALLDATASIZE PUSH1 0x4 PUSH2 0x3617 JUMP JUMPDEST PUSH2 0xF26 JUMP JUMPDEST CALLVALUE DUP1 ISZERO PUSH2 0x5E0 JUMPI PUSH1 0x0 DUP1 REVERT JUMPDEST POP PUSH2 0x409 PUSH1 0xA6 SLOAD DUP2 JUMP JUMPDEST CALLVALUE DUP1 ISZERO PUSH2 0x5F6 JUMPI PUSH1 0x0 DUP1 REVERT JUMPDEST POP PUSH2 0x39B PUSH2 0x605 CALLDATASIZE PUSH1 0x4 PUSH2 0x358B JUMP JUMPDEST PUSH2 0xF5C JUMP JUMPDEST CALLVALUE DUP1 ISZERO PUSH2 0x616 JUMPI PUSH1 0x0 DUP1 REVERT JUMPDEST POP PUSH2 0x39B PUSH2 0x625 CALLDATASIZE PUSH1 0x4 PUSH2 0x358B JUMP JUMPDEST PUSH2 0x1033 JUMP JUMPDEST CALLVALUE DUP1 ISZERO PUSH2 0x636 JUMPI PUSH1 0x0 DUP1 REVERT JUMPDEST POP PUSH2 0x39B PUSH2 0x645 CALLDATASIZE PUSH1 0x4 PUSH2 0x366E JUMP JUMPDEST PUSH2 0x1040 JUMP JUMPDEST CALLVALUE DUP1 ISZERO PUSH2 0x656 JUMPI PUSH1 0x0 DUP1 REVERT JUMPDEST POP PUSH2 0x409 PUSH2 0x665 CALLDATASIZE PUSH1 0x4 PUSH2 0x3705 JUMP JUMPDEST PUSH2 0x106C JUMP JUMPDEST CALLVALUE DUP1 ISZERO PUSH2 0x676 JUMPI PUSH1 0x0 DUP1 REVERT JUMPDEST POP PUSH2 0x39B PUSH2 0x685 CALLDATASIZE PUSH1 0x4 PUSH2 0x358B JUMP JUMPDEST PUSH2 0x10FB JUMP JUMPDEST CALLVALUE DUP1 ISZERO PUSH2 0x696 JUMPI PUSH1 0x0 DUP1 REVERT JUMPDEST POP PUSH1 0xAF SLOAD PUSH2 0x3E8 SWAP1 PUSH1 0x1 PUSH1 0xA8 SHL SWAP1 DIV PUSH1 0xFF AND DUP2 JUMP JUMPDEST CALLVALUE DUP1 ISZERO PUSH2 0x6B7 JUMPI PUSH1 0x0 DUP1 REVERT JUMPDEST POP PUSH2 0x39B PUSH2 0x6C6 CALLDATASIZE PUSH1 0x4 PUSH2 0x366E JUMP JUMPDEST PUSH2 0x112A JUMP JUMPDEST CALLVALUE DUP1 ISZERO PUSH2 0x6D7 JUMPI PUSH1 0x0 DUP1 REVERT JUMPDEST POP PUSH2 0x3E8 PUSH2 0x6E6 CALLDATASIZE PUSH1 0x4 PUSH2 0x366E JUMP JUMPDEST PUSH1 0x1 PUSH1 0x1 PUSH1 0xA0 SHL SUB AND PUSH1 0x0 SWAP1 DUP2 MSTORE PUSH1 0x9C PUSH1 0x20 MSTORE PUSH1 0x40 SWAP1 KECCAK256 SLOAD PUSH1 0xFF AND SWAP1 JUMP JUMPDEST CALLVALUE DUP1 ISZERO PUSH2 0x710 JUMPI PUSH1 0x0 DUP1 REVERT JUMPDEST POP PUSH2 0x39B PUSH2 0x71F CALLDATASIZE PUSH1 0x4 PUSH2 0x3731 JUMP JUMPDEST PUSH2 0x125B JUMP JUMPDEST CALLVALUE DUP1 ISZERO PUSH2 0x730 JUMPI PUSH1 0x0 DUP1 REVERT JUMPDEST POP PUSH2 0x3E8 PUSH2 0x73F CALLDATASIZE PUSH1 0x4 PUSH2 0x366E JUMP JUMPDEST PUSH1 0x1 PUSH1 0x1 PUSH1 0xA0 SHL SUB AND PUSH1 0x0 SWAP1 DUP2 MSTORE PUSH1 0x9D PUSH1 0x20 MSTORE PUSH1 0x40 SWAP1 KECCAK256 SLOAD PUSH1 0xFF AND SWAP1 JUMP JUMPDEST CALLVALUE DUP1 ISZERO PUSH2 0x769 JUMPI PUSH1 0x0 DUP1 REVERT JUMPDEST POP PUSH2 0x39B PUSH2 0x128E JUMP JUMPDEST CALLVALUE DUP1 ISZERO PUSH2 0x77E JUMPI PUSH1 0x0 DUP1 REVERT JUMPDEST POP PUSH2 0x409 PUSH1 0xA8 SLOAD DUP2 JUMP JUMPDEST CALLVALUE DUP1 ISZERO PUSH2 0x794 JUMPI PUSH1 0x0 DUP1 REVERT JUMPDEST POP PUSH2 0x39B PUSH2 0x7A3 CALLDATASIZE PUSH1 0x4 PUSH2 0x388B JUMP JUMPDEST PUSH2 0x13B8 JUMP JUMPDEST CALLVALUE DUP1 ISZERO PUSH2 0x7B4 JUMPI PUSH1 0x0 DUP1 REVERT JUMPDEST POP PUSH2 0x409 PUSH2 0x7C3 CALLDATASIZE PUSH1 0x4 PUSH2 0x366E JUMP JUMPDEST PUSH2 0x14A1 JUMP JUMPDEST CALLVALUE DUP1 ISZERO PUSH2 0x7D4 JUMPI PUSH1 0x0 DUP1 REVERT JUMPDEST POP PUSH2 0x39B PUSH2 0x1500 JUMP JUMPDEST CALLVALUE DUP1 ISZERO PUSH2 0x7E9 JUMPI PUSH1 0x0 DUP1 REVERT JUMPDEST POP PUSH2 0x39B PUSH2 0x7F8 CALLDATASIZE PUSH1 0x4 PUSH2 0x3985 JUMP JUMPDEST PUSH2 0x1514 JUMP JUMPDEST CALLVALUE DUP1 ISZERO PUSH2 0x809 JUMPI PUSH1 0x0 DUP1 REVERT JUMPDEST POP PUSH2 0x39B PUSH2 0x818 CALLDATASIZE PUSH1 0x4 PUSH2 0x3617 JUMP JUMPDEST PUSH2 0x1528 JUMP JUMPDEST CALLVALUE DUP1 ISZERO PUSH2 0x829 JUMPI PUSH1 0x0 DUP1 REVERT JUMPDEST POP PUSH2 0x409 PUSH1 0xB0 SLOAD DUP2 JUMP JUMPDEST CALLVALUE DUP1 ISZERO PUSH2 0x83F JUMPI PUSH1 0x0 DUP1 REVERT JUMPDEST POP PUSH1 0xB2 SLOAD PUSH2 0x57C SWAP1 PUSH1 0x1 PUSH1 0x1 PUSH1 0xA0 SHL SUB AND DUP2 JUMP JUMPDEST CALLVALUE DUP1 ISZERO PUSH2 0x85F JUMPI PUSH1 0x0 DUP1 REVERT JUMPDEST POP PUSH2 0x409 PUSH2 0x86E CALLDATASIZE PUSH1 0x4 PUSH2 0x366E JUMP JUMPDEST PUSH1 0x1 PUSH1 0x1 PUSH1 0xA0 SHL SUB AND PUSH1 0x0 SWAP1 DUP2 MSTORE PUSH1 0x98 PUSH1 0x20 MSTORE PUSH1 0x40 SWAP1 KECCAK256 SLOAD SWAP1 JUMP JUMPDEST CALLVALUE DUP1 ISZERO PUSH2 0x895 JUMPI PUSH1 0x0 DUP1 REVERT JUMPDEST POP PUSH2 0x3E8 PUSH2 0x8A4 CALLDATASIZE PUSH1 0x4 PUSH2 0x366E JUMP JUMPDEST PUSH1 0x1 PUSH1 0x1 PUSH1 0xA0 SHL SUB AND PUSH1 0x0 SWAP1 DUP2 MSTORE PUSH1 0x9E PUSH1 0x20 MSTORE PUSH1 0x40 SWAP1 KECCAK256 SLOAD PUSH1 0xFF AND SWAP1 JUMP JUMPDEST CALLVALUE DUP1 ISZERO PUSH2 0x8CE JUMPI PUSH1 0x0 DUP1 REVERT JUMPDEST POP PUSH1 0x33 SLOAD PUSH1 0x1 PUSH1 0x1 PUSH1 0xA0 SHL SUB AND PUSH2 0x57C JUMP JUMPDEST CALLVALUE DUP1 ISZERO PUSH2 0x8EC JUMPI PUSH1 0x0 DUP1 REVERT JUMPDEST POP PUSH2 0x39B PUSH2 0x8FB CALLDATASIZE PUSH1 0x4 PUSH2 0x358B JUMP JUMPDEST PUSH2 0x15AE JUMP JUMPDEST CALLVALUE DUP1 ISZERO PUSH2 0x90C JUMPI PUSH1 0x0 DUP1 REVERT JUMPDEST POP PUSH2 0x3B2 PUSH2 0x15DD JUMP JUMPDEST CALLVALUE DUP1 ISZERO PUSH2 0x921 JUMPI PUSH1 0x0 DUP1 REVERT JUMPDEST POP PUSH2 0x39B PUSH2 0x930 CALLDATASIZE PUSH1 0x4 PUSH2 0x358B JUMP JUMPDEST PUSH2 0x15EC JUMP JUMPDEST CALLVALUE DUP1 ISZERO PUSH2 0x941 JUMPI PUSH1 0x0 DUP1 REVERT JUMPDEST POP PUSH2 0x3E8 PUSH2 0x950 CALLDATASIZE PUSH1 0x4 PUSH2 0x3617 JUMP JUMPDEST PUSH2 0x16F1 JUMP JUMPDEST CALLVALUE DUP1 ISZERO PUSH2 0x961 JUMPI PUSH1 0x0 DUP1 REVERT JUMPDEST POP PUSH2 0x39B PUSH2 0x970 CALLDATASIZE PUSH1 0x4 PUSH2 0x3617 JUMP JUMPDEST PUSH2 0x1740 JUMP JUMPDEST CALLVALUE DUP1 ISZERO PUSH2 0x981 JUMPI PUSH1 0x0 DUP1 REVERT JUMPDEST POP PUSH2 0x3E8 PUSH2 0x990 CALLDATASIZE PUSH1 0x4 PUSH2 0x3617 JUMP JUMPDEST PUSH2 0x17A4 JUMP JUMPDEST CALLVALUE DUP1 ISZERO PUSH2 0x9A1 JUMPI PUSH1 0x0 DUP1 REVERT JUMPDEST POP PUSH1 0xAD SLOAD PUSH2 0x57C SWAP1 PUSH1 0x1 PUSH1 0x1 PUSH1 0xA0 SHL SUB AND DUP2 JUMP JUMPDEST CALLVALUE DUP1 ISZERO PUSH2 0x9C1 JUMPI PUSH1 0x0 DUP1 REVERT JUMPDEST POP PUSH1 0xAC SLOAD PUSH2 0x57C SWAP1 PUSH1 0x1 PUSH1 0x1 PUSH1 0xA0 SHL SUB AND DUP2 JUMP JUMPDEST CALLVALUE DUP1 ISZERO PUSH2 0x9E1 JUMPI PUSH1 0x0 DUP1 REVERT JUMPDEST POP PUSH2 0x39B PUSH2 0x9F0 CALLDATASIZE PUSH1 0x4 PUSH2 0x3653 JUMP JUMPDEST PUSH2 0x17B1 JUMP JUMPDEST CALLVALUE DUP1 ISZERO PUSH2 0xA01 JUMPI PUSH1 0x0 DUP1 REVERT JUMPDEST POP PUSH1 0xAF SLOAD PUSH2 0x57C SWAP1 PUSH1 0x1 PUSH1 0x1 PUSH1 0xA0 SHL SUB AND DUP2 JUMP JUMPDEST CALLVALUE DUP1 ISZERO PUSH2 0xA21 JUMPI PUSH1 0x0 DUP1 REVERT JUMPDEST POP PUSH2 0x39B PUSH2 0xA30 CALLDATASIZE PUSH1 0x4 PUSH2 0x358B JUMP JUMPDEST PUSH2 0x1811 JUMP JUMPDEST CALLVALUE DUP1 ISZERO PUSH2 0xA41 JUMPI PUSH1 0x0 DUP1 REVERT JUMPDEST POP PUSH2 0x39B PUSH2 0xA50 CALLDATASIZE PUSH1 0x4 PUSH2 0x3617 JUMP JUMPDEST PUSH2 0x1864 JUMP JUMPDEST CALLVALUE DUP1 ISZERO PUSH2 0xA61 JUMPI PUSH1 0x0 DUP1 REVERT JUMPDEST POP PUSH2 0x409 PUSH2 0xA70 CALLDATASIZE PUSH1 0x4 PUSH2 0x36CC JUMP JUMPDEST PUSH1 0x1 PUSH1 0x1 PUSH1 0xA0 SHL SUB SWAP2 DUP3 AND PUSH1 0x0 SWAP1 DUP2 MSTORE PUSH1 0x9A PUSH1 0x20 SWAP1 DUP2 MSTORE PUSH1 0x40 DUP1 DUP4 KECCAK256 SWAP4 SWAP1 SWAP5 AND DUP3 MSTORE SWAP2 SWAP1 SWAP2 MSTORE KECCAK256 SLOAD SWAP1 JUMP JUMPDEST CALLVALUE DUP1 ISZERO PUSH2 0xAA7 JUMPI PUSH1 0x0 DUP1 REVERT JUMPDEST POP PUSH2 0x39B PUSH2 0xAB6 CALLDATASIZE PUSH1 0x4 PUSH2 0x366E JUMP JUMPDEST PUSH2 0x1888 JUMP JUMPDEST CALLVALUE DUP1 ISZERO PUSH2 0xAC7 JUMPI PUSH1 0x0 DUP1 REVERT JUMPDEST POP PUSH2 0x39B PUSH2 0xAD6 CALLDATASIZE PUSH1 0x4 PUSH2 0x366E JUMP JUMPDEST PUSH2 0x18B1 JUMP JUMPDEST CALLVALUE DUP1 ISZERO PUSH2 0xAE7 JUMPI PUSH1 0x0 DUP1 REVERT JUMPDEST POP PUSH2 0x3B2 PUSH2 0x1927 JUMP JUMPDEST PUSH2 0xAF8 PUSH2 0x19B5 JUMP JUMPDEST PUSH2 0x2710 DUP2 GT ISZERO PUSH2 0xB23 JUMPI PUSH1 0x40 MLOAD PUSH3 0x461BCD PUSH1 0xE5 SHL DUP2 MSTORE PUSH1 0x4 ADD PUSH2 0xB1A SWAP1 PUSH2 0x39C2 JUMP JUMPDEST PUSH1 0x40 MLOAD DUP1 SWAP2 SUB SWAP1 REVERT JUMPDEST PUSH1 0xA6 SSTORE JUMP JUMPDEST PUSH1 0x60 PUSH1 0xA0 DUP1 SLOAD PUSH2 0xB37 SWAP1 PUSH2 0x39E7 JUMP JUMPDEST DUP1 PUSH1 0x1F ADD PUSH1 0x20 DUP1 SWAP2 DIV MUL PUSH1 0x20 ADD PUSH1 0x40 MLOAD SWAP1 DUP2 ADD PUSH1 0x40 MSTORE DUP1 SWAP3 SWAP2 SWAP1 DUP2 DUP2 MSTORE PUSH1 0x20 ADD DUP3 DUP1 SLOAD PUSH2 0xB63 SWAP1 PUSH2 0x39E7 JUMP JUMPDEST DUP1 ISZERO PUSH2 0xBB0 JUMPI DUP1 PUSH1 0x1F LT PUSH2 0xB85 JUMPI PUSH2 0x100 DUP1 DUP4 SLOAD DIV MUL DUP4 MSTORE SWAP2 PUSH1 0x20 ADD SWAP2 PUSH2 0xBB0 JUMP JUMPDEST DUP3 ADD SWAP2 SWAP1 PUSH1 0x0 MSTORE PUSH1 0x20 PUSH1 0x0 KECCAK256 SWAP1 JUMPDEST DUP2 SLOAD DUP2 MSTORE SWAP1 PUSH1 0x1 ADD SWAP1 PUSH1 0x20 ADD DUP1 DUP4 GT PUSH2 0xB93 JUMPI DUP3 SWAP1 SUB PUSH1 0x1F AND DUP3 ADD SWAP2 JUMPDEST POP POP POP POP POP SWAP1 POP SWAP1 JUMP JUMPDEST PUSH1 0x0 PUSH2 0xBC7 CALLER DUP5 DUP5 PUSH2 0x1A0F JUMP JUMPDEST POP PUSH1 0x1 JUMPDEST SWAP3 SWAP2 POP POP JUMP JUMPDEST PUSH2 0xBD9 PUSH2 0x19B5 JUMP JUMPDEST PUSH1 0xB2 DUP1 SLOAD SWAP2 ISZERO ISZERO PUSH1 0x1 PUSH1 0xA0 SHL MUL PUSH1 0xFF PUSH1 0xA0 SHL NOT SWAP1 SWAP3 AND SWAP2 SWAP1 SWAP2 OR SWAP1 SSTORE JUMP JUMPDEST PUSH1 0x1 PUSH1 0x1 PUSH1 0xA0 SHL SUB DUP2 AND PUSH1 0x0 SWAP1 DUP2 MSTORE PUSH1 0x9B PUSH1 0x20 MSTORE PUSH1 0x40 DUP2 KECCAK256 SLOAD DUP2 SWAP1 ISZERO DUP1 ISZERO SWAP1 PUSH2 0xC37 JUMPI POP PUSH1 0x1 PUSH1 0x1 PUSH1 0xA0 SHL SUB DUP4 AND PUSH1 0x0 SWAP1 DUP2 MSTORE PUSH1 0x9B PUSH1 0x20 MSTORE PUSH1 0x40 SWAP1 KECCAK256 SLOAD TIMESTAMP LT JUMPDEST PUSH1 0x1 PUSH1 0x1 PUSH1 0xA0 SHL SUB SWAP1 SWAP4 AND PUSH1 0x0 SWAP1 DUP2 MSTORE PUSH1 0x9B PUSH1 0x20 MSTORE PUSH1 0x40 SWAP1 KECCAK256 SLOAD SWAP3 SWAP4 SWAP2 POP POP JUMP JUMPDEST PUSH1 0x0 PUSH2 0xC65 DUP5 DUP5 DUP5 PUSH2 0x1B2B JUMP JUMPDEST PUSH2 0xCB7 DUP5 CALLER PUSH2 0xCB2 DUP6 PUSH1 0x40 MLOAD DUP1 PUSH1 0x60 ADD PUSH1 0x40 MSTORE DUP1 PUSH1 0x28 DUP2 MSTORE PUSH1 0x20 ADD PUSH2 0x3E68 PUSH1 0x28 SWAP2 CODECOPY PUSH1 0x1 PUSH1 0x1 PUSH1 0xA0 SHL SUB DUP11 AND PUSH1 0x0 SWAP1 DUP2 MSTORE PUSH1 0x9A PUSH1 0x20 SWAP1 DUP2 MSTORE PUSH1 0x40 DUP1 DUP4 KECCAK256 CALLER DUP5 MSTORE SWAP1 SWAP2 MSTORE SWAP1 KECCAK256 SLOAD SWAP2 SWAP1 PUSH2 0x1F05 JUMP JUMPDEST PUSH2 0x1A0F JUMP JUMPDEST POP PUSH1 0x1 SWAP4 SWAP3 POP POP POP JUMP JUMPDEST PUSH2 0xCC9 PUSH2 0x19B5 JUMP JUMPDEST PUSH1 0xB2 DUP1 SLOAD PUSH1 0x1 PUSH1 0x1 PUSH1 0xA0 SHL SUB NOT AND PUSH1 0x1 PUSH1 0x1 PUSH1 0xA0 SHL SUB SWAP3 SWAP1 SWAP3 AND SWAP2 SWAP1 SWAP2 OR SWAP1 SSTORE JUMP JUMPDEST PUSH1 0x0 PUSH1 0xA4 SLOAD DUP3 GT ISZERO PUSH2 0xD3F JUMPI PUSH1 0x40 MLOAD PUSH3 0x461BCD PUSH1 0xE5 SHL DUP2 MSTORE PUSH1 0x20 PUSH1 0x4 DUP3 ADD MSTORE PUSH1 0x1A PUSH1 0x24 DUP3 ADD MSTORE PUSH32 0x5265666C656374696F6E20616D6F756E74206F766572666C6F77000000000000 PUSH1 0x44 DUP3 ADD MSTORE PUSH1 0x64 ADD PUSH2 0xB1A JUMP JUMPDEST PUSH1 0x0 PUSH2 0xD49 PUSH2 0x1F31 JUMP JUMPDEST SWAP1 POP PUSH2 0xD55 DUP4 DUP3 PUSH2 0x1F54 JUMP JUMPDEST SWAP4 SWAP3 POP POP POP JUMP JUMPDEST PUSH2 0xD64 PUSH2 0x19B5 JUMP JUMPDEST PUSH1 0xAE DUP1 SLOAD PUSH1 0x1 PUSH1 0x1 PUSH1 0xA0 SHL SUB SWAP4 DUP5 AND PUSH1 0x1 PUSH1 0x1 PUSH1 0xA0 SHL SUB NOT SWAP2 DUP3 AND OR SWAP1 SWAP2 SSTORE PUSH1 0xAF DUP1 SLOAD SWAP3 SWAP1 SWAP4 AND SWAP2 AND OR SWAP1 SSTORE JUMP JUMPDEST PUSH2 0xD9A PUSH2 0x19B5 JUMP JUMPDEST PUSH1 0x1 PUSH1 0x1 PUSH1 0xA0 SHL SUB DUP2 AND PUSH1 0x0 SWAP1 DUP2 MSTORE PUSH1 0x9E PUSH1 0x20 MSTORE PUSH1 0x40 SWAP1 KECCAK256 SLOAD PUSH1 0xFF AND PUSH2 0xE02 JUMPI PUSH1 0x40 MLOAD PUSH3 0x461BCD PUSH1 0xE5 SHL DUP2 MSTORE PUSH1 0x20 PUSH1 0x4 DUP3 ADD MSTORE PUSH1 0x1B PUSH1 0x24 DUP3 ADD MSTORE PUSH32 0x4163636F756E7420697320616C7265616479206578636C756465640000000000 PUSH1 0x44 DUP3 ADD MSTORE PUSH1 0x64 ADD PUSH2 0xB1A JUMP JUMPDEST PUSH1 0x0 JUMPDEST PUSH1 0x9F SLOAD DUP2 LT ISZERO PUSH2 0xF22 JUMPI DUP2 PUSH1 0x1 PUSH1 0x1 PUSH1 0xA0 SHL SUB AND PUSH1 0x9F DUP3 DUP2 SLOAD DUP2 LT PUSH2 0xE2C JUMPI PUSH2 0xE2C PUSH2 0x3A21 JUMP JUMPDEST PUSH1 0x0 SWAP2 DUP3 MSTORE PUSH1 0x20 SWAP1 SWAP2 KECCAK256 ADD SLOAD PUSH1 0x1 PUSH1 0x1 PUSH1 0xA0 SHL SUB AND SUB PUSH2 0xF10 JUMPI PUSH1 0x9F DUP1 SLOAD PUSH2 0xE56 SWAP1 PUSH1 0x1 SWAP1 PUSH2 0x3A4D JUMP JUMPDEST DUP2 SLOAD DUP2 LT PUSH2 0xE66 JUMPI PUSH2 0xE66 PUSH2 0x3A21 JUMP JUMPDEST PUSH1 0x0 SWAP2 DUP3 MSTORE PUSH1 0x20 SWAP1 SWAP2 KECCAK256 ADD SLOAD PUSH1 0x9F DUP1 SLOAD PUSH1 0x1 PUSH1 0x1 PUSH1 0xA0 SHL SUB SWAP1 SWAP3 AND SWAP2 DUP4 SWAP1 DUP2 LT PUSH2 0xE92 JUMPI PUSH2 0xE92 PUSH2 0x3A21 JUMP JUMPDEST PUSH1 0x0 SWAP2 DUP3 MSTORE PUSH1 0x20 DUP1 DUP4 KECCAK256 SWAP2 SWAP1 SWAP2 ADD DUP1 SLOAD PUSH1 0x1 PUSH1 0x1 PUSH1 0xA0 SHL SUB NOT AND PUSH1 0x1 PUSH1 0x1 PUSH1 0xA0 SHL SUB SWAP5 DUP6 AND OR SWAP1 SSTORE SWAP2 DUP5 AND DUP2 MSTORE PUSH1 0x99 DUP3 MSTORE PUSH1 0x40 DUP1 DUP3 KECCAK256 DUP3 SWAP1 SSTORE PUSH1 0x9E SWAP1 SWAP3 MSTORE KECCAK256 DUP1 SLOAD PUSH1 0xFF NOT AND SWAP1 SSTORE PUSH1 0x9F DUP1 SLOAD DUP1 PUSH2 0xEEA JUMPI PUSH2 0xEEA PUSH2 0x3A60 JUMP JUMPDEST PUSH1 0x0 DUP3 DUP2 MSTORE PUSH1 0x20 SWAP1 KECCAK256 DUP2 ADD PUSH1 0x0 NOT SWAP1 DUP2 ADD DUP1 SLOAD PUSH1 0x1 PUSH1 0x1 PUSH1 0xA0 SHL SUB NOT AND SWAP1 SSTORE ADD SWAP1 SSTORE POP POP JUMP JUMPDEST DUP1 PUSH2 0xF1A DUP2 PUSH2 0x3A76 JUMP JUMPDEST SWAP2 POP POP PUSH2 0xE05 JUMP JUMPDEST POP POP JUMP JUMPDEST CALLER PUSH1 0x0 DUP2 DUP2 MSTORE PUSH1 0x9A PUSH1 0x20 SWAP1 DUP2 MSTORE PUSH1 0x40 DUP1 DUP4 KECCAK256 PUSH1 0x1 PUSH1 0x1 PUSH1 0xA0 SHL SUB DUP8 AND DUP5 MSTORE SWAP1 SWAP2 MSTORE DUP2 KECCAK256 SLOAD SWAP1 SWAP2 PUSH2 0xBC7 SWAP2 DUP6 SWAP1 PUSH2 0xCB2 SWAP1 DUP7 PUSH2 0x1F60 JUMP JUMPDEST CALLER PUSH1 0x0 DUP2 DUP2 MSTORE PUSH1 0x9E PUSH1 0x20 MSTORE PUSH1 0x40 SWAP1 KECCAK256 SLOAD PUSH1 0xFF AND ISZERO PUSH2 0xFBC JUMPI PUSH1 0x40 MLOAD PUSH3 0x461BCD PUSH1 0xE5 SHL DUP2 MSTORE PUSH1 0x20 PUSH1 0x4 DUP3 ADD MSTORE PUSH1 0x1F PUSH1 0x24 DUP3 ADD MSTORE PUSH32 0x556E617574686F72697A6564204578636C756465642061646472657373657300 PUSH1 0x44 DUP3 ADD MSTORE PUSH1 0x64 ADD PUSH2 0xB1A JUMP JUMPDEST PUSH1 0x0 PUSH2 0xFC7 DUP4 PUSH2 0x1F6C JUMP JUMPDEST POP POP POP PUSH1 0x1 PUSH1 0x1 PUSH1 0xA0 SHL SUB DUP7 AND PUSH1 0x0 SWAP1 DUP2 MSTORE PUSH1 0x98 PUSH1 0x20 MSTORE PUSH1 0x40 SWAP1 KECCAK256 SLOAD SWAP4 SWAP5 POP PUSH2 0xFF5 SWAP4 SWAP3 POP DUP5 SWAP2 POP POP PUSH2 0x1FC7 JUMP JUMPDEST PUSH1 0x1 PUSH1 0x1 PUSH1 0xA0 SHL SUB DUP4 AND PUSH1 0x0 SWAP1 DUP2 MSTORE PUSH1 0x98 PUSH1 0x20 MSTORE PUSH1 0x40 SWAP1 KECCAK256 SSTORE PUSH1 0xA4 SLOAD PUSH2 0x101B SWAP1 DUP3 PUSH2 0x1FC7 JUMP JUMPDEST PUSH1 0xA4 SSTORE PUSH1 0xA5 SLOAD PUSH2 0x102B SWAP1 DUP5 PUSH2 0x1F60 JUMP JUMPDEST PUSH1 0xA5 SSTORE POP POP POP JUMP JUMPDEST PUSH2 0x103D CALLER DUP3 PUSH2 0x1FD3 JUMP JUMPDEST POP JUMP JUMPDEST PUSH2 0x1048 PUSH2 0x19B5 JUMP JUMPDEST PUSH1 0x1 PUSH1 0x1 PUSH1 0xA0 SHL SUB AND PUSH1 0x0 SWAP1 DUP2 MSTORE PUSH1 0x9C PUSH1 0x20 MSTORE PUSH1 0x40 SWAP1 KECCAK256 DUP1 SLOAD PUSH1 0xFF NOT AND PUSH1 0x1 OR SWAP1 SSTORE JUMP JUMPDEST PUSH1 0x0 PUSH1 0xA3 SLOAD DUP4 GT ISZERO PUSH2 0x10C0 JUMPI PUSH1 0x40 MLOAD PUSH3 0x461BCD PUSH1 0xE5 SHL DUP2 MSTORE PUSH1 0x20 PUSH1 0x4 DUP3 ADD MSTORE PUSH1 0x1F PUSH1 0x24 DUP3 ADD MSTORE PUSH32 0x416D6F756E74206D757374206265206C657373207468616E20737570706C7900 PUSH1 0x44 DUP3 ADD MSTORE PUSH1 0x64 ADD PUSH2 0xB1A JUMP JUMPDEST DUP2 PUSH2 0x10E0 JUMPI PUSH1 0x0 PUSH2 0x10D0 DUP5 PUSH2 0x1F6C JUMP JUMPDEST POP SWAP5 SWAP7 POP PUSH2 0xBCB SWAP6 POP POP POP POP POP POP JUMP JUMPDEST PUSH1 0x0 PUSH2 0x10EB DUP5 PUSH2 0x1F6C JUMP JUMPDEST POP SWAP4 SWAP7 POP PUSH2 0xBCB SWAP6 POP POP POP POP POP POP JUMP JUMPDEST PUSH2 0x1103 PUSH2 0x19B5 JUMP JUMPDEST PUSH2 0x2710 DUP2 GT ISZERO PUSH2 0x1125 JUMPI PUSH1 0x40 MLOAD PUSH3 0x461BCD PUSH1 0xE5 SHL DUP2 MSTORE PUSH1 0x4 ADD PUSH2 0xB1A SWAP1 PUSH2 0x39C2 JUMP JUMPDEST PUSH1 0xAA SSTORE JUMP JUMPDEST PUSH2 0x1132 PUSH2 0x19B5 JUMP JUMPDEST PUSH1 0x1 PUSH1 0x1 PUSH1 0xA0 SHL SUB DUP2 AND PUSH1 0x0 SWAP1 DUP2 MSTORE PUSH1 0x9E PUSH1 0x20 MSTORE PUSH1 0x40 SWAP1 KECCAK256 SLOAD PUSH1 0xFF AND ISZERO PUSH2 0x119B JUMPI PUSH1 0x40 MLOAD PUSH3 0x461BCD PUSH1 0xE5 SHL DUP2 MSTORE PUSH1 0x20 PUSH1 0x4 DUP3 ADD MSTORE PUSH1 0x1B PUSH1 0x24 DUP3 ADD MSTORE PUSH32 0x4163636F756E7420697320616C7265616479206578636C756465640000000000 PUSH1 0x44 DUP3 ADD MSTORE PUSH1 0x64 ADD PUSH2 0xB1A JUMP JUMPDEST PUSH1 0x1 PUSH1 0x1 PUSH1 0xA0 SHL SUB DUP2 AND PUSH1 0x0 SWAP1 DUP2 MSTORE PUSH1 0x98 PUSH1 0x20 MSTORE PUSH1 0x40 SWAP1 KECCAK256 SLOAD ISZERO PUSH2 0x11F5 JUMPI PUSH1 0x1 PUSH1 0x1 PUSH1 0xA0 SHL SUB DUP2 AND PUSH1 0x0 SWAP1 DUP2 MSTORE PUSH1 0x98 PUSH1 0x20 MSTORE PUSH1 0x40 SWAP1 KECCAK256 SLOAD PUSH2 0x11DB SWAP1 PUSH2 0xCEB JUMP JUMPDEST PUSH1 0x1 PUSH1 0x1 PUSH1 0xA0 SHL SUB DUP3 AND PUSH1 0x0 SWAP1 DUP2 MSTORE PUSH1 0x99 PUSH1 0x20 MSTORE PUSH1 0x40 SWAP1 KECCAK256 SSTORE JUMPDEST PUSH1 0x1 PUSH1 0x1 PUSH1 0xA0 SHL SUB AND PUSH1 0x0 DUP2 DUP2 MSTORE PUSH1 0x9E PUSH1 0x20 MSTORE PUSH1 0x40 DUP2 KECCAK256 DUP1 SLOAD PUSH1 0xFF NOT AND PUSH1 0x1 SWAP1 DUP2 OR SWAP1 SWAP2 SSTORE PUSH1 0x9F DUP1 SLOAD SWAP2 DUP3 ADD DUP2 SSTORE SWAP1 SWAP2 MSTORE PUSH32 0xBC14066C33013FE88F66E314E4CF150B0B2D4D6451A1A51DBBD1C27CD11DE28 ADD DUP1 SLOAD PUSH1 0x1 PUSH1 0x1 PUSH1 0xA0 SHL SUB NOT AND SWAP1 SWAP2 OR SWAP1 SSTORE JUMP JUMPDEST PUSH2 0x1263 PUSH2 0x19B5 JUMP JUMPDEST PUSH1 0x1 PUSH1 0x1 PUSH1 0xA0 SHL SUB SWAP2 SWAP1 SWAP2 AND PUSH1 0x0 SWAP1 DUP2 MSTORE PUSH1 0x9D PUSH1 0x20 MSTORE PUSH1 0x40 SWAP1 KECCAK256 DUP1 SLOAD PUSH1 0xFF NOT AND SWAP2 ISZERO ISZERO SWAP2 SWAP1 SWAP2 OR SWAP1 SSTORE JUMP JUMPDEST PUSH2 0x1296 PUSH2 0x19B5 JUMP JUMPDEST PUSH1 0xA5 DUP1 SLOAD PUSH1 0x0 SWAP2 DUP3 SWAP1 SSTORE SWAP1 PUSH2 0x12A9 PUSH2 0x1F31 JUMP JUMPDEST SWAP1 POP PUSH1 0x0 PUSH2 0x12B7 DUP4 DUP4 PUSH2 0x20AF JUMP JUMPDEST PUSH1 0xAE SLOAD PUSH1 0x1 PUSH1 0x1 PUSH1 0xA0 SHL SUB AND PUSH1 0x0 SWAP1 DUP2 MSTORE PUSH1 0x98 PUSH1 0x20 MSTORE PUSH1 0x40 SWAP1 KECCAK256 SLOAD SWAP1 SWAP2 POP PUSH2 0x12DF SWAP1 DUP3 PUSH2 0x1F60 JUMP JUMPDEST PUSH1 0xAE SLOAD PUSH1 0x1 PUSH1 0x1 PUSH1 0xA0 SHL SUB AND PUSH1 0x0 SWAP1 DUP2 MSTORE PUSH1 0x98 PUSH1 0x20 SWAP1 DUP2 MSTORE PUSH1 0x40 DUP1 DUP4 KECCAK256 SWAP4 SWAP1 SWAP4 SSTORE ADDRESS DUP3 MSTORE PUSH1 0x9E SWAP1 MSTORE KECCAK256 SLOAD PUSH1 0xFF AND ISZERO PUSH2 0x1375 JUMPI ADDRESS PUSH1 0x0 SWAP1 DUP2 MSTORE PUSH1 0x99 PUSH1 0x20 MSTORE PUSH1 0x40 SWAP1 KECCAK256 SLOAD PUSH2 0x132B SWAP1 DUP3 PUSH2 0x1FC7 JUMP JUMPDEST ADDRESS PUSH1 0x0 SWAP1 DUP2 MSTORE PUSH1 0x99 PUSH1 0x20 MSTORE PUSH1 0x40 DUP1 DUP3 KECCAK256 SWAP3 SWAP1 SWAP3 SSTORE PUSH1 0xAE SLOAD PUSH1 0x1 PUSH1 0x1 PUSH1 0xA0 SHL SUB AND DUP2 MSTORE KECCAK256 SLOAD PUSH2 0x1359 SWAP1 DUP3 PUSH2 0x1F60 JUMP JUMPDEST PUSH1 0xAE SLOAD PUSH1 0x1 PUSH1 0x1 PUSH1 0xA0 SHL SUB AND PUSH1 0x0 SWAP1 DUP2 MSTORE PUSH1 0x99 PUSH1 0x20 MSTORE PUSH1 0x40 SWAP1 KECCAK256 SSTORE JUMPDEST PUSH1 0xAE SLOAD PUSH1 0x1 PUSH1 0x1 PUSH1 0xA0 SHL SUB AND CALLER JUMPDEST PUSH1 0x1 PUSH1 0x1 PUSH1 0xA0 SHL SUB AND PUSH1 0x0 DUP1 MLOAD PUSH1 0x20 PUSH2 0x3E90 DUP4 CODECOPY DUP2 MLOAD SWAP2 MSTORE DUP6 PUSH1 0x40 MLOAD PUSH2 0x13AB SWAP2 DUP2 MSTORE PUSH1 0x20 ADD SWAP1 JUMP JUMPDEST PUSH1 0x40 MLOAD DUP1 SWAP2 SUB SWAP1 LOG3 POP POP POP JUMP JUMPDEST PUSH1 0x0 SLOAD PUSH2 0x100 SWAP1 DIV PUSH1 0xFF AND ISZERO DUP1 DUP1 ISZERO PUSH2 0x13D8 JUMPI POP PUSH1 0x0 SLOAD PUSH1 0x1 PUSH1 0xFF SWAP1 SWAP2 AND LT JUMPDEST DUP1 PUSH2 0x13F2 JUMPI POP ADDRESS EXTCODESIZE ISZERO DUP1 ISZERO PUSH2 0x13F2 JUMPI POP PUSH1 0x0 SLOAD PUSH1 0xFF AND PUSH1 0x1 EQ JUMPDEST PUSH2 0x140E JUMPI PUSH1 0x40 MLOAD PUSH3 0x461BCD PUSH1 0xE5 SHL DUP2 MSTORE PUSH1 0x4 ADD PUSH2 0xB1A SWAP1 PUSH2 0x3A8F JUMP JUMPDEST PUSH1 0x0 DUP1 SLOAD PUSH1 0xFF NOT AND PUSH1 0x1 OR SWAP1 SSTORE DUP1 ISZERO PUSH2 0x1431 JUMPI PUSH1 0x0 DUP1 SLOAD PUSH2 0xFF00 NOT AND PUSH2 0x100 OR SWAP1 SSTORE JUMPDEST PUSH2 0x1439 PUSH2 0x20BB JUMP JUMPDEST PUSH2 0x144C DUP13 DUP13 DUP13 DUP13 DUP13 DUP13 DUP13 DUP13 DUP13 DUP13 DUP13 PUSH2 0x20EA JUMP JUMPDEST DUP1 ISZERO PUSH2 0x1493 JUMPI PUSH1 0x0 DUP1 SLOAD PUSH2 0xFF00 NOT AND SWAP1 SSTORE PUSH1 0x40 MLOAD PUSH1 0x1 DUP2 MSTORE PUSH32 0x7F26B83FF96E1F2B6A682F133852F6798A09C465DA95921460CEFB3847402498 SWAP1 PUSH1 0x20 ADD JUMPDEST PUSH1 0x40 MLOAD DUP1 SWAP2 SUB SWAP1 LOG1 JUMPDEST POP POP POP POP POP POP POP POP POP POP POP POP JUMP JUMPDEST PUSH1 0x1 PUSH1 0x1 PUSH1 0xA0 SHL SUB DUP2 AND PUSH1 0x0 SWAP1 DUP2 MSTORE PUSH1 0x9E PUSH1 0x20 MSTORE PUSH1 0x40 DUP2 KECCAK256 SLOAD PUSH1 0xFF AND ISZERO PUSH2 0x14DE JUMPI POP PUSH1 0x1 PUSH1 0x1 PUSH1 0xA0 SHL SUB AND PUSH1 0x0 SWAP1 DUP2 MSTORE PUSH1 0x99 PUSH1 0x20 MSTORE PUSH1 0x40 SWAP1 KECCAK256 SLOAD SWAP1 JUMP JUMPDEST PUSH1 0x1 PUSH1 0x1 PUSH1 0xA0 SHL SUB DUP3 AND PUSH1 0x0 SWAP1 DUP2 MSTORE PUSH1 0x98 PUSH1 0x20 MSTORE PUSH1 0x40 SWAP1 KECCAK256 SLOAD PUSH2 0xBCB SWAP1 PUSH2 0xCEB JUMP JUMPDEST PUSH2 0x1508 PUSH2 0x19B5 JUMP JUMPDEST PUSH2 0x1512 PUSH1 0x0 PUSH2 0x275A JUMP JUMPDEST JUMP JUMPDEST PUSH2 0x151C PUSH2 0x19B5 JUMP JUMPDEST PUSH1 0x97 PUSH2 0xF22 DUP3 DUP3 PUSH2 0x3B23 JUMP JUMPDEST PUSH1 0x0 PUSH2 0x1534 DUP4 CALLER PUSH2 0xA70 JUMP JUMPDEST SWAP1 POP DUP2 DUP2 LT ISZERO PUSH2 0x1592 JUMPI PUSH1 0x40 MLOAD PUSH3 0x461BCD PUSH1 0xE5 SHL DUP2 MSTORE PUSH1 0x20 PUSH1 0x4 DUP3 ADD MSTORE PUSH1 0x24 DUP1 DUP3 ADD MSTORE PUSH32 0x45524332303A206275726E20616D6F756E74206578636565647320616C6C6F77 PUSH1 0x44 DUP3 ADD MSTORE PUSH4 0x616E6365 PUSH1 0xE0 SHL PUSH1 0x64 DUP3 ADD MSTORE PUSH1 0x84 ADD PUSH2 0xB1A JUMP JUMPDEST PUSH2 0x159F DUP4 CALLER DUP5 DUP5 SUB PUSH2 0x1A0F JUMP JUMPDEST PUSH2 0x15A9 DUP4 DUP4 PUSH2 0x1FD3 JUMP JUMPDEST POP POP POP JUMP JUMPDEST PUSH2 0x15B6 PUSH2 0x19B5 JUMP JUMPDEST PUSH2 0x2710 DUP2 GT ISZERO PUSH2 0x15D8 JUMPI PUSH1 0x40 MLOAD PUSH3 0x461BCD PUSH1 0xE5 SHL DUP2 MSTORE PUSH1 0x4 ADD PUSH2 0xB1A SWAP1 PUSH2 0x39C2 JUMP JUMPDEST PUSH1 0xA8 SSTORE JUMP JUMPDEST PUSH1 0x60 PUSH1 0xA1 DUP1 SLOAD PUSH2 0xB37 SWAP1 PUSH2 0x39E7 JUMP JUMPDEST PUSH2 0x15F4 PUSH2 0x19B5 JUMP JUMPDEST PUSH2 0x160B PUSH1 0x0 PUSH2 0xF22 PUSH1 0x33 SLOAD PUSH1 0x1 PUSH1 0x1 PUSH1 0xA0 SHL SUB AND SWAP1 JUMP JUMPDEST DUP1 PUSH1 0xA3 PUSH1 0x0 DUP3 DUP3 SLOAD PUSH2 0x161D SWAP2 SWAP1 PUSH2 0x3BE3 JUMP JUMPDEST SWAP1 SWAP2 SSTORE POP PUSH2 0x165D SWAP1 POP DUP2 PUSH1 0x98 PUSH1 0x0 PUSH2 0x163D PUSH1 0x33 SLOAD PUSH1 0x1 PUSH1 0x1 PUSH1 0xA0 SHL SUB AND SWAP1 JUMP JUMPDEST PUSH1 0x1 PUSH1 0x1 PUSH1 0xA0 SHL SUB AND DUP2 MSTORE PUSH1 0x20 DUP2 ADD SWAP2 SWAP1 SWAP2 MSTORE PUSH1 0x40 ADD PUSH1 0x0 KECCAK256 SLOAD SWAP1 PUSH2 0x1F60 JUMP JUMPDEST PUSH1 0x98 PUSH1 0x0 PUSH2 0x1673 PUSH1 0x33 SLOAD PUSH1 0x1 PUSH1 0x1 PUSH1 0xA0 SHL SUB AND SWAP1 JUMP JUMPDEST PUSH1 0x1 PUSH1 0x1 PUSH1 0xA0 SHL SUB AND DUP2 MSTORE PUSH1 0x20 DUP2 ADD SWAP2 SWAP1 SWAP2 MSTORE PUSH1 0x40 ADD PUSH1 0x0 KECCAK256 SSTORE PUSH2 0x169F PUSH1 0x33 SLOAD PUSH1 0x1 PUSH1 0x1 PUSH1 0xA0 SHL SUB AND SWAP1 JUMP JUMPDEST PUSH1 0x1 PUSH1 0x1 PUSH1 0xA0 SHL SUB AND PUSH1 0x0 PUSH1 0x1 PUSH1 0x1 PUSH1 0xA0 SHL SUB AND PUSH1 0x0 DUP1 MLOAD PUSH1 0x20 PUSH2 0x3E90 DUP4 CODECOPY DUP2 MLOAD SWAP2 MSTORE DUP4 PUSH1 0x40 MLOAD PUSH2 0x16D2 SWAP2 DUP2 MSTORE PUSH1 0x20 ADD SWAP1 JUMP JUMPDEST PUSH1 0x40 MLOAD DUP1 SWAP2 SUB SWAP1 LOG3 PUSH2 0x103D PUSH1 0x0 PUSH2 0xF22 PUSH1 0x33 SLOAD PUSH1 0x1 PUSH1 0x1 PUSH1 0xA0 SHL SUB AND SWAP1 JUMP JUMPDEST PUSH1 0x0 PUSH2 0xBC7 CALLER DUP5 PUSH2 0xCB2 DUP6 PUSH1 0x40 MLOAD DUP1 PUSH1 0x60 ADD PUSH1 0x40 MSTORE DUP1 PUSH1 0x25 DUP2 MSTORE PUSH1 0x20 ADD PUSH2 0x3EB0 PUSH1 0x25 SWAP2 CODECOPY CALLER PUSH1 0x0 SWAP1 DUP2 MSTORE PUSH1 0x9A PUSH1 0x20 SWAP1 DUP2 MSTORE PUSH1 0x40 DUP1 DUP4 KECCAK256 PUSH1 0x1 PUSH1 0x1 PUSH1 0xA0 SHL SUB DUP14 AND DUP5 MSTORE SWAP1 SWAP2 MSTORE SWAP1 KECCAK256 SLOAD SWAP2 SWAP1 PUSH2 0x1F05 JUMP JUMPDEST PUSH2 0x1748 PUSH2 0x19B5 JUMP JUMPDEST PUSH2 0x1751 ADDRESS PUSH2 0x14A1 JUMP JUMPDEST DUP2 GT ISZERO PUSH2 0x1799 JUMPI PUSH1 0x40 MLOAD PUSH3 0x461BCD PUSH1 0xE5 SHL DUP2 MSTORE PUSH1 0x20 PUSH1 0x4 DUP3 ADD MSTORE PUSH1 0x16 PUSH1 0x24 DUP3 ADD MSTORE PUSH22 0x416D6F756E7420657863656564732062616C616E6365 PUSH1 0x50 SHL PUSH1 0x44 DUP3 ADD MSTORE PUSH1 0x64 ADD PUSH2 0xB1A JUMP JUMPDEST PUSH2 0xF22 ADDRESS DUP4 DUP4 PUSH2 0x1B2B JUMP JUMPDEST PUSH1 0x0 PUSH2 0xBC7 CALLER DUP5 DUP5 PUSH2 0x1B2B JUMP JUMPDEST PUSH2 0x17B9 PUSH2 0x19B5 JUMP JUMPDEST PUSH1 0xAF DUP1 SLOAD DUP3 ISZERO ISZERO PUSH1 0x1 PUSH1 0xA8 SHL MUL PUSH1 0xFF PUSH1 0xA8 SHL NOT SWAP1 SWAP2 AND OR SWAP1 SSTORE PUSH1 0x40 MLOAD PUSH32 0x53726DFCAF90650AA7EB35524F4D3220F07413C8D6CB404CC8C18BF5591BC159 SWAP1 PUSH2 0x1806 SWAP1 DUP4 ISZERO ISZERO DUP2 MSTORE PUSH1 0x20 ADD SWAP1 JUMP JUMPDEST PUSH1 0x40 MLOAD DUP1 SWAP2 SUB SWAP1 LOG1 POP JUMP JUMPDEST PUSH2 0x1819 PUSH2 0x19B5 JUMP JUMPDEST PUSH3 0xF4240 DUP2 GT ISZERO PUSH2 0x183C JUMPI PUSH1 0x40 MLOAD PUSH3 0x461BCD PUSH1 0xE5 SHL DUP2 MSTORE PUSH1 0x4 ADD PUSH2 0xB1A SWAP1 PUSH2 0x39C2 JUMP JUMPDEST PUSH2 0x185E PUSH3 0xF4240 PUSH2 0x1858 DUP4 PUSH1 0xA3 SLOAD PUSH2 0x20AF SWAP1 SWAP2 SWAP1 PUSH4 0xFFFFFFFF AND JUMP JUMPDEST SWAP1 PUSH2 0x1F54 JUMP JUMPDEST PUSH1 0xB0 SSTORE POP JUMP JUMPDEST PUSH2 0x186C PUSH2 0x19B5 JUMP JUMPDEST PUSH1 0x1 PUSH1 0x1 PUSH1 0xA0 SHL SUB SWAP1 SWAP2 AND PUSH1 0x0 SWAP1 DUP2 MSTORE PUSH1 0x9B PUSH1 0x20 MSTORE PUSH1 0x40 SWAP1 KECCAK256 SSTORE JUMP JUMPDEST PUSH2 0x1890 PUSH2 0x19B5 JUMP JUMPDEST PUSH1 0x1 PUSH1 0x1 PUSH1 0xA0 SHL SUB AND PUSH1 0x0 SWAP1 DUP2 MSTORE PUSH1 0x9C PUSH1 0x20 MSTORE PUSH1 0x40 SWAP1 KECCAK256 DUP1 SLOAD PUSH1 0xFF NOT AND SWAP1 SSTORE JUMP JUMPDEST PUSH2 0x18B9 PUSH2 0x19B5 JUMP JUMPDEST PUSH1 0x1 PUSH1 0x1 PUSH1 0xA0 SHL SUB DUP2 AND PUSH2 0x191E JUMPI PUSH1 0x40 MLOAD PUSH3 0x461BCD PUSH1 0xE5 SHL DUP2 MSTORE PUSH1 0x20 PUSH1 0x4 DUP3 ADD MSTORE PUSH1 0x26 PUSH1 0x24 DUP3 ADD MSTORE PUSH32 0x4F776E61626C653A206E6577206F776E657220697320746865207A65726F2061 PUSH1 0x44 DUP3 ADD MSTORE PUSH6 0x646472657373 PUSH1 0xD0 SHL PUSH1 0x64 DUP3 ADD MSTORE PUSH1 0x84 ADD PUSH2 0xB1A JUMP JUMPDEST PUSH2 0x103D DUP2 PUSH2 0x275A JUMP JUMPDEST PUSH1 0x97 DUP1 SLOAD PUSH2 0x1934 SWAP1 PUSH2 0x39E7 JUMP JUMPDEST DUP1 PUSH1 0x1F ADD PUSH1 0x20 DUP1 SWAP2 DIV MUL PUSH1 0x20 ADD PUSH1 0x40 MLOAD SWAP1 DUP2 ADD PUSH1 0x40 MSTORE DUP1 SWAP3 SWAP2 SWAP1 DUP2 DUP2 MSTORE PUSH1 0x20 ADD DUP3 DUP1 SLOAD PUSH2 0x1960 SWAP1 PUSH2 0x39E7 JUMP JUMPDEST DUP1 ISZERO PUSH2 0x19AD JUMPI DUP1 PUSH1 0x1F LT PUSH2 0x1982 JUMPI PUSH2 0x100 DUP1 DUP4 SLOAD DIV MUL DUP4 MSTORE SWAP2 PUSH1 0x20 ADD SWAP2 PUSH2 0x19AD JUMP JUMPDEST DUP3 ADD SWAP2 SWAP1 PUSH1 0x0 MSTORE PUSH1 0x20 PUSH1 0x0 KECCAK256 SWAP1 JUMPDEST DUP2 SLOAD DUP2 MSTORE SWAP1 PUSH1 0x1 ADD SWAP1 PUSH1 0x20 ADD DUP1 DUP4 GT PUSH2 0x1990 JUMPI DUP3 SWAP1 SUB PUSH1 0x1F AND DUP3 ADD SWAP2 JUMPDEST POP POP POP POP POP DUP2 JUMP JUMPDEST PUSH1 0x33 SLOAD PUSH1 0x1 PUSH1 0x1 PUSH1 0xA0 SHL SUB AND CALLER EQ PUSH2 0x1512 JUMPI PUSH1 0x40 MLOAD PUSH3 0x461BCD PUSH1 0xE5 SHL DUP2 MSTORE PUSH1 0x20 PUSH1 0x4 DUP3 ADD DUP2 SWAP1 MSTORE PUSH1 0x24 DUP3 ADD MSTORE PUSH32 0x4F776E61626C653A2063616C6C6572206973206E6F7420746865206F776E6572 PUSH1 0x44 DUP3 ADD MSTORE PUSH1 0x64 ADD PUSH2 0xB1A JUMP JUMPDEST PUSH1 0x1 PUSH1 0x1 PUSH1 0xA0 SHL SUB DUP4 AND PUSH2 0x1A71 JUMPI PUSH1 0x40 MLOAD PUSH3 0x461BCD PUSH1 0xE5 SHL DUP2 MSTORE PUSH1 0x20 PUSH1 0x4 DUP3 ADD MSTORE PUSH1 0x24 DUP1 DUP3 ADD MSTORE PUSH32 0x45524332303A20617070726F76652066726F6D20746865207A65726F20616464 PUSH1 0x44 DUP3 ADD MSTORE PUSH4 0x72657373 PUSH1 0xE0 SHL PUSH1 0x64 DUP3 ADD MSTORE PUSH1 0x84 ADD PUSH2 0xB1A JUMP JUMPDEST PUSH1 0x1 PUSH1 0x1 PUSH1 0xA0 SHL SUB DUP3 AND PUSH2 0x1AD2 JUMPI PUSH1 0x40 MLOAD PUSH3 0x461BCD PUSH1 0xE5 SHL DUP2 MSTORE PUSH1 0x20 PUSH1 0x4 DUP3 ADD MSTORE PUSH1 0x22 PUSH1 0x24 DUP3 ADD MSTORE PUSH32 0x45524332303A20617070726F766520746F20746865207A65726F206164647265 PUSH1 0x44 DUP3 ADD MSTORE PUSH2 0x7373 PUSH1 0xF0 SHL PUSH1 0x64 DUP3 ADD MSTORE PUSH1 0x84 ADD PUSH2 0xB1A JUMP JUMPDEST PUSH1 0x1 PUSH1 0x1 PUSH1 0xA0 SHL SUB DUP4 DUP2 AND PUSH1 0x0 DUP2 DUP2 MSTORE PUSH1 0x9A PUSH1 0x20 SWAP1 DUP2 MSTORE PUSH1 0x40 DUP1 DUP4 KECCAK256 SWAP5 DUP8 AND DUP1 DUP5 MSTORE SWAP5 DUP3 MSTORE SWAP2 DUP3 SWAP1 KECCAK256 DUP6 SWAP1 SSTORE SWAP1 MLOAD DUP5 DUP2 MSTORE PUSH32 0x8C5BE1E5EBEC7D5BD14F71427D1E84F3DD0314C0F7B2291E5B200AC8C7C3B925 SWAP2 ADD PUSH2 0x13AB JUMP JUMPDEST PUSH1 0x1 PUSH1 0x1 PUSH1 0xA0 SHL SUB DUP4 AND PUSH2 0x1B8F JUMPI PUSH1 0x40 MLOAD PUSH3 0x461BCD PUSH1 0xE5 SHL DUP2 MSTORE PUSH1 0x20 PUSH1 0x4 DUP3 ADD MSTORE PUSH1 0x25 PUSH1 0x24 DUP3 ADD MSTORE PUSH32 0x45524332303A207472616E736665722066726F6D20746865207A65726F206164 PUSH1 0x44 DUP3 ADD MSTORE PUSH5 0x6472657373 PUSH1 0xD8 SHL PUSH1 0x64 DUP3 ADD MSTORE PUSH1 0x84 ADD PUSH2 0xB1A JUMP JUMPDEST PUSH1 0x1 PUSH1 0x1 PUSH1 0xA0 SHL SUB DUP3 AND PUSH2 0x1BF1 JUMPI PUSH1 0x40 MLOAD PUSH3 0x461BCD PUSH1 0xE5 SHL DUP2 MSTORE PUSH1 0x20 PUSH1 0x4 DUP3 ADD MSTORE PUSH1 0x23 PUSH1 0x24 DUP3 ADD MSTORE PUSH32 0x45524332303A207472616E7366657220746F20746865207A65726F2061646472 PUSH1 0x44 DUP3 ADD MSTORE PUSH3 0x657373 PUSH1 0xE8 SHL PUSH1 0x64 DUP3 ADD MSTORE PUSH1 0x84 ADD PUSH2 0xB1A JUMP JUMPDEST PUSH1 0x0 DUP2 GT PUSH2 0x1C38 JUMPI PUSH1 0x40 MLOAD PUSH3 0x461BCD PUSH1 0xE5 SHL DUP2 MSTORE PUSH1 0x20 PUSH1 0x4 DUP3 ADD MSTORE PUSH1 0x14 PUSH1 0x24 DUP3 ADD MSTORE PUSH20 0x16995C9BC81D1C985B9CD9995C88185B5BDD5B9D PUSH1 0x62 SHL PUSH1 0x44 DUP3 ADD MSTORE PUSH1 0x64 ADD PUSH2 0xB1A JUMP JUMPDEST PUSH1 0x0 PUSH2 0x1C43 DUP5 PUSH2 0xBF7 JUMP JUMPDEST POP SWAP1 POP PUSH1 0x0 PUSH2 0x1C51 DUP5 PUSH2 0xBF7 JUMP JUMPDEST POP SWAP1 POP DUP2 ISZERO PUSH2 0x1C99 JUMPI PUSH1 0x40 MLOAD PUSH3 0x461BCD PUSH1 0xE5 SHL DUP2 MSTORE PUSH1 0x20 PUSH1 0x4 DUP3 ADD MSTORE PUSH1 0x14 PUSH1 0x24 DUP3 ADD MSTORE PUSH20 0x53757370656E6465642074696D652072616E6765 PUSH1 0x60 SHL PUSH1 0x44 DUP3 ADD MSTORE PUSH1 0x64 ADD PUSH2 0xB1A JUMP JUMPDEST DUP1 ISZERO PUSH2 0x1CDE JUMPI PUSH1 0x40 MLOAD PUSH3 0x461BCD PUSH1 0xE5 SHL DUP2 MSTORE PUSH1 0x20 PUSH1 0x4 DUP3 ADD MSTORE PUSH1 0x14 PUSH1 0x24 DUP3 ADD MSTORE PUSH20 0x53757370656E6465642074696D652072616E6765 PUSH1 0x60 SHL PUSH1 0x44 DUP3 ADD MSTORE PUSH1 0x64 ADD PUSH2 0xB1A JUMP JUMPDEST PUSH1 0xB2 SLOAD PUSH1 0x1 PUSH1 0xA0 SHL SWAP1 DIV PUSH1 0xFF AND ISZERO PUSH2 0x1D5F JUMPI PUSH1 0xB2 SLOAD PUSH1 0x40 MLOAD PUSH4 0x90EC10B PUSH1 0xE3 SHL DUP2 MSTORE PUSH1 0x1 PUSH1 0x1 PUSH1 0xA0 SHL SUB DUP8 DUP2 AND PUSH1 0x4 DUP4 ADD MSTORE DUP7 DUP2 AND PUSH1 0x24 DUP4 ADD MSTORE PUSH1 0x44 DUP3 ADD DUP7 SWAP1 MSTORE SWAP1 SWAP2 AND SWAP1 PUSH4 0x48760858 SWAP1 PUSH1 0x64 ADD PUSH1 0x0 PUSH1 0x40 MLOAD DUP1 DUP4 SUB DUP2 PUSH1 0x0 DUP8 DUP1 EXTCODESIZE ISZERO DUP1 ISZERO PUSH2 0x1D46 JUMPI PUSH1 0x0 DUP1 REVERT JUMPDEST POP GAS CALL ISZERO DUP1 ISZERO PUSH2 0x1D5A JUMPI RETURNDATASIZE PUSH1 0x0 DUP1 RETURNDATACOPY RETURNDATASIZE PUSH1 0x0 REVERT JUMPDEST POP POP POP POP JUMPDEST PUSH1 0x33 SLOAD PUSH1 0x1 PUSH1 0x1 PUSH1 0xA0 SHL SUB DUP7 DUP2 AND SWAP2 AND EQ DUP1 ISZERO SWAP1 PUSH2 0x1D8B JUMPI POP PUSH1 0x33 SLOAD PUSH1 0x1 PUSH1 0x1 PUSH1 0xA0 SHL SUB DUP6 DUP2 AND SWAP2 AND EQ ISZERO JUMPDEST ISZERO PUSH2 0x1E29 JUMPI PUSH1 0x1 PUSH1 0x1 PUSH1 0xA0 SHL SUB DUP6 AND PUSH1 0x0 SWAP1 DUP2 MSTORE PUSH1 0x9D PUSH1 0x20 MSTORE PUSH1 0x40 SWAP1 KECCAK256 SLOAD PUSH1 0xFF AND ISZERO DUP1 ISZERO PUSH2 0x1DD2 JUMPI POP PUSH1 0x1 PUSH1 0x1 PUSH1 0xA0 SHL SUB DUP5 AND PUSH1 0x0 SWAP1 DUP2 MSTORE PUSH1 0x9D PUSH1 0x20 MSTORE PUSH1 0x40 SWAP1 KECCAK256 SLOAD PUSH1 0xFF AND ISZERO JUMPDEST ISZERO PUSH2 0x1E29 JUMPI PUSH1 0xB0 SLOAD DUP4 GT ISZERO PUSH2 0x1E29 JUMPI PUSH1 0x40 MLOAD PUSH3 0x461BCD PUSH1 0xE5 SHL DUP2 MSTORE PUSH1 0x20 PUSH1 0x4 DUP3 ADD MSTORE PUSH1 0x17 PUSH1 0x24 DUP3 ADD MSTORE PUSH32 0x5472616E7366657220616D6F756E742065786365656473000000000000000000 PUSH1 0x44 DUP3 ADD MSTORE PUSH1 0x64 ADD PUSH2 0xB1A JUMP JUMPDEST PUSH1 0x0 PUSH2 0x1E34 ADDRESS PUSH2 0x14A1 JUMP JUMPDEST SWAP1 POP PUSH1 0xB0 SLOAD DUP2 LT PUSH2 0x1E44 JUMPI POP PUSH1 0xB0 SLOAD JUMPDEST PUSH1 0xB1 SLOAD DUP2 LT DUP1 ISZERO SWAP1 DUP2 SWAP1 PUSH2 0x1E62 JUMPI POP PUSH1 0xAF SLOAD PUSH1 0x1 PUSH1 0xA0 SHL SWAP1 DIV PUSH1 0xFF AND ISZERO JUMPDEST DUP1 ISZERO PUSH2 0x1E7C JUMPI POP PUSH1 0xAD SLOAD PUSH1 0x1 PUSH1 0x1 PUSH1 0xA0 SHL SUB DUP9 DUP2 AND SWAP2 AND EQ ISZERO JUMPDEST DUP1 ISZERO PUSH2 0x1E91 JUMPI POP PUSH1 0xAF SLOAD PUSH1 0x1 PUSH1 0xA8 SHL SWAP1 DIV PUSH1 0xFF AND JUMPDEST ISZERO PUSH2 0x1EA4 JUMPI PUSH1 0xB1 SLOAD SWAP2 POP PUSH2 0x1EA4 DUP3 PUSH2 0x27AC JUMP JUMPDEST PUSH1 0x1 PUSH1 0x1 PUSH1 0xA0 SHL SUB DUP8 AND PUSH1 0x0 SWAP1 DUP2 MSTORE PUSH1 0x9C PUSH1 0x20 MSTORE PUSH1 0x40 SWAP1 KECCAK256 SLOAD PUSH1 0x1 SWAP1 PUSH1 0xFF AND DUP1 PUSH2 0x1EE6 JUMPI POP PUSH1 0x1 PUSH1 0x1 PUSH1 0xA0 SHL SUB DUP8 AND PUSH1 0x0 SWAP1 DUP2 MSTORE PUSH1 0x9C PUSH1 0x20 MSTORE PUSH1 0x40 SWAP1 KECCAK256 SLOAD PUSH1 0xFF AND JUMPDEST ISZERO PUSH2 0x1EEF JUMPI POP PUSH1 0x0 JUMPDEST PUSH2 0x1EFB DUP9 DUP9 DUP9 DUP5 PUSH2 0x2853 JUMP JUMPDEST POP POP POP POP POP POP POP POP JUMP JUMPDEST PUSH1 0x0 DUP2 DUP5 DUP5 GT ISZERO PUSH2 0x1F29 JUMPI PUSH1 0x40 MLOAD PUSH3 0x461BCD PUSH1 0xE5 SHL DUP2 MSTORE PUSH1 0x4 ADD PUSH2 0xB1A SWAP2 SWAP1 PUSH2 0x35A4 JUMP JUMPDEST POP POP POP SWAP1 SUB SWAP1 JUMP JUMPDEST PUSH1 0x0 DUP1 PUSH1 0x0 PUSH2 0x1F3E PUSH2 0x29D6 JUMP JUMPDEST SWAP1 SWAP3 POP SWAP1 POP PUSH2 0x1F4D DUP3 DUP3 PUSH2 0x1F54 JUMP JUMPDEST SWAP3 POP POP POP SWAP1 JUMP JUMPDEST PUSH1 0x0 PUSH2 0xD55 DUP3 DUP5 PUSH2 0x3C0C JUMP JUMPDEST PUSH1 0x0 PUSH2 0xD55 DUP3 DUP5 PUSH2 0x3BE3 JUMP JUMPDEST PUSH1 0x0 DUP1 PUSH1 0x0 DUP1 PUSH1 0x0 DUP1 PUSH1 0x0 DUP1 PUSH1 0x0 DUP1 PUSH1 0x0 PUSH2 0x1F86 DUP13 PUSH2 0x2B58 JUMP JUMPDEST SWAP4 POP SWAP4 POP SWAP4 POP SWAP4 POP PUSH1 0x0 DUP1 PUSH1 0x0 PUSH2 0x1FA7 DUP16 DUP8 DUP8 DUP8 PUSH2 0x1FA2 PUSH2 0x1F31 JUMP JUMPDEST PUSH2 0x2BAD JUMP JUMPDEST SWAP2 SWAP16 POP SWAP14 POP SWAP12 POP SWAP6 SWAP10 POP SWAP4 SWAP8 POP SWAP2 SWAP6 POP SWAP4 POP POP POP POP SWAP2 SWAP4 SWAP6 SWAP8 SWAP1 SWAP3 SWAP5 SWAP7 POP JUMP JUMPDEST PUSH1 0x0 PUSH2 0xD55 DUP3 DUP5 PUSH2 0x3A4D JUMP JUMPDEST PUSH1 0x1 PUSH1 0x1 PUSH1 0xA0 SHL SUB DUP3 AND PUSH1 0x0 SWAP1 DUP2 MSTORE PUSH1 0x98 PUSH1 0x20 MSTORE PUSH1 0x40 SWAP1 KECCAK256 SLOAD DUP2 DUP2 LT ISZERO PUSH2 0x2047 JUMPI PUSH1 0x40 MLOAD PUSH3 0x461BCD PUSH1 0xE5 SHL DUP2 MSTORE PUSH1 0x20 PUSH1 0x4 DUP3 ADD MSTORE PUSH1 0x22 PUSH1 0x24 DUP3 ADD MSTORE PUSH32 0x45524332303A206275726E20616D6F756E7420657863656564732062616C616E PUSH1 0x44 DUP3 ADD MSTORE PUSH2 0x6365 PUSH1 0xF0 SHL PUSH1 0x64 DUP3 ADD MSTORE PUSH1 0x84 ADD PUSH2 0xB1A JUMP JUMPDEST PUSH1 0x1 PUSH1 0x1 PUSH1 0xA0 SHL SUB DUP4 AND PUSH1 0x0 SWAP1 DUP2 MSTORE PUSH1 0x98 PUSH1 0x20 MSTORE PUSH1 0x40 DUP2 KECCAK256 DUP4 DUP4 SUB SWAP1 SSTORE PUSH1 0xA3 DUP1 SLOAD DUP5 SWAP3 SWAP1 PUSH2 0x2076 SWAP1 DUP5 SWAP1 PUSH2 0x3A4D JUMP JUMPDEST SWAP1 SWAP2 SSTORE POP POP PUSH1 0x40 MLOAD DUP3 DUP2 MSTORE PUSH1 0x0 SWAP1 PUSH1 0x1 PUSH1 0x1 PUSH1 0xA0 SHL SUB DUP6 AND SWAP1 PUSH1 0x0 DUP1 MLOAD PUSH1 0x20 PUSH2 0x3E90 DUP4 CODECOPY DUP2 MLOAD SWAP2 MSTORE SWAP1 PUSH1 0x20 ADD PUSH1 0x40 MLOAD DUP1 SWAP2 SUB SWAP1 LOG3 POP POP POP JUMP JUMPDEST PUSH1 0x0 PUSH2 0xD55 DUP3 DUP5 PUSH2 0x3C20 JUMP JUMPDEST PUSH1 0x0 SLOAD PUSH2 0x100 SWAP1 DIV PUSH1 0xFF AND PUSH2 0x20E2 JUMPI PUSH1 0x40 MLOAD PUSH3 0x461BCD PUSH1 0xE5 SHL DUP2 MSTORE PUSH1 0x4 ADD PUSH2 0xB1A SWAP1 PUSH2 0x3C37 JUMP JUMPDEST PUSH2 0x1512 PUSH2 0x2C0F JUMP JUMPDEST PUSH1 0x0 SLOAD PUSH2 0x100 SWAP1 DIV PUSH1 0xFF AND ISZERO DUP1 DUP1 ISZERO PUSH2 0x210A JUMPI POP PUSH1 0x0 SLOAD PUSH1 0x1 PUSH1 0xFF SWAP1 SWAP2 AND LT JUMPDEST DUP1 PUSH2 0x2124 JUMPI POP ADDRESS EXTCODESIZE ISZERO DUP1 ISZERO PUSH2 0x2124 JUMPI POP PUSH1 0x0 SLOAD PUSH1 0xFF AND PUSH1 0x1 EQ JUMPDEST PUSH2 0x2140 JUMPI PUSH1 0x40 MLOAD PUSH3 0x461BCD PUSH1 0xE5 SHL DUP2 MSTORE PUSH1 0x4 ADD PUSH2 0xB1A SWAP1 PUSH2 0x3A8F JUMP JUMPDEST PUSH1 0x0 DUP1 SLOAD PUSH1 0xFF NOT AND PUSH1 0x1 OR SWAP1 SSTORE DUP1 ISZERO PUSH2 0x2163 JUMPI PUSH1 0x0 DUP1 SLOAD PUSH2 0xFF00 NOT AND PUSH2 0x100 OR SWAP1 SSTORE JUMPDEST PUSH1 0x40 DUP1 MLOAD DUP1 DUP3 ADD SWAP1 SWAP2 MSTORE PUSH1 0x6 DUP2 MSTORE PUSH6 0x312E302E3235 PUSH1 0xD0 SHL PUSH1 0x20 DUP3 ADD MSTORE PUSH1 0x97 SWAP1 PUSH2 0x218D SWAP1 DUP3 PUSH2 0x3B23 JUMP JUMPDEST POP PUSH2 0x2710 DUP7 PUSH2 0xFFFF AND GT ISZERO PUSH2 0x21D6 JUMPI PUSH1 0x40 MLOAD PUSH3 0x461BCD PUSH1 0xE5 SHL DUP2 MSTORE PUSH1 0x20 PUSH1 0x4 DUP3 ADD MSTORE PUSH1 0xF PUSH1 0x24 DUP3 ADD MSTORE PUSH15 0x496E76616C69642054617820666565 PUSH1 0x88 SHL PUSH1 0x44 DUP3 ADD MSTORE PUSH1 0x64 ADD PUSH2 0xB1A JUMP JUMPDEST PUSH2 0x2710 DUP6 PUSH2 0xFFFF AND GT ISZERO PUSH2 0x2224 JUMPI PUSH1 0x40 MLOAD PUSH3 0x461BCD PUSH1 0xE5 SHL DUP2 MSTORE PUSH1 0x20 PUSH1 0x4 DUP3 ADD MSTORE PUSH1 0x15 PUSH1 0x24 DUP3 ADD MSTORE PUSH21 0x496E76616C6964204C697175696469747920666565 PUSH1 0x58 SHL PUSH1 0x44 DUP3 ADD MSTORE PUSH1 0x64 ADD PUSH2 0xB1A JUMP JUMPDEST PUSH2 0x2710 DUP5 PUSH2 0xFFFF AND GT ISZERO PUSH2 0x2272 JUMPI PUSH1 0x40 MLOAD PUSH3 0x461BCD PUSH1 0xE5 SHL DUP2 MSTORE PUSH1 0x20 PUSH1 0x4 DUP3 ADD MSTORE PUSH1 0x15 PUSH1 0x24 DUP3 ADD MSTORE PUSH21 0x496E76616C6964204D61726B6574696E6720666565 PUSH1 0x58 SHL PUSH1 0x44 DUP3 ADD MSTORE PUSH1 0x64 ADD PUSH2 0xB1A JUMP JUMPDEST PUSH1 0x0 DUP8 PUSH2 0xFFFF AND GT DUP1 ISZERO PUSH2 0x228D JUMPI POP PUSH3 0xF4240 DUP8 PUSH2 0xFFFF AND GT ISZERO JUMPDEST PUSH2 0x22D1 JUMPI PUSH1 0x40 MLOAD PUSH3 0x461BCD PUSH1 0xE5 SHL DUP2 MSTORE PUSH1 0x20 PUSH1 0x4 DUP3 ADD MSTORE PUSH1 0x15 PUSH1 0x24 DUP3 ADD MSTORE PUSH21 0x125B9D985B1A59081B585E081D1E08185B5BDD5B9D PUSH1 0x5A SHL PUSH1 0x44 DUP3 ADD MSTORE PUSH1 0x64 ADD PUSH2 0xB1A JUMP JUMPDEST PUSH1 0x20 DUP4 ADD MLOAD PUSH1 0x1 PUSH1 0x1 PUSH1 0xA0 SHL SUB AND PUSH2 0x2335 JUMPI PUSH2 0xFFFF DUP5 AND ISZERO PUSH2 0x2335 JUMPI PUSH1 0x40 MLOAD PUSH3 0x461BCD PUSH1 0xE5 SHL DUP2 MSTORE PUSH1 0x20 PUSH1 0x4 DUP3 ADD MSTORE PUSH1 0x1D PUSH1 0x24 DUP3 ADD MSTORE PUSH32 0x4D61726B6574696E672070657263656E74206D6F7265207468616E2030000000 PUSH1 0x44 DUP3 ADD MSTORE PUSH1 0x64 ADD PUSH2 0xB1A JUMP JUMPDEST PUSH2 0x2710 DUP5 PUSH2 0x2343 DUP8 DUP10 PUSH2 0x3C82 JUMP JUMPDEST PUSH2 0x234D SWAP2 SWAP1 PUSH2 0x3C82 JUMP JUMPDEST PUSH2 0xFFFF AND GT ISZERO PUSH2 0x2394 JUMPI PUSH1 0x40 MLOAD PUSH3 0x461BCD PUSH1 0xE5 SHL DUP2 MSTORE PUSH1 0x20 PUSH1 0x4 DUP3 ADD MSTORE PUSH1 0x12 PUSH1 0x24 DUP3 ADD MSTORE PUSH18 0x546F74616C20666565206F766572666C6F77 PUSH1 0x70 SHL PUSH1 0x44 DUP3 ADD MSTORE PUSH1 0x64 ADD PUSH2 0xB1A JUMP JUMPDEST PUSH1 0xB2 DUP1 SLOAD PUSH1 0x1 PUSH1 0x1 PUSH1 0xA0 SHL SUB NOT AND PUSH1 0x1 PUSH1 0x1 PUSH1 0xA0 SHL SUB DUP5 DUP2 AND SWAP2 DUP3 OR SWAP1 SWAP3 SSTORE PUSH1 0x40 MLOAD PUSH4 0x18E02BD9 PUSH1 0xE0 SHL DUP2 MSTORE SWAP2 DUP15 AND PUSH1 0x4 DUP4 ADD MSTORE SWAP1 PUSH4 0x18E02BD9 SWAP1 PUSH1 0x24 ADD PUSH1 0x0 PUSH1 0x40 MLOAD DUP1 DUP4 SUB DUP2 PUSH1 0x0 DUP8 DUP1 EXTCODESIZE ISZERO DUP1 ISZERO PUSH2 0x23EC JUMPI PUSH1 0x0 DUP1 REVERT JUMPDEST POP GAS CALL ISZERO DUP1 ISZERO PUSH2 0x2400 JUMPI RETURNDATASIZE PUSH1 0x0 DUP1 RETURNDATACOPY RETURNDATASIZE PUSH1 0x0 REVERT JUMPDEST POP POP PUSH1 0xB2 DUP1 SLOAD PUSH1 0xFF PUSH1 0xA0 SHL NOT AND SWAP1 SSTORE POP PUSH2 0x241B SWAP1 POP DUP13 PUSH2 0x18B1 JUMP JUMPDEST PUSH1 0xA0 PUSH2 0x2427 DUP13 DUP3 PUSH2 0x3B23 JUMP JUMPDEST POP PUSH1 0xA1 PUSH2 0x2434 DUP12 DUP3 PUSH2 0x3B23 JUMP JUMPDEST POP PUSH1 0xA2 DUP1 SLOAD PUSH1 0xFF NOT AND PUSH1 0x8 SWAP1 DUP2 OR SWAP1 SWAP2 SSTORE PUSH2 0x2450 SWAP1 PUSH1 0xA PUSH2 0x3D88 JUMP JUMPDEST PUSH2 0x245A SWAP1 DUP11 PUSH2 0x3C20 JUMP JUMPDEST PUSH1 0xA3 DUP2 SWAP1 SSTORE PUSH2 0x246B SWAP1 PUSH1 0x0 NOT PUSH2 0x3D97 JUMP JUMPDEST PUSH2 0x2477 SWAP1 PUSH1 0x0 NOT PUSH2 0x3A4D JUMP JUMPDEST PUSH1 0xA4 SSTORE PUSH2 0xFFFF DUP7 DUP2 AND PUSH1 0xA6 DUP2 SWAP1 SSTORE PUSH1 0xA7 SSTORE DUP6 DUP2 AND PUSH1 0xA8 DUP2 SWAP1 SSTORE PUSH1 0xA9 SSTORE DUP4 MLOAD PUSH1 0xAE DUP1 SLOAD PUSH1 0x1 PUSH1 0x1 PUSH1 0xA0 SHL SUB SWAP3 DUP4 AND PUSH1 0x1 PUSH1 0x1 PUSH1 0xA0 SHL SUB NOT SWAP2 DUP3 AND OR SWAP1 SWAP2 SSTORE PUSH1 0x20 DUP7 ADD MLOAD PUSH1 0xAF DUP1 SLOAD SWAP2 SWAP1 SWAP4 AND SWAP2 AND OR SWAP1 SSTORE DUP5 DUP2 AND PUSH1 0xAA DUP2 SWAP1 SSTORE PUSH1 0xAB SSTORE PUSH1 0xA3 SLOAD PUSH2 0x24E8 SWAP2 PUSH3 0xF4240 SWAP2 PUSH2 0x1858 SWAP2 DUP12 AND PUSH2 0x20AF JUMP JUMPDEST PUSH1 0xB0 SSTORE PUSH1 0xA3 SLOAD PUSH2 0x2501 SWAP1 PUSH2 0x2710 SWAP1 PUSH2 0x1858 SWAP1 PUSH1 0x5 PUSH2 0x20AF JUMP JUMPDEST PUSH1 0xB1 SSTORE PUSH1 0xAF DUP1 SLOAD PUSH1 0xFF PUSH1 0xA8 SHL NOT AND PUSH1 0x1 PUSH1 0xA8 SHL OR SWAP1 SSTORE PUSH1 0xA4 SLOAD PUSH1 0x98 PUSH1 0x0 PUSH2 0x2530 PUSH1 0x33 SLOAD PUSH1 0x1 PUSH1 0x1 PUSH1 0xA0 SHL SUB AND SWAP1 JUMP JUMPDEST PUSH1 0x1 PUSH1 0x1 PUSH1 0xA0 SHL SUB AND PUSH1 0x1 PUSH1 0x1 PUSH1 0xA0 SHL SUB AND DUP2 MSTORE PUSH1 0x20 ADD SWAP1 DUP2 MSTORE PUSH1 0x20 ADD PUSH1 0x0 KECCAK256 DUP2 SWAP1 SSTORE POP PUSH1 0x0 DUP9 SWAP1 POP DUP1 PUSH1 0x1 PUSH1 0x1 PUSH1 0xA0 SHL SUB AND PUSH4 0xC45A0155 PUSH1 0x40 MLOAD DUP2 PUSH4 0xFFFFFFFF AND PUSH1 0xE0 SHL DUP2 MSTORE PUSH1 0x4 ADD PUSH1 0x20 PUSH1 0x40 MLOAD DUP1 DUP4 SUB DUP2 PUSH1 0x0 DUP8 GAS CALL ISZERO DUP1 ISZERO PUSH2 0x2599 JUMPI RETURNDATASIZE PUSH1 0x0 DUP1 RETURNDATACOPY RETURNDATASIZE PUSH1 0x0 REVERT JUMPDEST POP POP POP POP PUSH1 0x40 MLOAD RETURNDATASIZE PUSH1 0x1F NOT PUSH1 0x1F DUP3 ADD AND DUP3 ADD DUP1 PUSH1 0x40 MSTORE POP DUP2 ADD SWAP1 PUSH2 0x25BD SWAP2 SWAP1 PUSH2 0x3DAB JUMP JUMPDEST PUSH1 0x1 PUSH1 0x1 PUSH1 0xA0 SHL SUB AND PUSH4 0xC9C65396 ADDRESS DUP4 PUSH1 0x1 PUSH1 0x1 PUSH1 0xA0 SHL SUB AND PUSH4 0xAD5C4648 PUSH1 0x40 MLOAD DUP2 PUSH4 0xFFFFFFFF AND PUSH1 0xE0 SHL DUP2 MSTORE PUSH1 0x4 ADD PUSH1 0x20 PUSH1 0x40 MLOAD DUP1 DUP4 SUB DUP2 PUSH1 0x0 DUP8 GAS CALL ISZERO DUP1 ISZERO PUSH2 0x260C JUMPI RETURNDATASIZE PUSH1 0x0 DUP1 RETURNDATACOPY RETURNDATASIZE PUSH1 0x0 REVERT JUMPDEST POP POP POP POP PUSH1 0x40 MLOAD RETURNDATASIZE PUSH1 0x1F NOT PUSH1 0x1F DUP3 ADD AND DUP3 ADD DUP1 PUSH1 0x40 MSTORE POP DUP2 ADD SWAP1 PUSH2 0x2630 SWAP2 SWAP1 PUSH2 0x3DAB JUMP JUMPDEST PUSH1 0x40 MLOAD PUSH1 0x1 PUSH1 0x1 PUSH1 0xE0 SHL SUB NOT PUSH1 0xE0 DUP6 SWAP1 SHL AND DUP2 MSTORE PUSH1 0x1 PUSH1 0x1 PUSH1 0xA0 SHL SUB SWAP3 DUP4 AND PUSH1 0x4 DUP3 ADD MSTORE SWAP2 AND PUSH1 0x24 DUP3 ADD MSTORE PUSH1 0x44 ADD PUSH1 0x20 PUSH1 0x40 MLOAD DUP1 DUP4 SUB DUP2 PUSH1 0x0 DUP8 GAS CALL ISZERO DUP1 ISZERO PUSH2 0x267D JUMPI RETURNDATASIZE PUSH1 0x0 DUP1 RETURNDATACOPY RETURNDATASIZE PUSH1 0x0 REVERT JUMPDEST POP POP POP POP PUSH1 0x40 MLOAD RETURNDATASIZE PUSH1 0x1F NOT PUSH1 0x1F DUP3 ADD AND DUP3 ADD DUP1 PUSH1 0x40 MSTORE POP DUP2 ADD SWAP1 PUSH2 0x26A1 SWAP2 SWAP1 PUSH2 0x3DAB JUMP JUMPDEST PUSH1 0xAD DUP1 SLOAD PUSH1 0x1 PUSH1 0x1 PUSH1 0xA0 SHL SUB NOT SWAP1 DUP2 AND PUSH1 0x1 PUSH1 0x1 PUSH1 0xA0 SHL SUB SWAP4 DUP5 AND OR SWAP1 SWAP2 SSTORE PUSH1 0xAC DUP1 SLOAD SWAP1 SWAP2 AND SWAP2 DUP4 AND SWAP2 SWAP1 SWAP2 OR SWAP1 SSTORE PUSH2 0x26D9 DUP14 PUSH2 0x2C3F JUMP JUMPDEST DUP13 PUSH1 0x1 PUSH1 0x1 PUSH1 0xA0 SHL SUB AND PUSH1 0x0 PUSH1 0x1 PUSH1 0x1 PUSH1 0xA0 SHL SUB AND PUSH1 0x0 DUP1 MLOAD PUSH1 0x20 PUSH2 0x3E90 DUP4 CODECOPY DUP2 MLOAD SWAP2 MSTORE PUSH1 0xA3 SLOAD PUSH1 0x40 MLOAD PUSH2 0x270F SWAP2 DUP2 MSTORE PUSH1 0x20 ADD SWAP1 JUMP JUMPDEST PUSH1 0x40 MLOAD DUP1 SWAP2 SUB SWAP1 LOG3 POP DUP1 ISZERO PUSH2 0x1493 JUMPI PUSH1 0x0 DUP1 SLOAD PUSH2 0xFF00 NOT AND SWAP1 SSTORE PUSH1 0x40 MLOAD PUSH1 0x1 DUP2 MSTORE PUSH32 0x7F26B83FF96E1F2B6A682F133852F6798A09C465DA95921460CEFB3847402498 SWAP1 PUSH1 0x20 ADD PUSH2 0x148A JUMP JUMPDEST PUSH1 0x33 DUP1 SLOAD PUSH1 0x1 PUSH1 0x1 PUSH1 0xA0 SHL SUB DUP4 DUP2 AND PUSH1 0x1 PUSH1 0x1 PUSH1 0xA0 SHL SUB NOT DUP4 AND DUP2 OR SWAP1 SWAP4 SSTORE PUSH1 0x40 MLOAD SWAP2 AND SWAP2 SWAP1 DUP3 SWAP1 PUSH32 0x8BE0079C531659141344CD1FD0A4F28419497F9722A3DAAFE3B4186F6B6457E0 SWAP1 PUSH1 0x0 SWAP1 LOG3 POP POP JUMP JUMPDEST PUSH1 0xAF DUP1 SLOAD PUSH1 0xFF PUSH1 0xA0 SHL NOT AND PUSH1 0x1 PUSH1 0xA0 SHL OR SWAP1 SSTORE PUSH1 0x0 PUSH2 0x27CC DUP3 PUSH1 0x2 PUSH2 0x1F54 JUMP JUMPDEST SWAP1 POP PUSH1 0x0 PUSH2 0x27DA DUP4 DUP4 PUSH2 0x1FC7 JUMP JUMPDEST SWAP1 POP SELFBALANCE PUSH2 0x27E6 DUP4 PUSH2 0x2DE5 JUMP JUMPDEST PUSH1 0x0 PUSH2 0x27F2 SELFBALANCE DUP4 PUSH2 0x1FC7 JUMP JUMPDEST SWAP1 POP PUSH2 0x27FE DUP4 DUP3 PUSH2 0x2F41 JUMP JUMPDEST PUSH1 0x40 DUP1 MLOAD DUP6 DUP2 MSTORE PUSH1 0x20 DUP2 ADD DUP4 SWAP1 MSTORE SWAP1 DUP2 ADD DUP5 SWAP1 MSTORE PUSH32 0x17BBFB9A6069321B6DED73BD96327C9E6B7212A5CD51FF219CD61370ACAFB561 SWAP1 PUSH1 0x60 ADD PUSH1 0x40 MLOAD DUP1 SWAP2 SUB SWAP1 LOG1 POP POP PUSH1 0xAF DUP1 SLOAD PUSH1 0xFF PUSH1 0xA0 SHL NOT AND SWAP1 SSTORE POP POP POP JUMP JUMPDEST DUP1 PUSH2 0x2860 JUMPI PUSH2 0x2860 PUSH2 0x3016 JUMP JUMPDEST PUSH1 0x1 PUSH1 0x1 PUSH1 0xA0 SHL SUB DUP5 AND PUSH1 0x0 SWAP1 DUP2 MSTORE PUSH1 0x9E PUSH1 0x20 MSTORE PUSH1 0x40 SWAP1 KECCAK256 SLOAD PUSH1 0xFF AND DUP1 ISZERO PUSH2 0x28A1 JUMPI POP PUSH1 0x1 PUSH1 0x1 PUSH1 0xA0 SHL SUB DUP4 AND PUSH1 0x0 SWAP1 DUP2 MSTORE PUSH1 0x9E PUSH1 0x20 MSTORE PUSH1 0x40 SWAP1 KECCAK256 SLOAD PUSH1 0xFF AND ISZERO JUMPDEST ISZERO PUSH2 0x28B6 JUMPI PUSH2 0x28B1 DUP5 DUP5 DUP5 PUSH2 0x305B JUMP JUMPDEST PUSH2 0x29B4 JUMP JUMPDEST PUSH1 0x1 PUSH1 0x1 PUSH1 0xA0 SHL SUB DUP5 AND PUSH1 0x0 SWAP1 DUP2 MSTORE PUSH1 0x9E PUSH1 0x20 MSTORE PUSH1 0x40 SWAP1 KECCAK256 SLOAD PUSH1 0xFF AND ISZERO DUP1 ISZERO PUSH2 0x28F7 JUMPI POP PUSH1 0x1 PUSH1 0x1 PUSH1 0xA0 SHL SUB DUP4 AND PUSH1 0x0 SWAP1 DUP2 MSTORE PUSH1 0x9E PUSH1 0x20 MSTORE PUSH1 0x40 SWAP1 KECCAK256 SLOAD PUSH1 0xFF AND JUMPDEST ISZERO PUSH2 0x2907 JUMPI PUSH2 0x28B1 DUP5 DUP5 DUP5 PUSH2 0x318F JUMP JUMPDEST PUSH1 0x1 PUSH1 0x1 PUSH1 0xA0 SHL SUB DUP5 AND PUSH1 0x0 SWAP1 DUP2 MSTORE PUSH1 0x9E PUSH1 0x20 MSTORE PUSH1 0x40 SWAP1 KECCAK256 SLOAD PUSH1 0xFF AND ISZERO DUP1 ISZERO PUSH2 0x2949 JUMPI POP PUSH1 0x1 PUSH1 0x1 PUSH1 0xA0 SHL SUB DUP4 AND PUSH1 0x0 SWAP1 DUP2 MSTORE PUSH1 0x9E PUSH1 0x20 MSTORE PUSH1 0x40 SWAP1 KECCAK256 SLOAD PUSH1 0xFF AND ISZERO JUMPDEST ISZERO PUSH2 0x2959 JUMPI PUSH2 0x28B1 DUP5 DUP5 DUP5 PUSH2 0x324E JUMP JUMPDEST PUSH1 0x1 PUSH1 0x1 PUSH1 0xA0 SHL SUB DUP5 AND PUSH1 0x0 SWAP1 DUP2 MSTORE PUSH1 0x9E PUSH1 0x20 MSTORE PUSH1 0x40 SWAP1 KECCAK256 SLOAD PUSH1 0xFF AND DUP1 ISZERO PUSH2 0x2999 JUMPI POP PUSH1 0x1 PUSH1 0x1 PUSH1 0xA0 SHL SUB DUP4 AND PUSH1 0x0 SWAP1 DUP2 MSTORE PUSH1 0x9E PUSH1 0x20 MSTORE PUSH1 0x40 SWAP1 KECCAK256 SLOAD PUSH1 0xFF AND JUMPDEST ISZERO PUSH2 0x29A9 JUMPI PUSH2 0x28B1 DUP5 DUP5 DUP5 PUSH2 0x32A8 JUMP JUMPDEST PUSH2 0x29B4 DUP5 DUP5 DUP5 PUSH2 0x324E JUMP JUMPDEST DUP1 PUSH2 0x29D0 JUMPI PUSH2 0x29D0 PUSH1 0xA7 SLOAD PUSH1 0xA6 SSTORE PUSH1 0xA9 SLOAD PUSH1 0xA8 SSTORE PUSH1 0xAB SLOAD PUSH1 0xAA SSTORE JUMP JUMPDEST POP POP POP POP JUMP JUMPDEST PUSH1 0xA4 SLOAD PUSH1 0xA3 SLOAD PUSH1 0x0 SWAP2 DUP3 SWAP2 DUP3 JUMPDEST PUSH1 0x9F SLOAD DUP2 LT ISZERO PUSH2 0x2B28 JUMPI DUP3 PUSH1 0x98 PUSH1 0x0 PUSH1 0x9F DUP5 DUP2 SLOAD DUP2 LT PUSH2 0x2A05 JUMPI PUSH2 0x2A05 PUSH2 0x3A21 JUMP JUMPDEST PUSH1 0x0 SWAP2 DUP3 MSTORE PUSH1 0x20 DUP1 DUP4 KECCAK256 SWAP1 SWAP2 ADD SLOAD PUSH1 0x1 PUSH1 0x1 PUSH1 0xA0 SHL SUB AND DUP4 MSTORE DUP3 ADD SWAP3 SWAP1 SWAP3 MSTORE PUSH1 0x40 ADD SWAP1 KECCAK256 SLOAD GT DUP1 PUSH2 0x2A70 JUMPI POP DUP2 PUSH1 0x99 PUSH1 0x0 PUSH1 0x9F DUP5 DUP2 SLOAD DUP2 LT PUSH2 0x2A49 JUMPI PUSH2 0x2A49 PUSH2 0x3A21 JUMP JUMPDEST PUSH1 0x0 SWAP2 DUP3 MSTORE PUSH1 0x20 DUP1 DUP4 KECCAK256 SWAP1 SWAP2 ADD SLOAD PUSH1 0x1 PUSH1 0x1 PUSH1 0xA0 SHL SUB AND DUP4 MSTORE DUP3 ADD SWAP3 SWAP1 SWAP3 MSTORE PUSH1 0x40 ADD SWAP1 KECCAK256 SLOAD GT JUMPDEST ISZERO PUSH2 0x2A86 JUMPI PUSH1 0xA4 SLOAD PUSH1 0xA3 SLOAD SWAP5 POP SWAP5 POP POP POP POP SWAP1 SWAP2 JUMP JUMPDEST PUSH2 0x2ACC PUSH1 0x98 PUSH1 0x0 PUSH1 0x9F DUP5 DUP2 SLOAD DUP2 LT PUSH2 0x2AA0 JUMPI PUSH2 0x2AA0 PUSH2 0x3A21 JUMP JUMPDEST PUSH1 0x0 SWAP2 DUP3 MSTORE PUSH1 0x20 DUP1 DUP4 KECCAK256 SWAP1 SWAP2 ADD SLOAD PUSH1 0x1 PUSH1 0x1 PUSH1 0xA0 SHL SUB AND DUP4 MSTORE DUP3 ADD SWAP3 SWAP1 SWAP3 MSTORE PUSH1 0x40 ADD SWAP1 KECCAK256 SLOAD DUP5 SWAP1 PUSH2 0x1FC7 JUMP JUMPDEST SWAP3 POP PUSH2 0x2B14 PUSH1 0x99 PUSH1 0x0 PUSH1 0x9F DUP5 DUP2 SLOAD DUP2 LT PUSH2 0x2AE8 JUMPI PUSH2 0x2AE8 PUSH2 0x3A21 JUMP JUMPDEST PUSH1 0x0 SWAP2 DUP3 MSTORE PUSH1 0x20 DUP1 DUP4 KECCAK256 SWAP1 SWAP2 ADD SLOAD PUSH1 0x1 PUSH1 0x1 PUSH1 0xA0 SHL SUB AND DUP4 MSTORE DUP3 ADD SWAP3 SWAP1 SWAP3 MSTORE PUSH1 0x40 ADD SWAP1 KECCAK256 SLOAD DUP4 SWAP1 PUSH2 0x1FC7 JUMP JUMPDEST SWAP2 POP DUP1 PUSH2 0x2B20 DUP2 PUSH2 0x3A76 JUMP JUMPDEST SWAP2 POP POP PUSH2 0x29E3 JUMP JUMPDEST POP PUSH1 0xA3 SLOAD PUSH1 0xA4 SLOAD PUSH2 0x2B38 SWAP2 PUSH2 0x1F54 JUMP JUMPDEST DUP3 LT ISZERO PUSH2 0x2B4F JUMPI PUSH1 0xA4 SLOAD PUSH1 0xA3 SLOAD SWAP4 POP SWAP4 POP POP POP SWAP1 SWAP2 JUMP JUMPDEST SWAP1 SWAP4 SWAP1 SWAP3 POP SWAP1 POP JUMP JUMPDEST PUSH1 0x0 DUP1 PUSH1 0x0 DUP1 PUSH1 0x0 PUSH2 0x2B69 DUP7 PUSH2 0x3331 JUMP JUMPDEST SWAP1 POP PUSH1 0x0 PUSH2 0x2B76 DUP8 PUSH2 0x334E JUMP JUMPDEST SWAP1 POP PUSH1 0x0 PUSH2 0x2B83 DUP9 PUSH2 0x336B JUMP JUMPDEST SWAP1 POP PUSH1 0x0 PUSH2 0x2B9D DUP3 PUSH2 0x2B97 DUP6 DUP2 DUP14 DUP10 PUSH2 0x1FC7 JUMP JUMPDEST SWAP1 PUSH2 0x1FC7 JUMP JUMPDEST SWAP10 SWAP4 SWAP9 POP SWAP2 SWAP7 POP SWAP5 POP SWAP1 SWAP3 POP POP POP JUMP JUMPDEST PUSH1 0x0 DUP1 DUP1 DUP1 PUSH2 0x2BBC DUP10 DUP7 PUSH2 0x20AF JUMP JUMPDEST SWAP1 POP PUSH1 0x0 PUSH2 0x2BCA DUP10 DUP8 PUSH2 0x20AF JUMP JUMPDEST SWAP1 POP PUSH1 0x0 PUSH2 0x2BD8 DUP10 DUP9 PUSH2 0x20AF JUMP JUMPDEST SWAP1 POP PUSH1 0x0 PUSH2 0x2BE6 DUP10 DUP10 PUSH2 0x20AF JUMP JUMPDEST SWAP1 POP PUSH1 0x0 PUSH2 0x2BFA DUP3 PUSH2 0x2B97 DUP6 DUP2 DUP10 DUP10 PUSH2 0x1FC7 JUMP JUMPDEST SWAP5 SWAP14 SWAP5 SWAP13 POP SWAP3 SWAP11 POP SWAP3 SWAP9 POP POP POP POP POP POP POP POP POP JUMP JUMPDEST PUSH1 0x0 SLOAD PUSH2 0x100 SWAP1 DIV PUSH1 0xFF AND PUSH2 0x2C36 JUMPI PUSH1 0x40 MLOAD PUSH3 0x461BCD PUSH1 0xE5 SHL DUP2 MSTORE PUSH1 0x4 ADD PUSH2 0xB1A SWAP1 PUSH2 0x3C37 JUMP JUMPDEST PUSH2 0x1512 CALLER PUSH2 0x275A JUMP JUMPDEST PUSH1 0x0 SLOAD PUSH2 0x100 SWAP1 DIV PUSH1 0xFF AND ISZERO DUP1 DUP1 ISZERO PUSH2 0x2C5F JUMPI POP PUSH1 0x0 SLOAD PUSH1 0x1 PUSH1 0xFF SWAP1 SWAP2 AND LT JUMPDEST DUP1 PUSH2 0x2C79 JUMPI POP ADDRESS EXTCODESIZE ISZERO DUP1 ISZERO PUSH2 0x2C79 JUMPI POP PUSH1 0x0 SLOAD PUSH1 0xFF AND PUSH1 0x1 EQ JUMPDEST PUSH2 0x2C95 JUMPI PUSH1 0x40 MLOAD PUSH3 0x461BCD PUSH1 0xE5 SHL DUP2 MSTORE PUSH1 0x4 ADD PUSH2 0xB1A SWAP1 PUSH2 0x3A8F JUMP JUMPDEST PUSH1 0x0 DUP1 SLOAD PUSH1 0xFF NOT AND PUSH1 0x1 OR SWAP1 SSTORE DUP1 ISZERO PUSH2 0x2CB8 JUMPI PUSH1 0x0 DUP1 SLOAD PUSH2 0xFF00 NOT AND PUSH2 0x100 OR SWAP1 SSTORE JUMPDEST PUSH1 0xAF DUP1 SLOAD PUSH1 0xFF PUSH1 0xA8 SHL NOT AND PUSH1 0x1 PUSH1 0xA8 SHL OR SWAP1 SSTORE PUSH1 0xA4 SLOAD PUSH1 0x1 PUSH1 0x1 PUSH1 0xA0 SHL SUB DUP4 AND PUSH1 0x0 DUP2 DUP2 MSTORE PUSH1 0x98 PUSH1 0x20 SWAP1 DUP2 MSTORE PUSH1 0x40 DUP1 DUP4 KECCAK256 SWAP5 SWAP1 SWAP5 SSTORE ADDRESS DUP1 DUP4 MSTORE PUSH1 0x9E DUP3 MSTORE DUP5 DUP4 KECCAK256 DUP1 SLOAD PUSH1 0xFF NOT SWAP1 DUP2 AND PUSH1 0x1 SWAP1 DUP2 OR SWAP1 SWAP3 SSTORE DUP6 DUP6 MSTORE PUSH1 0x9C DUP5 MSTORE DUP7 DUP6 KECCAK256 DUP1 SLOAD DUP3 AND DUP4 OR SWAP1 SSTORE SWAP2 DUP5 MSTORE DUP6 DUP5 KECCAK256 DUP1 SLOAD DUP4 AND DUP3 OR SWAP1 SSTORE PUSH1 0x9D SWAP1 SWAP3 MSTORE DUP5 DUP4 KECCAK256 DUP1 SLOAD DUP3 AND DUP4 OR SWAP1 SSTORE SWAP3 DUP3 MSTORE SWAP3 DUP2 KECCAK256 DUP1 SLOAD DUP4 AND DUP5 OR SWAP1 SSTORE PUSH32 0xDA243F58084F19E9BB1E74B5321230A149D2328E8F59AD7243ACF97BEDB43807 DUP1 SLOAD DUP4 AND DUP5 OR SWAP1 SSTORE DUP1 MSTORE PUSH32 0xC5DC36AE4E7617E4C4D23DDFCDE33C79E9ED64C300AED766A9288A6B9B31F63D DUP1 SLOAD SWAP1 SWAP2 AND SWAP1 SWAP2 OR SWAP1 SSTORE DUP1 ISZERO PUSH2 0xF22 JUMPI PUSH1 0x0 DUP1 SLOAD PUSH2 0xFF00 NOT AND SWAP1 SSTORE PUSH1 0x40 MLOAD PUSH1 0x1 DUP2 MSTORE PUSH32 0x7F26B83FF96E1F2B6A682F133852F6798A09C465DA95921460CEFB3847402498 SWAP1 PUSH1 0x20 ADD PUSH1 0x40 MLOAD DUP1 SWAP2 SUB SWAP1 LOG1 POP POP JUMP JUMPDEST PUSH1 0x40 DUP1 MLOAD PUSH1 0x2 DUP1 DUP3 MSTORE PUSH1 0x60 DUP3 ADD DUP4 MSTORE PUSH1 0x0 SWAP3 PUSH1 0x20 DUP4 ADD SWAP1 DUP1 CALLDATASIZE DUP4 CALLDATACOPY ADD SWAP1 POP POP SWAP1 POP ADDRESS DUP2 PUSH1 0x0 DUP2 MLOAD DUP2 LT PUSH2 0x2E1A JUMPI PUSH2 0x2E1A PUSH2 0x3A21 JUMP JUMPDEST PUSH1 0x1 PUSH1 0x1 PUSH1 0xA0 SHL SUB SWAP3 DUP4 AND PUSH1 0x20 SWAP2 DUP3 MUL SWAP3 SWAP1 SWAP3 ADD DUP2 ADD SWAP2 SWAP1 SWAP2 MSTORE PUSH1 0xAC SLOAD PUSH1 0x40 DUP1 MLOAD PUSH4 0x15AB88C9 PUSH1 0xE3 SHL DUP2 MSTORE SWAP1 MLOAD SWAP2 SWAP1 SWAP4 AND SWAP3 PUSH4 0xAD5C4648 SWAP3 PUSH1 0x4 DUP1 DUP4 ADD SWAP4 SWAP2 SWAP3 DUP3 SWAP1 SUB ADD DUP2 PUSH1 0x0 DUP8 GAS CALL ISZERO DUP1 ISZERO PUSH2 0x2E75 JUMPI RETURNDATASIZE PUSH1 0x0 DUP1 RETURNDATACOPY RETURNDATASIZE PUSH1 0x0 REVERT JUMPDEST POP POP POP POP PUSH1 0x40 MLOAD RETURNDATASIZE PUSH1 0x1F NOT PUSH1 0x1F DUP3 ADD AND DUP3 ADD DUP1 PUSH1 0x40 MSTORE POP DUP2 ADD SWAP1 PUSH2 0x2E99 SWAP2 SWAP1 PUSH2 0x3DAB JUMP JUMPDEST DUP2 PUSH1 0x1 DUP2 MLOAD DUP2 LT PUSH2 0x2EAC JUMPI PUSH2 0x2EAC PUSH2 0x3A21 JUMP JUMPDEST PUSH1 0x1 PUSH1 0x1 PUSH1 0xA0 SHL SUB SWAP3 DUP4 AND PUSH1 0x20 SWAP2 DUP3 MUL SWAP3 SWAP1 SWAP3 ADD ADD MSTORE PUSH1 0xAC SLOAD PUSH2 0x2ED2 SWAP2 ADDRESS SWAP2 AND DUP5 PUSH2 0x1A0F JUMP JUMPDEST PUSH1 0xAC SLOAD PUSH1 0x40 MLOAD PUSH4 0x791AC947 PUSH1 0xE0 SHL DUP2 MSTORE PUSH1 0x1 PUSH1 0x1 PUSH1 0xA0 SHL SUB SWAP1 SWAP2 AND SWAP1 PUSH4 0x791AC947 SWAP1 PUSH2 0x2F0B SWAP1 DUP6 SWAP1 PUSH1 0x0 SWAP1 DUP7 SWAP1 ADDRESS SWAP1 TIMESTAMP SWAP1 PUSH1 0x4 ADD PUSH2 0x3DC8 JUMP JUMPDEST PUSH1 0x0 PUSH1 0x40 MLOAD DUP1 DUP4 SUB DUP2 PUSH1 0x0 DUP8 DUP1 EXTCODESIZE ISZERO DUP1 ISZERO PUSH2 0x2F25 JUMPI PUSH1 0x0 DUP1 REVERT JUMPDEST POP GAS CALL ISZERO DUP1 ISZERO PUSH2 0x2F39 JUMPI RETURNDATASIZE PUSH1 0x0 DUP1 RETURNDATACOPY RETURNDATASIZE PUSH1 0x0 REVERT JUMPDEST POP POP POP POP POP POP JUMP JUMPDEST PUSH1 0xAC SLOAD PUSH2 0x2F59 SWAP1 ADDRESS SWAP1 PUSH1 0x1 PUSH1 0x1 PUSH1 0xA0 SHL SUB AND DUP5 PUSH2 0x1A0F JUMP JUMPDEST PUSH1 0xAC SLOAD PUSH1 0x1 PUSH1 0x1 PUSH1 0xA0 SHL SUB AND PUSH4 0xF305D719 DUP3 ADDRESS DUP6 PUSH1 0x0 DUP1 PUSH2 0x2F82 PUSH1 0x33 SLOAD PUSH1 0x1 PUSH1 0x1 PUSH1 0xA0 SHL SUB AND SWAP1 JUMP JUMPDEST PUSH1 0x40 MLOAD PUSH1 0xE0 DUP9 SWAP1 SHL PUSH1 0x1 PUSH1 0x1 PUSH1 0xE0 SHL SUB NOT AND DUP2 MSTORE PUSH1 0x1 PUSH1 0x1 PUSH1 0xA0 SHL SUB SWAP6 DUP7 AND PUSH1 0x4 DUP3 ADD MSTORE PUSH1 0x24 DUP2 ADD SWAP5 SWAP1 SWAP5 MSTORE PUSH1 0x44 DUP5 ADD SWAP3 SWAP1 SWAP3 MSTORE PUSH1 0x64 DUP4 ADD MSTORE SWAP1 SWAP2 AND PUSH1 0x84 DUP3 ADD MSTORE TIMESTAMP PUSH1 0xA4 DUP3 ADD MSTORE PUSH1 0xC4 ADD PUSH1 0x60 PUSH1 0x40 MLOAD DUP1 DUP4 SUB DUP2 DUP6 DUP9 GAS CALL ISZERO DUP1 ISZERO PUSH2 0x2FEA JUMPI RETURNDATASIZE PUSH1 0x0 DUP1 RETURNDATACOPY RETURNDATASIZE PUSH1 0x0 REVERT JUMPDEST POP POP POP POP POP PUSH1 0x40 MLOAD RETURNDATASIZE PUSH1 0x1F NOT PUSH1 0x1F DUP3 ADD AND DUP3 ADD DUP1 PUSH1 0x40 MSTORE POP DUP2 ADD SWAP1 PUSH2 0x300F SWAP2 SWAP1 PUSH2 0x3E39 JUMP JUMPDEST POP POP POP POP POP JUMP JUMPDEST PUSH1 0xA6 SLOAD ISZERO DUP1 ISZERO PUSH2 0x3026 JUMPI POP PUSH1 0xA8 SLOAD ISZERO JUMPDEST DUP1 ISZERO PUSH2 0x3032 JUMPI POP PUSH1 0xAA SLOAD ISZERO JUMPDEST ISZERO PUSH2 0x3039 JUMPI JUMP JUMPDEST PUSH1 0xA6 DUP1 SLOAD PUSH1 0xA7 SSTORE PUSH1 0xA8 DUP1 SLOAD PUSH1 0xA9 SSTORE PUSH1 0xAA DUP1 SLOAD PUSH1 0xAB SSTORE PUSH1 0x0 SWAP3 DUP4 SWAP1 SSTORE SWAP1 DUP3 SWAP1 SSTORE SSTORE JUMP JUMPDEST PUSH1 0x0 DUP1 PUSH1 0x0 DUP1 PUSH1 0x0 DUP1 PUSH1 0x0 PUSH2 0x306F DUP9 PUSH2 0x1F6C JUMP JUMPDEST SWAP7 POP SWAP7 POP SWAP7 POP SWAP7 POP SWAP7 POP SWAP7 POP SWAP7 POP PUSH2 0x30B5 DUP9 PUSH1 0x99 PUSH1 0x0 DUP14 PUSH1 0x1 PUSH1 0x1 PUSH1 0xA0 SHL SUB AND PUSH1 0x1 PUSH1 0x1 PUSH1 0xA0 SHL SUB AND DUP2 MSTORE PUSH1 0x20 ADD SWAP1 DUP2 MSTORE PUSH1 0x20 ADD PUSH1 0x0 KECCAK256 SLOAD PUSH2 0x1FC7 SWAP1 SWAP2 SWAP1 PUSH4 0xFFFFFFFF AND JUMP JUMPDEST PUSH1 0x1 PUSH1 0x1 PUSH1 0xA0 SHL SUB DUP12 AND PUSH1 0x0 SWAP1 DUP2 MSTORE PUSH1 0x99 PUSH1 0x20 SWAP1 DUP2 MSTORE PUSH1 0x40 DUP1 DUP4 KECCAK256 SWAP4 SWAP1 SWAP4 SSTORE PUSH1 0x98 SWAP1 MSTORE KECCAK256 SLOAD PUSH2 0x30E4 SWAP1 DUP9 PUSH2 0x1FC7 JUMP JUMPDEST PUSH1 0x1 PUSH1 0x1 PUSH1 0xA0 SHL SUB DUP1 DUP13 AND PUSH1 0x0 SWAP1 DUP2 MSTORE PUSH1 0x98 PUSH1 0x20 MSTORE PUSH1 0x40 DUP1 DUP3 KECCAK256 SWAP4 SWAP1 SWAP4 SSTORE SWAP1 DUP12 AND DUP2 MSTORE KECCAK256 SLOAD PUSH2 0x3113 SWAP1 DUP8 PUSH2 0x1F60 JUMP JUMPDEST PUSH1 0x1 PUSH1 0x1 PUSH1 0xA0 SHL SUB DUP11 AND PUSH1 0x0 SWAP1 DUP2 MSTORE PUSH1 0x98 PUSH1 0x20 MSTORE PUSH1 0x40 SWAP1 KECCAK256 SSTORE PUSH2 0x3135 DUP3 PUSH2 0x33A1 JUMP JUMPDEST PUSH2 0x313E DUP2 PUSH2 0x342C JUMP JUMPDEST PUSH2 0x3148 DUP6 DUP5 PUSH2 0x34FF JUMP JUMPDEST DUP9 PUSH1 0x1 PUSH1 0x1 PUSH1 0xA0 SHL SUB AND DUP11 PUSH1 0x1 PUSH1 0x1 PUSH1 0xA0 SHL SUB AND PUSH1 0x0 DUP1 MLOAD PUSH1 0x20 PUSH2 0x3E90 DUP4 CODECOPY DUP2 MLOAD SWAP2 MSTORE DUP7 PUSH1 0x40 MLOAD PUSH2 0x317B SWAP2 DUP2 MSTORE PUSH1 0x20 ADD SWAP1 JUMP JUMPDEST PUSH1 0x40 MLOAD DUP1 SWAP2 SUB SWAP1 LOG3 POP POP POP POP POP POP POP POP POP POP JUMP JUMPDEST PUSH1 0x0 DUP1 PUSH1 0x0 DUP1 PUSH1 0x0 DUP1 PUSH1 0x0 PUSH2 0x31A3 DUP9 PUSH2 0x1F6C JUMP JUMPDEST SWAP7 POP SWAP7 POP SWAP7 POP SWAP7 POP SWAP7 POP SWAP7 POP SWAP7 POP PUSH2 0x31E9 DUP8 PUSH1 0x98 PUSH1 0x0 DUP14 PUSH1 0x1 PUSH1 0x1 PUSH1 0xA0 SHL SUB AND PUSH1 0x1 PUSH1 0x1 PUSH1 0xA0 SHL SUB AND DUP2 MSTORE PUSH1 0x20 ADD SWAP1 DUP2 MSTORE PUSH1 0x20 ADD PUSH1 0x0 KECCAK256 SLOAD PUSH2 0x1FC7 SWAP1 SWAP2 SWAP1 PUSH4 0xFFFFFFFF AND JUMP JUMPDEST PUSH1 0x1 PUSH1 0x1 PUSH1 0xA0 SHL SUB DUP1 DUP13 AND PUSH1 0x0 SWAP1 DUP2 MSTORE PUSH1 0x98 PUSH1 0x20 SWAP1 DUP2 MSTORE PUSH1 0x40 DUP1 DUP4 KECCAK256 SWAP5 SWAP1 SWAP5 SSTORE SWAP2 DUP13 AND DUP2 MSTORE PUSH1 0x99 SWAP1 SWAP2 MSTORE KECCAK256 SLOAD PUSH2 0x321F SWAP1 DUP6 PUSH2 0x1F60 JUMP JUMPDEST PUSH1 0x1 PUSH1 0x1 PUSH1 0xA0 SHL SUB DUP11 AND PUSH1 0x0 SWAP1 DUP2 MSTORE PUSH1 0x99 PUSH1 0x20 SWAP1 DUP2 MSTORE PUSH1 0x40 DUP1 DUP4 KECCAK256 SWAP4 SWAP1 SWAP4 SSTORE PUSH1 0x98 SWAP1 MSTORE KECCAK256 SLOAD PUSH2 0x3113 SWAP1 DUP8 PUSH2 0x1F60 JUMP JUMPDEST PUSH1 0x0 DUP1 PUSH1 0x0 DUP1 PUSH1 0x0 DUP1 PUSH1 0x0 PUSH2 0x3262 DUP9 PUSH2 0x1F6C JUMP JUMPDEST SWAP7 POP SWAP7 POP SWAP7 POP SWAP7 POP SWAP7 POP SWAP7 POP SWAP7 POP PUSH2 0x30E4 DUP8 PUSH1 0x98 PUSH1 0x0 DUP14 PUSH1 0x1 PUSH1 0x1 PUSH1 0xA0 SHL SUB AND PUSH1 0x1 PUSH1 0x1 PUSH1 0xA0 SHL SUB AND DUP2 MSTORE PUSH1 0x20 ADD SWAP1 DUP2 MSTORE PUSH1 0x20 ADD PUSH1 0x0 KECCAK256 SLOAD PUSH2 0x1FC7 SWAP1 SWAP2 SWAP1 PUSH4 0xFFFFFFFF AND JUMP JUMPDEST PUSH1 0x0 DUP1 PUSH1 0x0 DUP1 PUSH1 0x0 DUP1 PUSH1 0x0 PUSH2 0x32BC DUP9 PUSH2 0x1F6C JUMP JUMPDEST SWAP7 POP SWAP7 POP SWAP7 POP SWAP7 POP SWAP7 POP SWAP7 POP SWAP7 POP PUSH2 0x3302 DUP9 PUSH1 0x99 PUSH1 0x0 DUP14 PUSH1 0x1 PUSH1 0x1 PUSH1 0xA0 SHL SUB AND PUSH1 0x1 PUSH1 0x1 PUSH1 0xA0 SHL SUB AND DUP2 MSTORE PUSH1 0x20 ADD SWAP1 DUP2 MSTORE PUSH1 0x20 ADD PUSH1 0x0 KECCAK256 SLOAD PUSH2 0x1FC7 SWAP1 SWAP2 SWAP1 PUSH4 0xFFFFFFFF AND JUMP JUMPDEST PUSH1 0x1 PUSH1 0x1 PUSH1 0xA0 SHL SUB DUP12 AND PUSH1 0x0 SWAP1 DUP2 MSTORE PUSH1 0x99 PUSH1 0x20 SWAP1 DUP2 MSTORE PUSH1 0x40 DUP1 DUP4 KECCAK256 SWAP4 SWAP1 SWAP4 SSTORE PUSH1 0x98 SWAP1 MSTORE KECCAK256 SLOAD PUSH2 0x31E9 SWAP1 DUP9 PUSH2 0x1FC7 JUMP JUMPDEST PUSH1 0x0 PUSH2 0xBCB PUSH2 0x2710 PUSH2 0x1858 PUSH1 0xA6 SLOAD DUP6 PUSH2 0x20AF SWAP1 SWAP2 SWAP1 PUSH4 0xFFFFFFFF AND JUMP JUMPDEST PUSH1 0x0 PUSH2 0xBCB PUSH2 0x2710 PUSH2 0x1858 PUSH1 0xA8 SLOAD DUP6 PUSH2 0x20AF SWAP1 SWAP2 SWAP1 PUSH4 0xFFFFFFFF AND JUMP JUMPDEST PUSH1 0xAF SLOAD PUSH1 0x0 SWAP1 PUSH1 0x1 PUSH1 0x1 PUSH1 0xA0 SHL SUB AND PUSH2 0x3386 JUMPI POP PUSH1 0x0 SWAP2 SWAP1 POP JUMP JUMPDEST PUSH2 0xBCB PUSH2 0x2710 PUSH2 0x1858 PUSH1 0xAA SLOAD DUP6 PUSH2 0x20AF SWAP1 SWAP2 SWAP1 PUSH4 0xFFFFFFFF AND JUMP JUMPDEST PUSH1 0x0 PUSH2 0x33AB PUSH2 0x1F31 JUMP JUMPDEST SWAP1 POP PUSH1 0x0 PUSH2 0x33B9 DUP4 DUP4 PUSH2 0x20AF JUMP JUMPDEST ADDRESS PUSH1 0x0 SWAP1 DUP2 MSTORE PUSH1 0x98 PUSH1 0x20 MSTORE PUSH1 0x40 SWAP1 KECCAK256 SLOAD SWAP1 SWAP2 POP PUSH2 0x33D6 SWAP1 DUP3 PUSH2 0x1F60 JUMP JUMPDEST ADDRESS PUSH1 0x0 SWAP1 DUP2 MSTORE PUSH1 0x98 PUSH1 0x20 SWAP1 DUP2 MSTORE PUSH1 0x40 DUP1 DUP4 KECCAK256 SWAP4 SWAP1 SWAP4 SSTORE PUSH1 0x9E SWAP1 MSTORE KECCAK256 SLOAD PUSH1 0xFF AND ISZERO PUSH2 0x3425 JUMPI ADDRESS PUSH1 0x0 SWAP1 DUP2 MSTORE PUSH1 0x99 PUSH1 0x20 MSTORE PUSH1 0x40 SWAP1 KECCAK256 SLOAD PUSH2 0x3414 SWAP1 DUP5 PUSH2 0x1F60 JUMP JUMPDEST ADDRESS PUSH1 0x0 SWAP1 DUP2 MSTORE PUSH1 0x99 PUSH1 0x20 MSTORE PUSH1 0x40 SWAP1 KECCAK256 SSTORE JUMPDEST ADDRESS CALLER PUSH2 0x1383 JUMP JUMPDEST DUP1 ISZERO PUSH2 0x103D JUMPI PUSH1 0x0 PUSH2 0x343C PUSH2 0x1F31 JUMP JUMPDEST SWAP1 POP PUSH1 0x0 PUSH2 0x344A DUP4 DUP4 PUSH2 0x20AF JUMP JUMPDEST PUSH1 0xAF SLOAD PUSH1 0x1 PUSH1 0x1 PUSH1 0xA0 SHL SUB AND PUSH1 0x0 SWAP1 DUP2 MSTORE PUSH1 0x98 PUSH1 0x20 MSTORE PUSH1 0x40 SWAP1 KECCAK256 SLOAD SWAP1 SWAP2 POP PUSH2 0x3472 SWAP1 DUP3 PUSH2 0x1F60 JUMP JUMPDEST PUSH1 0xAF DUP1 SLOAD PUSH1 0x1 PUSH1 0x1 PUSH1 0xA0 SHL SUB SWAP1 DUP2 AND PUSH1 0x0 SWAP1 DUP2 MSTORE PUSH1 0x98 PUSH1 0x20 SWAP1 DUP2 MSTORE PUSH1 0x40 DUP1 DUP4 KECCAK256 SWAP6 SWAP1 SWAP6 SSTORE SWAP3 SLOAD SWAP1 SWAP2 AND DUP2 MSTORE PUSH1 0x9E SWAP1 SWAP2 MSTORE KECCAK256 SLOAD PUSH1 0xFF AND ISZERO PUSH2 0x34ED JUMPI PUSH1 0xAF SLOAD PUSH1 0x1 PUSH1 0x1 PUSH1 0xA0 SHL SUB AND PUSH1 0x0 SWAP1 DUP2 MSTORE PUSH1 0x99 PUSH1 0x20 MSTORE PUSH1 0x40 SWAP1 KECCAK256 SLOAD PUSH2 0x34D1 SWAP1 DUP5 PUSH2 0x1F60 JUMP JUMPDEST PUSH1 0xAF SLOAD PUSH1 0x1 PUSH1 0x1 PUSH1 0xA0 SHL SUB AND PUSH1 0x0 SWAP1 DUP2 MSTORE PUSH1 0x99 PUSH1 0x20 MSTORE PUSH1 0x40 SWAP1 KECCAK256 SSTORE JUMPDEST PUSH1 0xAF SLOAD PUSH1 0x1 PUSH1 0x1 PUSH1 0xA0 SHL SUB AND CALLER PUSH2 0x1383 JUMP JUMPDEST PUSH1 0xA4 SLOAD PUSH2 0x350C SWAP1 DUP4 PUSH2 0x1FC7 JUMP JUMPDEST PUSH1 0xA4 SSTORE PUSH1 0xA5 SLOAD PUSH2 0x351C SWAP1 DUP3 PUSH2 0x1F60 JUMP JUMPDEST PUSH1 0xA5 SSTORE ADDRESS PUSH1 0x0 SWAP1 DUP2 MSTORE PUSH1 0x9E PUSH1 0x20 MSTORE PUSH1 0x40 SWAP1 KECCAK256 SLOAD PUSH1 0xFF AND ISZERO PUSH2 0x3562 JUMPI ADDRESS PUSH1 0x0 SWAP1 DUP2 MSTORE PUSH1 0x99 PUSH1 0x20 MSTORE PUSH1 0x40 SWAP1 KECCAK256 SLOAD PUSH2 0x3551 SWAP1 DUP3 PUSH2 0x1F60 JUMP JUMPDEST ADDRESS PUSH1 0x0 SWAP1 DUP2 MSTORE PUSH1 0x99 PUSH1 0x20 MSTORE PUSH1 0x40 SWAP1 KECCAK256 SSTORE JUMPDEST PUSH1 0x40 MLOAD DUP2 DUP2 MSTORE ADDRESS SWAP1 CALLER SWAP1 PUSH1 0x0 DUP1 MLOAD PUSH1 0x20 PUSH2 0x3E90 DUP4 CODECOPY DUP2 MLOAD SWAP2 MSTORE SWAP1 PUSH1 0x20 ADD PUSH1 0x40 MLOAD DUP1 SWAP2 SUB SWAP1 LOG3 POP POP JUMP JUMPDEST PUSH1 0x0 PUSH1 0x20 DUP3 DUP5 SUB SLT ISZERO PUSH2 0x359D JUMPI PUSH1 0x0 DUP1 REVERT JUMPDEST POP CALLDATALOAD SWAP2 SWAP1 POP JUMP JUMPDEST PUSH1 0x0 PUSH1 0x20 DUP1 DUP4 MSTORE DUP4 MLOAD DUP1 DUP3 DUP6 ADD MSTORE PUSH1 0x0 JUMPDEST DUP2 DUP2 LT ISZERO PUSH2 0x35D1 JUMPI DUP6 DUP2 ADD DUP4 ADD MLOAD DUP6 DUP3 ADD PUSH1 0x40 ADD MSTORE DUP3 ADD PUSH2 0x35B5 JUMP JUMPDEST POP PUSH1 0x0 PUSH1 0x40 DUP3 DUP7 ADD ADD MSTORE PUSH1 0x40 PUSH1 0x1F NOT PUSH1 0x1F DUP4 ADD AND DUP6 ADD ADD SWAP3 POP POP POP SWAP3 SWAP2 POP POP JUMP JUMPDEST PUSH1 0x1 PUSH1 0x1 PUSH1 0xA0 SHL SUB DUP2 AND DUP2 EQ PUSH2 0x103D JUMPI PUSH1 0x0 DUP1 REVERT JUMPDEST DUP1 CALLDATALOAD PUSH2 0x3612 DUP2 PUSH2 0x35F2 JUMP JUMPDEST SWAP2 SWAP1 POP JUMP JUMPDEST PUSH1 0x0 DUP1 PUSH1 0x40 DUP4 DUP6 SUB SLT ISZERO PUSH2 0x362A JUMPI PUSH1 0x0 DUP1 REVERT JUMPDEST DUP3 CALLDATALOAD PUSH2 0x3635 DUP2 PUSH2 0x35F2 JUMP JUMPDEST SWAP5 PUSH1 0x20 SWAP4 SWAP1 SWAP4 ADD CALLDATALOAD SWAP4 POP POP POP JUMP JUMPDEST DUP1 CALLDATALOAD DUP1 ISZERO ISZERO DUP2 EQ PUSH2 0x3612 JUMPI PUSH1 0x0 DUP1 REVERT JUMPDEST PUSH1 0x0 PUSH1 0x20 DUP3 DUP5 SUB SLT ISZERO PUSH2 0x3665 JUMPI PUSH1 0x0 DUP1 REVERT JUMPDEST PUSH2 0xD55 DUP3 PUSH2 0x3643 JUMP JUMPDEST PUSH1 0x0 PUSH1 0x20 DUP3 DUP5 SUB SLT ISZERO PUSH2 0x3680 JUMPI PUSH1 0x0 DUP1 REVERT JUMPDEST DUP2 CALLDATALOAD PUSH2 0xD55 DUP2 PUSH2 0x35F2 JUMP JUMPDEST PUSH1 0x0 DUP1 PUSH1 0x0 PUSH1 0x60 DUP5 DUP7 SUB SLT ISZERO PUSH2 0x36A0 JUMPI PUSH1 0x0 DUP1 REVERT JUMPDEST DUP4 CALLDATALOAD PUSH2 0x36AB DUP2 PUSH2 0x35F2 JUMP JUMPDEST SWAP3 POP PUSH1 0x20 DUP5 ADD CALLDATALOAD PUSH2 0x36BB DUP2 PUSH2 0x35F2 JUMP JUMPDEST SWAP3 SWAP6 SWAP3 SWAP5 POP POP POP PUSH1 0x40 SWAP2 SWAP1 SWAP2 ADD CALLDATALOAD SWAP1 JUMP JUMPDEST PUSH1 0x0 DUP1 PUSH1 0x40 DUP4 DUP6 SUB SLT ISZERO PUSH2 0x36DF JUMPI PUSH1 0x0 DUP1 REVERT JUMPDEST DUP3 CALLDATALOAD PUSH2 0x36EA DUP2 PUSH2 0x35F2 JUMP JUMPDEST SWAP2 POP PUSH1 0x20 DUP4 ADD CALLDATALOAD PUSH2 0x36FA DUP2 PUSH2 0x35F2 JUMP JUMPDEST DUP1 SWAP2 POP POP SWAP3 POP SWAP3 SWAP1 POP JUMP JUMPDEST PUSH1 0x0 DUP1 PUSH1 0x40 DUP4 DUP6 SUB SLT ISZERO PUSH2 0x3718 JUMPI PUSH1 0x0 DUP1 REVERT JUMPDEST DUP3 CALLDATALOAD SWAP2 POP PUSH2 0x3728 PUSH1 0x20 DUP5 ADD PUSH2 0x3643 JUMP JUMPDEST SWAP1 POP SWAP3 POP SWAP3 SWAP1 POP JUMP JUMPDEST PUSH1 0x0 DUP1 PUSH1 0x40 DUP4 DUP6 SUB SLT ISZERO PUSH2 0x3744 JUMPI PUSH1 0x0 DUP1 REVERT JUMPDEST DUP3 CALLDATALOAD PUSH2 0x374F DUP2 PUSH2 0x35F2 JUMP JUMPDEST SWAP2 POP PUSH2 0x3728 PUSH1 0x20 DUP5 ADD PUSH2 0x3643 JUMP JUMPDEST PUSH4 0x4E487B71 PUSH1 0xE0 SHL PUSH1 0x0 MSTORE PUSH1 0x41 PUSH1 0x4 MSTORE PUSH1 0x24 PUSH1 0x0 REVERT JUMPDEST PUSH1 0x0 DUP3 PUSH1 0x1F DUP4 ADD SLT PUSH2 0x3784 JUMPI PUSH1 0x0 DUP1 REVERT JUMPDEST DUP2 CALLDATALOAD PUSH8 0xFFFFFFFFFFFFFFFF DUP1 DUP3 GT ISZERO PUSH2 0x379F JUMPI PUSH2 0x379F PUSH2 0x375D JUMP JUMPDEST PUSH1 0x40 MLOAD PUSH1 0x1F DUP4 ADD PUSH1 0x1F NOT SWAP1 DUP2 AND PUSH1 0x3F ADD AND DUP2 ADD SWAP1 DUP3 DUP3 GT DUP2 DUP4 LT OR ISZERO PUSH2 0x37C7 JUMPI PUSH2 0x37C7 PUSH2 0x375D JUMP JUMPDEST DUP2 PUSH1 0x40 MSTORE DUP4 DUP2 MSTORE DUP7 PUSH1 0x20 DUP6 DUP9 ADD ADD GT ISZERO PUSH2 0x37E0 JUMPI PUSH1 0x0 DUP1 REVERT JUMPDEST DUP4 PUSH1 0x20 DUP8 ADD PUSH1 0x20 DUP4 ADD CALLDATACOPY PUSH1 0x0 PUSH1 0x20 DUP6 DUP4 ADD ADD MSTORE DUP1 SWAP5 POP POP POP POP POP SWAP3 SWAP2 POP POP JUMP JUMPDEST DUP1 CALLDATALOAD PUSH2 0xFFFF DUP2 AND DUP2 EQ PUSH2 0x3612 JUMPI PUSH1 0x0 DUP1 REVERT JUMPDEST PUSH1 0x0 DUP3 PUSH1 0x1F DUP4 ADD SLT PUSH2 0x3823 JUMPI PUSH1 0x0 DUP1 REVERT JUMPDEST PUSH1 0x40 MLOAD PUSH1 0x40 DUP2 ADD DUP2 DUP2 LT PUSH8 0xFFFFFFFFFFFFFFFF DUP3 GT OR ISZERO PUSH2 0x3846 JUMPI PUSH2 0x3846 PUSH2 0x375D JUMP JUMPDEST DUP1 PUSH1 0x40 MSTORE POP DUP1 PUSH1 0x40 DUP5 ADD DUP6 DUP2 GT ISZERO PUSH2 0x385D JUMPI PUSH1 0x0 DUP1 REVERT JUMPDEST DUP5 JUMPDEST DUP2 DUP2 LT ISZERO PUSH2 0x3880 JUMPI DUP1 CALLDATALOAD PUSH2 0x3872 DUP2 PUSH2 0x35F2 JUMP JUMPDEST DUP4 MSTORE PUSH1 0x20 SWAP3 DUP4 ADD SWAP3 ADD PUSH2 0x385F JUMP JUMPDEST POP SWAP2 SWAP6 SWAP5 POP POP POP POP POP JUMP JUMPDEST PUSH1 0x0 DUP1 PUSH1 0x0 DUP1 PUSH1 0x0 DUP1 PUSH1 0x0 DUP1 PUSH1 0x0 DUP1 PUSH1 0x0 PUSH2 0x180 DUP13 DUP15 SUB SLT ISZERO PUSH2 0x38AD JUMPI PUSH1 0x0 DUP1 REVERT JUMPDEST PUSH2 0x38B6 DUP13 PUSH2 0x3607 JUMP JUMPDEST SWAP11 POP PUSH8 0xFFFFFFFFFFFFFFFF DUP1 PUSH1 0x20 DUP15 ADD CALLDATALOAD GT ISZERO PUSH2 0x38D2 JUMPI PUSH1 0x0 DUP1 REVERT JUMPDEST PUSH2 0x38E2 DUP15 PUSH1 0x20 DUP16 ADD CALLDATALOAD DUP16 ADD PUSH2 0x3773 JUMP JUMPDEST SWAP11 POP DUP1 PUSH1 0x40 DUP15 ADD CALLDATALOAD GT ISZERO PUSH2 0x38F5 JUMPI PUSH1 0x0 DUP1 REVERT JUMPDEST POP PUSH2 0x3906 DUP14 PUSH1 0x40 DUP15 ADD CALLDATALOAD DUP15 ADD PUSH2 0x3773 JUMP JUMPDEST SWAP9 POP PUSH1 0x60 DUP13 ADD CALLDATALOAD SWAP8 POP PUSH2 0x391B PUSH1 0x80 DUP14 ADD PUSH2 0x3607 JUMP JUMPDEST SWAP7 POP PUSH2 0x3929 PUSH1 0xA0 DUP14 ADD PUSH2 0x3800 JUMP JUMPDEST SWAP6 POP PUSH2 0x3937 PUSH1 0xC0 DUP14 ADD PUSH2 0x3800 JUMP JUMPDEST SWAP5 POP PUSH2 0x3945 PUSH1 0xE0 DUP14 ADD PUSH2 0x3800 JUMP JUMPDEST SWAP4 POP PUSH2 0x3954 PUSH2 0x100 DUP14 ADD PUSH2 0x3800 JUMP JUMPDEST SWAP3 POP PUSH2 0x3964 DUP14 PUSH2 0x120 DUP15 ADD PUSH2 0x3812 JUMP JUMPDEST SWAP2 POP PUSH2 0x3973 PUSH2 0x160 DUP14 ADD PUSH2 0x3607 JUMP JUMPDEST SWAP1 POP SWAP3 SWAP6 SWAP9 SWAP12 POP SWAP3 SWAP6 SWAP9 SWAP12 SWAP1 SWAP4 SWAP7 SWAP10 POP JUMP JUMPDEST PUSH1 0x0 PUSH1 0x20 DUP3 DUP5 SUB SLT ISZERO PUSH2 0x3997 JUMPI PUSH1 0x0 DUP1 REVERT JUMPDEST DUP2 CALLDATALOAD PUSH8 0xFFFFFFFFFFFFFFFF DUP2 GT ISZERO PUSH2 0x39AE JUMPI PUSH1 0x0 DUP1 REVERT JUMPDEST PUSH2 0x39BA DUP5 DUP3 DUP6 ADD PUSH2 0x3773 JUMP JUMPDEST SWAP5 SWAP4 POP POP POP POP JUMP JUMPDEST PUSH1 0x20 DUP1 DUP3 MSTORE PUSH1 0xB SWAP1 DUP3 ADD MSTORE PUSH11 0x496E76616C696420627073 PUSH1 0xA8 SHL PUSH1 0x40 DUP3 ADD MSTORE PUSH1 0x60 ADD SWAP1 JUMP JUMPDEST PUSH1 0x1 DUP2 DUP2 SHR SWAP1 DUP3 AND DUP1 PUSH2 0x39FB JUMPI PUSH1 0x7F DUP3 AND SWAP2 POP JUMPDEST PUSH1 0x20 DUP3 LT DUP2 SUB PUSH2 0x3A1B JUMPI PUSH4 0x4E487B71 PUSH1 0xE0 SHL PUSH1 0x0 MSTORE PUSH1 0x22 PUSH1 0x4 MSTORE PUSH1 0x24 PUSH1 0x0 REVERT JUMPDEST POP SWAP2 SWAP1 POP JUMP JUMPDEST PUSH4 0x4E487B71 PUSH1 0xE0 SHL PUSH1 0x0 MSTORE PUSH1 0x32 PUSH1 0x4 MSTORE PUSH1 0x24 PUSH1 0x0 REVERT JUMPDEST PUSH4 0x4E487B71 PUSH1 0xE0 SHL PUSH1 0x0 MSTORE PUSH1 0x11 PUSH1 0x4 MSTORE PUSH1 0x24 PUSH1 0x0 REVERT JUMPDEST DUP2 DUP2 SUB DUP2 DUP2 GT ISZERO PUSH2 0xBCB JUMPI PUSH2 0xBCB PUSH2 0x3A37 JUMP JUMPDEST PUSH4 0x4E487B71 PUSH1 0xE0 SHL PUSH1 0x0 MSTORE PUSH1 0x31 PUSH1 0x4 MSTORE PUSH1 0x24 PUSH1 0x0 REVERT JUMPDEST PUSH1 0x0 PUSH1 0x1 DUP3 ADD PUSH2 0x3A88 JUMPI PUSH2 0x3A88 PUSH2 0x3A37 JUMP JUMPDEST POP PUSH1 0x1 ADD SWAP1 JUMP JUMPDEST PUSH1 0x20 DUP1 DUP3 MSTORE PUSH1 0x2E SWAP1 DUP3 ADD MSTORE PUSH32 0x496E697469616C697A61626C653A20636F6E747261637420697320616C726561 PUSH1 0x40 DUP3 ADD MSTORE PUSH14 0x191E481A5B9A5D1A585B1A5E9959 PUSH1 0x92 SHL PUSH1 0x60 DUP3 ADD MSTORE PUSH1 0x80 ADD SWAP1 JUMP JUMPDEST PUSH1 0x1F DUP3 GT ISZERO PUSH2 0x15A9 JUMPI PUSH1 0x0 DUP2 DUP2 MSTORE PUSH1 0x20 DUP2 KECCAK256 PUSH1 0x1F DUP6 ADD PUSH1 0x5 SHR DUP2 ADD PUSH1 0x20 DUP7 LT ISZERO PUSH2 0x3B04 JUMPI POP DUP1 JUMPDEST PUSH1 0x1F DUP6 ADD PUSH1 0x5 SHR DUP3 ADD SWAP2 POP JUMPDEST DUP2 DUP2 LT ISZERO PUSH2 0x2F39 JUMPI DUP3 DUP2 SSTORE PUSH1 0x1 ADD PUSH2 0x3B10 JUMP JUMPDEST DUP2 MLOAD PUSH8 0xFFFFFFFFFFFFFFFF DUP2 GT ISZERO PUSH2 0x3B3D JUMPI PUSH2 0x3B3D PUSH2 0x375D JUMP JUMPDEST PUSH2 0x3B51 DUP2 PUSH2 0x3B4B DUP5 SLOAD PUSH2 0x39E7 JUMP JUMPDEST DUP5 PUSH2 0x3ADD JUMP JUMPDEST PUSH1 0x20 DUP1 PUSH1 0x1F DUP4 GT PUSH1 0x1 DUP2 EQ PUSH2 0x3B86 JUMPI PUSH1 0x0 DUP5 ISZERO PUSH2 0x3B6E JUMPI POP DUP6 DUP4 ADD MLOAD JUMPDEST PUSH1 0x0 NOT PUSH1 0x3 DUP7 SWAP1 SHL SHR NOT AND PUSH1 0x1 DUP6 SWAP1 SHL OR DUP6 SSTORE PUSH2 0x2F39 JUMP JUMPDEST PUSH1 0x0 DUP6 DUP2 MSTORE PUSH1 0x20 DUP2 KECCAK256 PUSH1 0x1F NOT DUP7 AND SWAP2 JUMPDEST DUP3 DUP2 LT ISZERO PUSH2 0x3BB5 JUMPI DUP9 DUP7 ADD MLOAD DUP3 SSTORE SWAP5 DUP5 ADD SWAP5 PUSH1 0x1 SWAP1 SWAP2 ADD SWAP1 DUP5 ADD PUSH2 0x3B96 JUMP JUMPDEST POP DUP6 DUP3 LT ISZERO PUSH2 0x3BD3 JUMPI DUP8 DUP6 ADD MLOAD PUSH1 0x0 NOT PUSH1 0x3 DUP9 SWAP1 SHL PUSH1 0xF8 AND SHR NOT AND DUP2 SSTORE JUMPDEST POP POP POP POP POP PUSH1 0x1 SWAP1 DUP2 SHL ADD SWAP1 SSTORE POP JUMP JUMPDEST DUP1 DUP3 ADD DUP1 DUP3 GT ISZERO PUSH2 0xBCB JUMPI PUSH2 0xBCB PUSH2 0x3A37 JUMP JUMPDEST PUSH4 0x4E487B71 PUSH1 0xE0 SHL PUSH1 0x0 MSTORE PUSH1 0x12 PUSH1 0x4 MSTORE PUSH1 0x24 PUSH1 0x0 REVERT JUMPDEST PUSH1 0x0 DUP3 PUSH2 0x3C1B JUMPI PUSH2 0x3C1B PUSH2 0x3BF6 JUMP JUMPDEST POP DIV SWAP1 JUMP JUMPDEST DUP1 DUP3 MUL DUP2 ISZERO DUP3 DUP3 DIV DUP5 EQ OR PUSH2 0xBCB JUMPI PUSH2 0xBCB PUSH2 0x3A37 JUMP JUMPDEST PUSH1 0x20 DUP1 DUP3 MSTORE PUSH1 0x2B SWAP1 DUP3 ADD MSTORE PUSH32 0x496E697469616C697A61626C653A20636F6E7472616374206973206E6F742069 PUSH1 0x40 DUP3 ADD MSTORE PUSH11 0x6E697469616C697A696E67 PUSH1 0xA8 SHL PUSH1 0x60 DUP3 ADD MSTORE PUSH1 0x80 ADD SWAP1 JUMP JUMPDEST PUSH2 0xFFFF DUP2 DUP2 AND DUP4 DUP3 AND ADD SWAP1 DUP1 DUP3 GT ISZERO PUSH2 0x3C9D JUMPI PUSH2 0x3C9D PUSH2 0x3A37 JUMP JUMPDEST POP SWAP3 SWAP2 POP POP JUMP JUMPDEST PUSH1 0x1 DUP2 DUP2 JUMPDEST DUP1 DUP6 GT ISZERO PUSH2 0x3CDF JUMPI DUP2 PUSH1 0x0 NOT DIV DUP3 GT ISZERO PUSH2 0x3CC5 JUMPI PUSH2 0x3CC5 PUSH2 0x3A37 JUMP JUMPDEST DUP1 DUP6 AND ISZERO PUSH2 0x3CD2 JUMPI SWAP2 DUP2 MUL SWAP2 JUMPDEST SWAP4 DUP5 SHR SWAP4 SWAP1 DUP1 MUL SWAP1 PUSH2 0x3CA9 JUMP JUMPDEST POP SWAP3 POP SWAP3 SWAP1 POP JUMP JUMPDEST PUSH1 0x0 DUP3 PUSH2 0x3CF6 JUMPI POP PUSH1 0x1 PUSH2 0xBCB JUMP JUMPDEST DUP2 PUSH2 0x3D03 JUMPI POP PUSH1 0x0 PUSH2 0xBCB JUMP JUMPDEST DUP2 PUSH1 0x1 DUP2 EQ PUSH2 0x3D19 JUMPI PUSH1 0x2 DUP2 EQ PUSH2 0x3D23 JUMPI PUSH2 0x3D3F JUMP JUMPDEST PUSH1 0x1 SWAP2 POP POP PUSH2 0xBCB JUMP JUMPDEST PUSH1 0xFF DUP5 GT ISZERO PUSH2 0x3D34 JUMPI PUSH2 0x3D34 PUSH2 0x3A37 JUMP JUMPDEST POP POP PUSH1 0x1 DUP3 SHL PUSH2 0xBCB JUMP JUMPDEST POP PUSH1 0x20 DUP4 LT PUSH2 0x133 DUP4 LT AND PUSH1 0x4E DUP5 LT PUSH1 0xB DUP5 LT AND OR ISZERO PUSH2 0x3D62 JUMPI POP DUP2 DUP2 EXP PUSH2 0xBCB JUMP JUMPDEST PUSH2 0x3D6C DUP4 DUP4 PUSH2 0x3CA4 JUMP JUMPDEST DUP1 PUSH1 0x0 NOT DIV DUP3 GT ISZERO PUSH2 0x3D80 JUMPI PUSH2 0x3D80 PUSH2 0x3A37 JUMP JUMPDEST MUL SWAP4 SWAP3 POP POP POP JUMP JUMPDEST PUSH1 0x0 PUSH2 0xD55 PUSH1 0xFF DUP5 AND DUP4 PUSH2 0x3CE7 JUMP JUMPDEST PUSH1 0x0 DUP3 PUSH2 0x3DA6 JUMPI PUSH2 0x3DA6 PUSH2 0x3BF6 JUMP JUMPDEST POP MOD SWAP1 JUMP JUMPDEST PUSH1 0x0 PUSH1 0x20 DUP3 DUP5 SUB SLT ISZERO PUSH2 0x3DBD JUMPI PUSH1 0x0 DUP1 REVERT JUMPDEST DUP2 MLOAD PUSH2 0xD55 DUP2 PUSH2 0x35F2 JUMP JUMPDEST PUSH1 0x0 PUSH1 0xA0 DUP3 ADD DUP8 DUP4 MSTORE PUSH1 0x20 DUP8 DUP2 DUP6 ADD MSTORE PUSH1 0xA0 PUSH1 0x40 DUP6 ADD MSTORE DUP2 DUP8 MLOAD DUP1 DUP5 MSTORE PUSH1 0xC0 DUP7 ADD SWAP2 POP DUP3 DUP10 ADD SWAP4 POP PUSH1 0x0 JUMPDEST DUP2 DUP2 LT ISZERO PUSH2 0x3E18 JUMPI DUP5 MLOAD PUSH1 0x1 PUSH1 0x1 PUSH1 0xA0 SHL SUB AND DUP4 MSTORE SWAP4 DUP4 ADD SWAP4 SWAP2 DUP4 ADD SWAP2 PUSH1 0x1 ADD PUSH2 0x3DF3 JUMP JUMPDEST POP POP PUSH1 0x1 PUSH1 0x1 PUSH1 0xA0 SHL SUB SWAP7 SWAP1 SWAP7 AND PUSH1 0x60 DUP6 ADD MSTORE POP POP POP PUSH1 0x80 ADD MSTORE SWAP4 SWAP3 POP POP POP JUMP JUMPDEST PUSH1 0x0 DUP1 PUSH1 0x0 PUSH1 0x60 DUP5 DUP7 SUB SLT ISZERO PUSH2 0x3E4E JUMPI PUSH1 0x0 DUP1 REVERT JUMPDEST DUP4 MLOAD SWAP3 POP PUSH1 0x20 DUP5 ADD MLOAD SWAP2 POP PUSH1 0x40 DUP5 ADD MLOAD SWAP1 POP SWAP3 POP SWAP3 POP SWAP3 JUMP INVALID GASLIMIT MSTORE NUMBER ORIGIN ADDRESS GASPRICE KECCAK256 PUSH21 0x72616E7366657220616D6F756E7420657863656564 PUSH20 0x20616C6C6F77616E6365DDF252AD1BE2C89B69C2 0xB0 PUSH9 0xFC378DAA952BA7F163 0xC4 LOG1 AND 0x28 CREATE2 GAS 0x4D CREATE2 0x23 0xB3 0xEF GASLIMIT MSTORE NUMBER ORIGIN ADDRESS GASPRICE KECCAK256 PUSH5 0x6563726561 PUSH20 0x656420616C6C6F77616E63652062656C6F77207A PUSH6 0x726FA2646970 PUSH7 0x7358221220894D 0xA5 0xD0 RETURNDATASIZE COINBASE 0xBD PUSH10 0x7E42B3C69D3D52E5BD62 PUSH31 0x31E891D6AF558134368F68A7B164736F6C6343000811003300000000000000 "
		},
		"gasEstimates": {
			"creation": {
				"codeDepositCost": "3227600",
				"executionCost": "3579",
				"totalCost": "3231179"
			},
			"external": {
				"VERSION()": "infinite",
				"_liquidityFee()": "2386",
				"_marketingAddress()": "2404",
				"_marketingFee()": "2430",
				"_maxTxAmount()": "2363",
				"_supportAddress()": "2406",
				"_taxFee()": "2363",
				"allowance(address,address)": "infinite",
				"antiBot()": "2427",
				"approve(address,uint256)": "24717",
				"balanceOf(address)": "infinite",
				"burn(uint256)": "infinite",
				"burnFrom(address,uint256)": "infinite",
				"decimals()": "2401",
				"decreaseAllowance(address,uint256)": "infinite",
				"deliver(uint256)": "infinite",
				"enableAntiBot()": "2440",
				"excludeFromFee(address)": "26902",
				"excludeFromReward(address)": "infinite",
				"includeInFee(address)": "26850",
				"includeInReward(address)": "infinite",
				"increaseAllowance(address,uint256)": "infinite",
				"initialize(address,string,string,uint256,address,uint16,uint16,uint16,uint16,address[2],address)": "infinite",
				"isExcludedFromFee(address)": "2632",
				"isExcludedFromMaxTx(address)": "2676",
				"isExcludedFromReward(address)": "2610",
				"isSuspended(address)": "7077",
				"mint(uint256)": "infinite",
				"name()": "infinite",
				"owner()": "2420",
				"pancakePair()": "2426",
				"pancakeRouter()": "2448",
				"recallTax()": "infinite",
				"recallTo(address,uint256)": "infinite",
				"reflectOf(address)": "2643",
				"reflectionFromToken(uint256,bool)": "infinite",
				"renounceOwnership()": "infinite",
				"setAntiBot(address)": "26797",
				"setEnableAntiBot(bool)": "26832",
				"setExcludeFromMaxTx(address,bool)": "26993",
				"setLiquidityFeePercent(uint256)": "24625",
				"setMarketingFeePercent(uint256)": "24604",
				"setMaxTxPercent(uint256)": "infinite",
				"setSupportAccounts(address,address)": "infinite",
				"setSwapAndLiquifyEnabled(bool)": "27926",
				"setTaxFeePercent(uint256)": "24584",
				"setVersion(string)": "infinite",
				"suspend(address,uint256)": "24785",
				"swapAndLiquifyEnabled()": "2439",
				"symbol()": "infinite",
				"tokenFromReflection(uint256)": "infinite",
				"totalFees()": "2350",
				"totalSupply()": "2383",
				"transfer(address,uint256)": "infinite",
				"transferFrom(address,address,uint256)": "infinite",
				"transferOwnership(address)": "infinite"
			},
			"internal": {
				"__SandBox_init(address,string memory,string memory,uint256,address,uint16,uint16,uint16,uint16,address[2] memory,address)": "infinite",
				"_afterTokenTransfer(address,address,uint256)": "infinite",
				"_approve(address,address,uint256)": "infinite",
				"_beforeTokenTransfer(address,address,uint256)": "infinite",
				"_burn(address,uint256)": "infinite",
				"_getCurrentSupply()": "infinite",
				"_getRValues(uint256,uint256,uint256,uint256,uint256)": "infinite",
				"_getRate()": "infinite",
				"_getTValues(uint256)": "infinite",
				"_getValues(uint256)": "infinite",
				"_reflectFee(uint256,uint256)": "infinite",
				"_takeLiquidity(uint256)": "infinite",
				"_takeMarketingFee(uint256)": "infinite",
				"_tokenTransfer(address,address,uint256,bool)": "infinite",
				"_transfer(address,address,uint256)": "infinite",
				"_transferBothExcluded(address,address,uint256)": "infinite",
				"_transferFromExcluded(address,address,uint256)": "infinite",
				"_transferStandard(address,address,uint256)": "infinite",
				"_transferToExcluded(address,address,uint256)": "infinite",
				"addLiquidity(uint256,uint256)": "infinite",
				"calcLiquidityFee(uint256)": "infinite",
				"calcMarketingFee(uint256)": "infinite",
				"calcTaxFee(uint256)": "infinite",
				"initVars(address)": "infinite",
				"removeAllFee()": "94036",
				"restoreAllFee()": "infinite",
				"swapAndLiquify(uint256)": "infinite",
				"swapTokensForEth(uint256)": "infinite"
			}
		},
		"methodIdentifiers": {
			"VERSION()": "ffa1ad74",
			"_liquidityFee()": "6bc87c3a",
			"_marketingAddress()": "caac7934",
			"_marketingFee()": "22976e0d",
			"_maxTxAmount()": "7d1db4a5",
			"_supportAddress()": "363becf6",
			"_taxFee()": "3b124fe7",
			"allowance(address,address)": "dd62ed3e",
			"antiBot()": "7dfcbe34",
			"approve(address,uint256)": "095ea7b3",
			"balanceOf(address)": "70a08231",
			"burn(uint256)": "42966c68",
			"burnFrom(address,uint256)": "79cc6790",
			"decimals()": "313ce567",
			"decreaseAllowance(address,uint256)": "a457c2d7",
			"deliver(uint256)": "3bd5d173",
			"enableAntiBot()": "241ec3be",
			"excludeFromFee(address)": "437823ec",
			"excludeFromReward(address)": "52390c02",
			"includeInFee(address)": "ea2f0b37",
			"includeInReward(address)": "3685d419",
			"increaseAllowance(address,uint256)": "39509351",
			"initialize(address,string,string,uint256,address,uint16,uint16,uint16,uint16,address[2],address)": "6f085bab",
			"isExcludedFromFee(address)": "5342acb4",
			"isExcludedFromMaxTx(address)": "658c27a9",
			"isExcludedFromReward(address)": "88f82020",
			"isSuspended(address)": "232e0e9a",
			"mint(uint256)": "a0712d68",
			"name()": "06fdde03",
			"owner()": "8da5cb5b",
			"pancakePair()": "b8c9d25c",
			"pancakeRouter()": "c21ebd07",
			"recallTax()": "6b02427a",
			"recallTo(address,uint256)": "a53691ac",
			"reflectOf(address)": "879ae369",
			"reflectionFromToken(uint256,bool)": "4549b039",
			"renounceOwnership()": "715018a6",
			"setAntiBot(address)": "2d1343f3",
			"setEnableAntiBot(bool)": "1f46b1c6",
			"setExcludeFromMaxTx(address,bool)": "5b89029c",
			"setLiquidityFeePercent(uint256)": "8ee88c53",
			"setMarketingFeePercent(uint256)": "457c194c",
			"setMaxTxPercent(uint256)": "d543dbeb",
			"setSupportAccounts(address,address)": "31a2d7c3",
			"setSwapAndLiquifyEnabled(bool)": "c49b9a80",
			"setTaxFeePercent(uint256)": "061c82d0",
			"setVersion(string)": "788bc78c",
			"suspend(address,uint256)": "dc67f167",
			"swapAndLiquifyEnabled()": "4a74bb02",
			"symbol()": "95d89b41",
			"tokenFromReflection(uint256)": "2d838119",
			"totalFees()": "13114a9d",
			"totalSupply()": "18160ddd",
			"transfer(address,uint256)": "a9059cbb",
			"transferFrom(address,address,uint256)": "23b872dd",
			"transferOwnership(address)": "f2fde38b"
		}
	},
	"abi": [
		{
			"anonymous": false,
			"inputs": [
				{
					"indexed": true,
					"internalType": "address",
					"name": "owner",
					"type": "address"
				},
				{
					"indexed": true,
					"internalType": "address",
					"name": "spender",
					"type": "address"
				},
				{
					"indexed": false,
					"internalType": "uint256",
					"name": "value",
					"type": "uint256"
				}
			],
			"name": "Approval",
			"type": "event"
		},
		{
			"anonymous": false,
			"inputs": [
				{
					"indexed": false,
					"internalType": "uint8",
					"name": "version",
					"type": "uint8"
				}
			],
			"name": "Initialized",
			"type": "event"
		},
		{
			"anonymous": false,
			"inputs": [
				{
					"indexed": false,
					"internalType": "uint256",
					"name": "minTokensBeforeSwap",
					"type": "uint256"
				}
			],
			"name": "MinTokensBeforeSwapUpdated",
			"type": "event"
		},
		{
			"anonymous": false,
			"inputs": [
				{
					"indexed": true,
					"internalType": "address",
					"name": "previousOwner",
					"type": "address"
				},
				{
					"indexed": true,
					"internalType": "address",
					"name": "newOwner",
					"type": "address"
				}
			],
			"name": "OwnershipTransferred",
			"type": "event"
		},
		{
			"anonymous": false,
			"inputs": [
				{
					"indexed": false,
					"internalType": "uint256",
					"name": "tokensSwapped",
					"type": "uint256"
				},
				{
					"indexed": false,
					"internalType": "uint256",
					"name": "bnbReceived",
					"type": "uint256"
				},
				{
					"indexed": false,
					"internalType": "uint256",
					"name": "tokensIntoLiqudity",
					"type": "uint256"
				}
			],
			"name": "SwapAndLiquify",
			"type": "event"
		},
		{
			"anonymous": false,
			"inputs": [
				{
					"indexed": false,
					"internalType": "bool",
					"name": "enabled",
					"type": "bool"
				}
			],
			"name": "SwapAndLiquifyEnabledUpdated",
			"type": "event"
		},
		{
			"anonymous": false,
			"inputs": [
				{
					"indexed": true,
					"internalType": "address",
					"name": "from",
					"type": "address"
				},
				{
					"indexed": true,
					"internalType": "address",
					"name": "to",
					"type": "address"
				},
				{
					"indexed": false,
					"internalType": "uint256",
					"name": "value",
					"type": "uint256"
				}
			],
			"name": "Transfer",
			"type": "event"
		},
		{
			"inputs": [],
			"name": "VERSION",
			"outputs": [
				{
					"internalType": "string",
					"name": "",
					"type": "string"
				}
			],
			"stateMutability": "view",
			"type": "function"
		},
		{
			"inputs": [],
			"name": "_liquidityFee",
			"outputs": [
				{
					"internalType": "uint256",
					"name": "",
					"type": "uint256"
				}
			],
			"stateMutability": "view",
			"type": "function"
		},
		{
			"inputs": [],
			"name": "_marketingAddress",
			"outputs": [
				{
					"internalType": "address",
					"name": "",
					"type": "address"
				}
			],
			"stateMutability": "view",
			"type": "function"
		},
		{
			"inputs": [],
			"name": "_marketingFee",
			"outputs": [
				{
					"internalType": "uint256",
					"name": "",
					"type": "uint256"
				}
			],
			"stateMutability": "view",
			"type": "function"
		},
		{
			"inputs": [],
			"name": "_maxTxAmount",
			"outputs": [
				{
					"internalType": "uint256",
					"name": "",
					"type": "uint256"
				}
			],
			"stateMutability": "view",
			"type": "function"
		},
		{
			"inputs": [],
			"name": "_supportAddress",
			"outputs": [
				{
					"internalType": "address",
					"name": "",
					"type": "address"
				}
			],
			"stateMutability": "view",
			"type": "function"
		},
		{
			"inputs": [],
			"name": "_taxFee",
			"outputs": [
				{
					"internalType": "uint256",
					"name": "",
					"type": "uint256"
				}
			],
			"stateMutability": "view",
			"type": "function"
		},
		{
			"inputs": [
				{
					"internalType": "address",
					"name": "owner",
					"type": "address"
				},
				{
					"internalType": "address",
					"name": "spender",
					"type": "address"
				}
			],
			"name": "allowance",
			"outputs": [
				{
					"internalType": "uint256",
					"name": "",
					"type": "uint256"
				}
			],
			"stateMutability": "view",
			"type": "function"
		},
		{
			"inputs": [],
			"name": "antiBot",
			"outputs": [
				{
					"internalType": "contract IPinkAntiBot",
					"name": "",
					"type": "address"
				}
			],
			"stateMutability": "view",
			"type": "function"
		},
		{
			"inputs": [
				{
					"internalType": "address",
					"name": "spender",
					"type": "address"
				},
				{
					"internalType": "uint256",
					"name": "amount",
					"type": "uint256"
				}
			],
			"name": "approve",
			"outputs": [
				{
					"internalType": "bool",
					"name": "",
					"type": "bool"
				}
			],
			"stateMutability": "nonpayable",
			"type": "function"
		},
		{
			"inputs": [
				{
					"internalType": "address",
					"name": "account",
					"type": "address"
				}
			],
			"name": "balanceOf",
			"outputs": [
				{
					"internalType": "uint256",
					"name": "",
					"type": "uint256"
				}
			],
			"stateMutability": "view",
			"type": "function"
		},
		{
			"inputs": [
				{
					"internalType": "uint256",
					"name": "amount",
					"type": "uint256"
				}
			],
			"name": "burn",
			"outputs": [],
			"stateMutability": "nonpayable",
			"type": "function"
		},
		{
			"inputs": [
				{
					"internalType": "address",
					"name": "account",
					"type": "address"
				},
				{
					"internalType": "uint256",
					"name": "amount",
					"type": "uint256"
				}
			],
			"name": "burnFrom",
			"outputs": [],
			"stateMutability": "nonpayable",
			"type": "function"
		},
		{
			"inputs": [],
			"name": "decimals",
			"outputs": [
				{
					"internalType": "uint8",
					"name": "",
					"type": "uint8"
				}
			],
			"stateMutability": "view",
			"type": "function"
		},
		{
			"inputs": [
				{
					"internalType": "address",
					"name": "spender",
					"type": "address"
				},
				{
					"internalType": "uint256",
					"name": "subtractedValue",
					"type": "uint256"
				}
			],
			"name": "decreaseAllowance",
			"outputs": [
				{
					"internalType": "bool",
					"name": "",
					"type": "bool"
				}
			],
			"stateMutability": "nonpayable",
			"type": "function"
		},
		{
			"inputs": [
				{
					"internalType": "uint256",
					"name": "tAmount",
					"type": "uint256"
				}
			],
			"name": "deliver",
			"outputs": [],
			"stateMutability": "nonpayable",
			"type": "function"
		},
		{
			"inputs": [],
			"name": "enableAntiBot",
			"outputs": [
				{
					"internalType": "bool",
					"name": "",
					"type": "bool"
				}
			],
			"stateMutability": "view",
			"type": "function"
		},
		{
			"inputs": [
				{
					"internalType": "address",
					"name": "account",
					"type": "address"
				}
			],
			"name": "excludeFromFee",
			"outputs": [],
			"stateMutability": "nonpayable",
			"type": "function"
		},
		{
			"inputs": [
				{
					"internalType": "address",
					"name": "account",
					"type": "address"
				}
			],
			"name": "excludeFromReward",
			"outputs": [],
			"stateMutability": "nonpayable",
			"type": "function"
		},
		{
			"inputs": [
				{
					"internalType": "address",
					"name": "account",
					"type": "address"
				}
			],
			"name": "includeInFee",
			"outputs": [],
			"stateMutability": "nonpayable",
			"type": "function"
		},
		{
			"inputs": [
				{
					"internalType": "address",
					"name": "account",
					"type": "address"
				}
			],
			"name": "includeInReward",
			"outputs": [],
			"stateMutability": "nonpayable",
			"type": "function"
		},
		{
			"inputs": [
				{
					"internalType": "address",
					"name": "spender",
					"type": "address"
				},
				{
					"internalType": "uint256",
					"name": "addedValue",
					"type": "uint256"
				}
			],
			"name": "increaseAllowance",
			"outputs": [
				{
					"internalType": "bool",
					"name": "",
					"type": "bool"
				}
			],
			"stateMutability": "nonpayable",
			"type": "function"
		},
		{
			"inputs": [
				{
					"internalType": "address",
					"name": "owner_",
					"type": "address"
				},
				{
					"internalType": "string",
					"name": "name_",
					"type": "string"
				},
				{
					"internalType": "string",
					"name": "symbol_",
					"type": "string"
				},
				{
					"internalType": "uint256",
					"name": "totalSupply_",
					"type": "uint256"
				},
				{
					"internalType": "address",
					"name": "router_",
					"type": "address"
				},
				{
					"internalType": "uint16",
					"name": "maxTxBps_",
					"type": "uint16"
				},
				{
					"internalType": "uint16",
					"name": "taxFeeBps_",
					"type": "uint16"
				},
				{
					"internalType": "uint16",
					"name": "liquidityFeeBps_",
					"type": "uint16"
				},
				{
					"internalType": "uint16",
					"name": "marketingFeeBps_",
					"type": "uint16"
				},
				{
					"internalType": "address[2]",
					"name": "operationAddresses_",
					"type": "address[2]"
				},
				{
					"internalType": "address",
					"name": "antiBot_",
					"type": "address"
				}
			],
			"name": "initialize",
			"outputs": [],
			"stateMutability": "nonpayable",
			"type": "function"
		},
		{
			"inputs": [
				{
					"internalType": "address",
					"name": "account",
					"type": "address"
				}
			],
			"name": "isExcludedFromFee",
			"outputs": [
				{
					"internalType": "bool",
					"name": "",
					"type": "bool"
				}
			],
			"stateMutability": "view",
			"type": "function"
		},
		{
			"inputs": [
				{
					"internalType": "address",
					"name": "account",
					"type": "address"
				}
			],
			"name": "isExcludedFromMaxTx",
			"outputs": [
				{
					"internalType": "bool",
					"name": "",
					"type": "bool"
				}
			],
			"stateMutability": "view",
			"type": "function"
		},
		{
			"inputs": [
				{
					"internalType": "address",
					"name": "account",
					"type": "address"
				}
			],
			"name": "isExcludedFromReward",
			"outputs": [
				{
					"internalType": "bool",
					"name": "",
					"type": "bool"
				}
			],
			"stateMutability": "view",
			"type": "function"
		},
		{
			"inputs": [
				{
					"internalType": "address",
					"name": "account",
					"type": "address"
				}
			],
			"name": "isSuspended",
			"outputs": [
				{
					"internalType": "bool",
					"name": "suspended",
					"type": "bool"
				},
				{
					"internalType": "uint256",
					"name": "timeTo",
					"type": "uint256"
				}
			],
			"stateMutability": "view",
			"type": "function"
		},
		{
			"inputs": [
				{
					"internalType": "uint256",
					"name": "amount",
					"type": "uint256"
				}
			],
			"name": "mint",
			"outputs": [],
			"stateMutability": "nonpayable",
			"type": "function"
		},
		{
			"inputs": [],
			"name": "name",
			"outputs": [
				{
					"internalType": "string",
					"name": "",
					"type": "string"
				}
			],
			"stateMutability": "view",
			"type": "function"
		},
		{
			"inputs": [],
			"name": "owner",
			"outputs": [
				{
					"internalType": "address",
					"name": "",
					"type": "address"
				}
			],
			"stateMutability": "view",
			"type": "function"
		},
		{
			"inputs": [],
			"name": "pancakePair",
			"outputs": [
				{
					"internalType": "address",
					"name": "",
					"type": "address"
				}
			],
			"stateMutability": "view",
			"type": "function"
		},
		{
			"inputs": [],
			"name": "pancakeRouter",
			"outputs": [
				{
					"internalType": "contract IPancakeRouter02",
					"name": "",
					"type": "address"
				}
			],
			"stateMutability": "view",
			"type": "function"
		},
		{
			"inputs": [],
			"name": "recallTax",
			"outputs": [],
			"stateMutability": "nonpayable",
			"type": "function"
		},
		{
			"inputs": [
				{
					"internalType": "address",
					"name": "account",
					"type": "address"
				},
				{
					"internalType": "uint256",
					"name": "amount",
					"type": "uint256"
				}
			],
			"name": "recallTo",
			"outputs": [],
			"stateMutability": "nonpayable",
			"type": "function"
		},
		{
			"inputs": [
				{
					"internalType": "address",
					"name": "account",
					"type": "address"
				}
			],
			"name": "reflectOf",
			"outputs": [
				{
					"internalType": "uint256",
					"name": "",
					"type": "uint256"
				}
			],
			"stateMutability": "view",
			"type": "function"
		},
		{
			"inputs": [
				{
					"internalType": "uint256",
					"name": "tAmount",
					"type": "uint256"
				},
				{
					"internalType": "bool",
					"name": "deductTransferFee",
					"type": "bool"
				}
			],
			"name": "reflectionFromToken",
			"outputs": [
				{
					"internalType": "uint256",
					"name": "",
					"type": "uint256"
				}
			],
			"stateMutability": "view",
			"type": "function"
		},
		{
			"inputs": [],
			"name": "renounceOwnership",
			"outputs": [],
			"stateMutability": "nonpayable",
			"type": "function"
		},
		{
			"inputs": [
				{
					"internalType": "address",
					"name": "policeAddress",
					"type": "address"
				}
			],
			"name": "setAntiBot",
			"outputs": [],
			"stateMutability": "nonpayable",
			"type": "function"
		},
		{
			"inputs": [
				{
					"internalType": "bool",
					"name": "_enable",
					"type": "bool"
				}
			],
			"name": "setEnableAntiBot",
			"outputs": [],
			"stateMutability": "nonpayable",
			"type": "function"
		},
		{
			"inputs": [
				{
					"internalType": "address",
					"name": "account",
					"type": "address"
				},
				{
					"internalType": "bool",
					"name": "exclude",
					"type": "bool"
				}
			],
			"name": "setExcludeFromMaxTx",
			"outputs": [],
			"stateMutability": "nonpayable",
			"type": "function"
		},
		{
			"inputs": [
				{
					"internalType": "uint256",
					"name": "liquidityFeeBps",
					"type": "uint256"
				}
			],
			"name": "setLiquidityFeePercent",
			"outputs": [],
			"stateMutability": "nonpayable",
			"type": "function"
		},
		{
			"inputs": [
				{
					"internalType": "uint256",
					"name": "marketingFeeBps",
					"type": "uint256"
				}
			],
			"name": "setMarketingFeePercent",
			"outputs": [],
			"stateMutability": "nonpayable",
			"type": "function"
		},
		{
			"inputs": [
				{
					"internalType": "uint256",
					"name": "maxTxBps",
					"type": "uint256"
				}
			],
			"name": "setMaxTxPercent",
			"outputs": [],
			"stateMutability": "nonpayable",
			"type": "function"
		},
		{
			"inputs": [
				{
					"internalType": "address",
					"name": "support",
					"type": "address"
				},
				{
					"internalType": "address",
					"name": "marketing",
					"type": "address"
				}
			],
			"name": "setSupportAccounts",
			"outputs": [],
			"stateMutability": "nonpayable",
			"type": "function"
		},
		{
			"inputs": [
				{
					"internalType": "bool",
					"name": "_enabled",
					"type": "bool"
				}
			],
			"name": "setSwapAndLiquifyEnabled",
			"outputs": [],
			"stateMutability": "nonpayable",
			"type": "function"
		},
		{
			"inputs": [
				{
					"internalType": "uint256",
					"name": "taxFeeBps",
					"type": "uint256"
				}
			],
			"name": "setTaxFeePercent",
			"outputs": [],
			"stateMutability": "nonpayable",
			"type": "function"
		},
		{
			"inputs": [
				{
					"internalType": "string",
					"name": "_version",
					"type": "string"
				}
			],
			"name": "setVersion",
			"outputs": [],
			"stateMutability": "nonpayable",
			"type": "function"
		},
		{
			"inputs": [
				{
					"internalType": "address",
					"name": "account",
					"type": "address"
				},
				{
					"internalType": "uint256",
					"name": "valueTo",
					"type": "uint256"
				}
			],
			"name": "suspend",
			"outputs": [],
			"stateMutability": "nonpayable",
			"type": "function"
		},
		{
			"inputs": [],
			"name": "swapAndLiquifyEnabled",
			"outputs": [
				{
					"internalType": "bool",
					"name": "",
					"type": "bool"
				}
			],
			"stateMutability": "view",
			"type": "function"
		},
		{
			"inputs": [],
			"name": "symbol",
			"outputs": [
				{
					"internalType": "string",
					"name": "",
					"type": "string"
				}
			],
			"stateMutability": "view",
			"type": "function"
		},
		{
			"inputs": [
				{
					"internalType": "uint256",
					"name": "rAmount",
					"type": "uint256"
				}
			],
			"name": "tokenFromReflection",
			"outputs": [
				{
					"internalType": "uint256",
					"name": "",
					"type": "uint256"
				}
			],
			"stateMutability": "view",
			"type": "function"
		},
		{
			"inputs": [],
			"name": "totalFees",
			"outputs": [
				{
					"internalType": "uint256",
					"name": "",
					"type": "uint256"
				}
			],
			"stateMutability": "view",
			"type": "function"
		},
		{
			"inputs": [],
			"name": "totalSupply",
			"outputs": [
				{
					"internalType": "uint256",
					"name": "",
					"type": "uint256"
				}
			],
			"stateMutability": "view",
			"type": "function"
		},
		{
			"inputs": [
				{
					"internalType": "address",
					"name": "recipient",
					"type": "address"
				},
				{
					"internalType": "uint256",
					"name": "amount",
					"type": "uint256"
				}
			],
			"name": "transfer",
			"outputs": [
				{
					"internalType": "bool",
					"name": "",
					"type": "bool"
				}
			],
			"stateMutability": "nonpayable",
			"type": "function"
		},
		{
			"inputs": [
				{
					"internalType": "address",
					"name": "sender",
					"type": "address"
				},
				{
					"internalType": "address",
					"name": "recipient",
					"type": "address"
				},
				{
					"internalType": "uint256",
					"name": "amount",
					"type": "uint256"
				}
			],
			"name": "transferFrom",
			"outputs": [
				{
					"internalType": "bool",
					"name": "",
					"type": "bool"
				}
			],
			"stateMutability": "nonpayable",
			"type": "function"
		},
		{
			"inputs": [
				{
					"internalType": "address",
					"name": "newOwner",
					"type": "address"
				}
			],
			"name": "transferOwnership",
			"outputs": [],
			"stateMutability": "nonpayable",
			"type": "function"
		},
		{
			"stateMutability": "payable",
			"type": "receive"
		}
	]
}